:100000000C94D0040C947B080C9454080C94F804C1
:100010000C94F8040C94F8040C94F8040C94F80470
:100020000C94F8040C94F8040C94F8040C941A0B37
:100030000C94F8040C94F8040C94F8040C94F80450
:100040000C940A080C94F8040C940A070C94E40627
:100050000C94F8040C94F8040C94F8040C94F80430
:100060000C94DB0B0C94F80401B202FFFF01900426
:100070000923A135016A02060001600800000000A2
:100080000000000000600440000000016202000067
:1000900000600400400000037B034CCD6C03AB0305
:1000A00036567600680402CB47A202180400058B7E
:1000B000C1010C0400000000037F060CC92C9797B7
:1000C00097038903264666006C0220000240040064
:1000D0000000000244040000000002480400000088
:1000E00000024C0400000000025004000000000266
:1000F00054040000000002580400000000025C04E8
:100100000000000002BC040000000001EC0400003C
:100110004000037F060CC92C9797970402030D3506
:100120005D040904872D353D00A301000000000196
:10013000078601FE074105F120283038077E01308F
:100140000746019A074704F1283038076C04F12864
:1001500030380216020001FB00003E000B003600A2
:100160000100020003000000650054FFEF0000FAE8
:1001700080000B128200010002000000000000005D
:100180000000000000000000280000FFFF4581FF84
:10019000FFFA7200000000000003E8000000010008
:1001A000017FFFFFFE8001001B0000000000000037
:1001B00000000000000000003E033040000000028C
:1001C000CAE3093E8000002000000000000000405B
:1001D0000000006000000041FF000000000B2A004A
:1001E00000165500002182FD872650FD800000008A
:1001F0001F0000000580000000000000010000005A
:1002000002000000030000400000000000046F0036
:1002100002653200005EC0400000000000000000E7
:1002200000000000000000FB8C6F5DFD5D08D90040
:100230007C733B006C12CC3200139D3200D0D6325E
:10024000000800400001F4FFE68079020000000091
:1002500000D0D600002710FB000000400000000086
:10026000000000000000000000000100000000008D
:10027000000100010000000000FA36FFBC308E00D3
:1002800005FBF0FFD95BC8FFD09ABE000010A9FFA4
:10029000F41EB200CEBBF700000001000000040015
:1002A0000200020200000CFFC2800000018000007A
:1002B000CF800040000000000000010000000000AE
:1002C0000006000000001400000000000000000014
:1002D000000000000000000000000000000000001E
:1002E000000000000000000000000000000000000E
:1002F0000000000000000000000000033F68B67925
:100300003528BCC67ED16C80000000400000000093
:1003100000B26A00000000000000000000000000C1
:10032000003FF0000000300000000000000000006E
:1003300000000000000000000000000000000000BD
:10034000000000000000000000254D002F706D002F
:100350000005AE000C02D00000000000650054FF54
:10036000EF00000000000000000100004400000059
:10037000000C00000001000000000000650000000B
:10038000540000FFEF00000000000000000000002B
:10039000000000000000004000000000000000001D
:1003A000000000000000004000000000000000000D
:1003B000000000000000000000000100000002003A
:1003C000000000000000000000000000000000002D
:1003D000000000000000000000000000000000001D
:1003E00000000000000000001B00000000000000F2
:1003F00000000000000000000000000000000000FD
:1004000000000000000000000000000000000000EC
:1004100000000040000000001B0000000000000081
:1004200000000000000000000000000000000000CC
:1004300000000000000000000000000000000000BC
:1004400000000000000000000000000000000000AC
:1004500000000000000000D8DCBAA2F1DEB2B8B49F
:10046000A88191F74A907F916AF3F9DBA8F9B0BAB5
:10047000A080F2CE81F3C2F1C1F2C3F3CCA2B2806C
:10048000F1C6D880BAA7DFDFDFF2A7C3CBC5B6F0CD
:1004900087A2942448703C95406834589B78A2F118
:1004A00083922D557DD8B1B4B8A1D09180F270F36C
:1004B00070F27C80A8F101B09887D943D886C988AA
:1004C000BAA1F20EB89780F1A9DFDFDFAADFDFDF84
:1004D000F2AAC5CDC7A90CC92C97979797F1A989FE
:1004E000264666B0B4BA80ACDEF2CAF1B28C02A97C
:1004F000B69800890E161EB8A9B4992C547CB08AFF
:10050000A896365676F1B9AFB4B083C0B8A89711A3
:10051000B18F98B9AFF0240844106418F1A329559D
:100520007DAF83B593AFF0002850F1A3869F61A6FD
:10053000DADEDFD9FAA38696DB31A6D9F8DFBAA6D0
:100540008FC2C5C7B28CC1B8A2DFDFDFA3DFDFDF98
:10055000D8D8F1B8A8B286B4980D355DB8AA98B0CD
:10056000872D353DB2B6BAAF8C96198F9FA70E1660
:100570001EB49AB8AA872C547CB9A3DEDFDFA3B1DE
:1005800080F2C4CDC9F1B8A9B499830D355D89B99C
:10059000A32D557DB593A30E161EA92C547CB8B47B
:1005A000B0F19783A81184A50998A383F0DA2408F1
:1005B00044106418D8F1A529557DA58595021A2EF9
:1005C0003A565A4048F9F3A3D9F8F09883240844DE
:1005D0001064189782A8F111F098A22408441064BE
:1005E00018DAF3DED883A59401D9A302F1A2C3C51A
:1005F000C7D8F18492A24DDA2AD84869D92AD86896
:1006000055DA32D85071D932D8705DDA3AD8587983
:10061000D93AD87893A34DDA2AD84869D92AD86824
:1006200055DA32D85071D932D8705DDA3AD8587963
:10063000D93AD878A88A9AF02850789EF38818F189
:100640009F1D98A8D908D8C89F129EF315A8DA1242
:1006500010D8F1AFC8978734B5B994A421F3D92243
:10066000D8F22DF3D92AD8F235F3D932D881A46043
:100670006061D961D86C6869D969D8747071D971B1
:10068000D8B1A384193D5DA3831A3E5E93103081D7
:100690001011B8B0AF8F94F2DA3ED8B49AA8872977
:1006A000DAF8D8879A35DAF8D8879A3DDAF8D8B1E7
:1006B000B9A49885022E56A581000C14A397B08A80
:1006C000F12DD928D84DD948D86DD968D8B1840D25
:1006D000DA0ED8A32983DA2C0ED8A3844983DA2C26
:1006E0004C0ED8B8B0A88A9AF520AADADFD8A8406C
:1006F000AAD0DADED8A860AADAD0DFD8F19786A827
:10070000319B069907AB9728889BF00C201440B8C2
:10071000B0B4A88C9CF0042851791D301438B282F2
:10072000ABD0982C505078789BF11AB0F08A9CA8E6
:100730002951798B2951798A2470598B2058718AD3
:100740004469388B3940688A6448318B304960A5E8
:1007500088200971584468113964493019F1AC0096
:100760002C547CF08CA804285078F1889726A8593E
:1007700098AC8C02264666F0899CA8295179247091
:1007800059446938644831A98809205970AB113837
:100790004069A8193148608CA83C415C207C00F17C
:1007A00087981986A86E767EA999882D557D9EB961
:1007B000A38A228A6E8A568A5E9FB183062646667F
:1007C0000E2E4E6E9DB8AD002C547CF2B18CB499B7
:1007D000B9A32D557D8191AC38AD3AB58391AC2D3F
:1007E000D928D84DD948D86DD968D88C9DAE29D98B
:1007F00004AED851D904AED879D904D881F39DADCF
:10080000008DAE1981ADD901D8F2AEDA26D88E911D
:100810002983A7D9ADADADADF32AD8D8F1B0AC8955
:10082000913E5E76F3AC2E2EF1B18C5A9CAC2C2806
:1008300028289CAC3018A8988128343C9724A728F5
:10084000343C9C24F2B089AC912C4C6C8A9B2DD901
:10085000D8D851D9D8D879D9D8D8F19E88A331DA47
:10086000D8D8912DD928D84DD948D86DD968D8B1C4
:100870008393353D8025DAD8D88569DAD8D8B49302
:1008800081A328343CF3AB8BF8A391B609B4D9AB60
:10089000DEFAB0879CB9A3DDF1A3A3A3A395F1A3CE
:1008A000A3A39DF1A3A3A3A3F2A3B49080F2A3A357
:1008B000A3A3A3A3A3A3A3A3B2A3A3A3A3A3A3B0EC
:1008C00087B599F1A3A3A398F1A3A3A3A397A3A387
:1008D000A3A3F39BA3A3DCB9A7F1262626D8D8FFB0
:1008E000444D5020496E697469616C697A6174691C
:1008F0006F6E206661696C65642028636F64652093
:10090000004D50553630353020636F6E6E65637420
:10091000696F6E206661696C6564004D50553630B4
:10092000353020636F6E6E656374696F6E2073750A
:10093000636365737366756C00496E697469616C95
:10094000697A696E6720444D502E2E2E00000000FB
:1009500000240027002A0000000000250028002BAA
:100960000004040404040404040202020202020358
:100970000303030303010204081020408001020462
:1009800008102001020408102000000008000201E5
:100990000000030407000000000000000000912197
:1009A00011241FBECFEFD8E0DEBFCDBF11E0A0E025
:1009B000B1E0ECEBFEE402C005900D92A234B10769
:1009C000D9F723E0A2E4B1E001C01D92A33BB20736
:1009D000E1F714E0C0EDD4E004C02197FE010E94CD
:1009E0003D25CF3CD107C9F70E9431120C945C27FA
:1009F0000C940000FC01918D828D981761F0828D1E
:100A0000DF01A80FB11D5D968C91928D9F5F9F7342
:100A1000928F90E008958FEF9FEF0895FC01918DE4
:100A2000828D981731F0828DE80FF11D858D90E051
:100A300008958FEF9FEF0895FC01918D228D892FEE
:100A400090E0805C9F4F821B91098F7399270895D6
:100A50008DEA92E00E941C0521E0892B09F420E038
:100A6000822F0895FC01848DDF01A80FB11DA35AC8
:100A7000BF4F2C91848D90E001968F739927848FBE
:100A8000A689B7892C93A089B1898C9180648C93B5
:100A9000938D848D981306C00288F389E02D8081A0
:100AA0008F7D80830895EF92FF920F931F93CF93D2
:100AB000DF93EC0181E0888F9B8D8C8D981305C0AE
:100AC000E889F989808185FD24C0F62E0B8D10E020
:100AD0000F5F1F4F0F731127E02E8C8DE8120CC093
:100AE0000FB607FCFACFE889F989808185FFF5CF39
:100AF000CE010E943205F1CF8B8DFE01E80FF11D72
:100B0000E35AFF4FF0820B8FEA89FB898081806274
:100B100007C0EE89FF896083E889F9898081806454
:100B2000808381E090E0DF91CF911F910F91FF9042
:100B3000EF900895CF93DF93EC01888D8823C9F05F
:100B4000EA89FB89808185FD05C0A889B9898C91D6
:100B500086FD0FC00FB607FCF5CF808185FFF2CF71
:100B6000A889B9898C9185FFEDCFCE010E9432050D
:100B7000E7CFDF91CF91089580E090E0892B29F0B5
:100B80000E94280581110C94000008953FB7F89445
:100B900080915E0290915F02A0916002B09161022B
:100BA00026B5A89B05C02F3F19F00196A11DB11DC8
:100BB0003FBFBA2FA92F982F8827820F911DA11D03
:100BC000B11DBC01CD0142E0660F771F881F991F40
:100BD0004A95D1F7089508958091420190E02091BF
:100BE0004301821B91090895FC0190819C3080F59E
:100BF000818128E830E0281B310987FD3395220FD9
:100C0000331F220F331F621773077CF0828128E5A0
:100C100032E0281B310987FD3395220F331F220F45
:100C2000331F621773070CF49B0122503109220F06
:100C3000331F4FB7F894892F90E0FC01EE0FFF1F90
:100C40008E0F9F1FFC01EB5EFD4F328321834FBF50
:100C5000089585ED8093BC008091BC0084FDFCCF9D
:100C60001092880208954091EE01262F30E0240F63
:100C7000311D21323105DCF4209188022430C9F481
:100C8000FC0180E090E0861758F43091EE0121914C
:100C9000DC01A453BE4FA30FB11D2C930196F3CFDB
:100CA0008091EE01680F6093EE0180E0089581E08D
:100CB000089582E008950895E091430180914201F2
:100CC000E81730F4F0E0E75CFD4F808190E0089594
:100CD0008FEF9FEF08959091430180914201981703
:100CE00050F4E92FF0E0E75CFD4F208130E09F5F9A
:100CF0009093430102C02FEF3FEFC9010895CF92B7
:100D0000DF92EF92FF920F931F93CF93DF937C01BB
:100D1000262F972F8A0180918902882391F0C62F70
:100D2000D72F6E01C40ED51ECC15DD0571F069916B
:100D3000D701ED91FC910190F081E02DC70109955B
:100D4000F3CF642F822F0E943306C801DF91CF9129
:100D50001F910F91FF90EF90DF90CF900895CF9368
:100D6000DF931F92CDB7DEB76983209189022223DA
:100D7000D1F02091AC02203240F021E030E0FC01C3
:100D80003383228380E090E015C080918A02E82FAF
:100D9000F0E0E557FD4F998190838F5F80938A0241
:100DA0008093AC0205C061E0CE0101960E9433063B
:100DB00081E090E00F90DF91CF91089581E08093E2
:100DC000440108950E943A271F920F920FB60F9286
:100DD00011242F933F934F935F936F937F938F9340
:100DE0009F93AF93BF93EF93FF938DEA92E00E949E
:100DF0003205FF91EF91BF91AF919F918F917F91BC
:100E00006F915F914F913F912F910F900FBE0F9077
:100E10001F9018951F920F920FB60F9211242F93C7
:100E20008F939F93EF93FF93E091BD02F091BE02E9
:100E30008081E091C302F091C40282FD12C09081D2
:100E40008091C6028F5F8F732091C702821751F085
:100E5000E091C602F0E0E355FD4F958F8093C60206
:100E600001C08081FF91EF919F918F912F910F9001
:100E70000FBE0F901F90189590E0FC01E757F64FBA
:100E80003491FC01EB58F64F2491FC01EF59F64FD9
:100E9000E491EE2309F43BC0332339F1333091F070
:100EA00038F43130A9F0323001F584B58F7D12C0AD
:100EB000373091F03830A1F03430B9F480918000AF
:100EC0008F7D03C0809180008F77809380000DC05C
:100ED00084B58F7784BD09C08091B0008F7703C03F
:100EE0008091B0008F7D8093B000F0E0EE0FFF1F87
:100EF000E95AF64FA591B4918FB7F894EC9161112E
:100F000003C020952E2301C02E2B2C938FBF089554
:100F1000CF93DF9390E0FC01EB58F64F2491FC0156
:100F2000EF59F64F8491882361F190E0880F991F63
:100F3000FC01E35BF64FC591D491FC01E95AF64FF1
:100F4000A591B491611109C09FB7F894888120954B
:100F500082238883EC912E230BC0623061F49FB70B
:100F6000F8943881822F809583238883EC912E2BEF
:100F70002C939FBF06C08FB7F894E8812E2B28834F
:100F80008FBFDF91CF9108958F929F92AF92BF92C2
:100F9000CF92DF92EF92FF926B017C010E94C60517
:100FA0004B015C01C114D104E104F104F1F00E9491
:100FB000C605DC01CB0188199909AA09BB09883E3D
:100FC0009340A105B10570F321E0C21AD108E108F0
:100FD000F10888EE880E83E0981EA11CB11CC11494
:100FE000D104E104F10419F7DDCFFF90EF90DF9019
:100FF000CF90BF90AF909F908F9008952FB7F894A7
:1010000060915A0270915B0280915C0290915D0246
:101010002FBF08951F920F920FB60F9211242F9396
:101020003F938F939F93AF93BF9380915A02909178
:101030005B02A0915C02B0915D023091590223E005
:10104000230F2D3720F40196A11DB11D05C026E800
:10105000230F0296A11DB11D2093590280935A02BD
:1010600090935B02A0935C02B0935D0280915E025C
:1010700090915F02A0916002B09161020196A11D62
:10108000B11D80935E0290935F02A0936002B093C3
:101090006102BF91AF919F918F913F912F910F90DE
:1010A0000FBE0F901F9018951F920F920FB60F92C0
:1010B00011242F933F934F935F936F937F938F935D
:1010C0009F93AF93BF93EF93FF93E0910201F09151
:1010D00003010995FF91EF91BF91AF919F918F917E
:1010E0007F916F915F914F913F912F910F900FBE24
:1010F0000F901F9018951F920F920FB60F92112408
:101100002F933F934F935F936F937F938F939F930F
:10111000AF93BF93EF93FF93E0910001F091010132
:101120000995FF91EF91BF91AF919F918F917F9121
:101130006F915F914F913F912F910F900FBE0F9044
:101140001F901895EF92FF920F931F93CF93DF9309
:1011500000D0CDB7DEB7142F91E090938902809331
:10116000AB0210928A021092AC028AE493E02983C7
:101170003A830E94AF062981022FE22E3A81F32E94
:101180008E2D801B811740F4F70161917F018AE465
:1011900093E00E94AF06F4CF0E94371091E08111D6
:1011A00090E0892F0F900F90DF91CF911F910F91B9
:1011B000FF90EF9008951F93CF93DF9300D0CDB7AA
:1011C000DEB75A83498391E0909389028093AB0202
:1011D00010928A021092AC028AE493E00E94AF0659
:1011E00019816A818AE493E00E94AF06612F8AE444
:1011F00093E00E94AF060E94371091E0811190E0C9
:10120000892F0F900F90DF91CF911F910895CF9369
:10121000DF931F92CDB7DEB749839E012F5F3F4F0B
:1012200041E00E94A2080F90DF91CF9108952F9284
:101230003F924F925F926F927F928F929F92AF9266
:10124000BF92CF92DF92EF92FF920F931F93CF93B3
:10125000DF93CDB7DEB727970FB6F894DEBF0FBE8A
:10126000CDBFE82E6B834F8369010E94FE074B01BF
:101270005C016E2C660CF12C1E82772473945F81C6
:10128000452F50E05D834C831801412C512C4F8138
:10129000F41608F099C070928902E092AB021092A5
:1012A0008A021092AC026B818AE493E00E94AF063E
:1012B0000E94371070928902E092AB0210928A026B
:1012C0001092AC02809188028111FCCF2C813D816B
:1012D0002F1931092132310514F020E230E021329A
:1012E00008F020E270928802709287028FEF80935C
:1012F000860210928502820F8093840270926302AC
:10130000809163028629809363028091620281301A
:1013100071F410926202809163028093BB0080910D
:10132000BC0083FDF8CF95EC9093BC0003C0E5EEC4
:10133000E093BC00809188028130E1F380918502C6
:10134000821710F420918502A4E6B2E0E9E3F2E00E
:101350008E2F49E352E0841B821718F48D918193FC
:10136000F7CF109243012093420190914201809166
:101370004301981719F10115110599F4A6012E8161
:10138000420F511D27FD5A955A8349838AE493E001
:101390000E946B06E981FA8180832E812F5F2E8364
:1013A000E4CF0E94FE07DC01CB0188199909AA0944
:1013B000BB0982159305A405B50500F38F81813221
:1013C00008F080E2F80E63CFFE8001151105D9F018
:1013D0000E94FE07DC01CB0188199909AA09BB0903
:1013E00020E030E080179107A207B30760F05F812B
:1013F000252F30E08F2D0F2C000C990B82179307AF
:1014000014F4FF24FA948F2D27960FB6F894DEBFBC
:101410000FBECDBFDF91CF911F910F91FF90EF9045
:10142000DF90CF90BF90AF909F908F907F906F9004
:101430005F904F903F902F900895BF92CF92DF9290
:10144000EF92FF920F931F93CF93DF931F92CDB72D
:10145000DEB7F82EE62EC42EB22ED02E08EE13E004
:101460009E012F5F3F4F41E00E941709882321F121
:10147000EC2DF0E0EB19F109319621E030E002C0EB
:10148000220F331FBA94E2F7215031090E2E01C00A
:10149000220F0A94EAF78D2D01C0880FEA95EAF72A
:1014A000422F4095998149232823422B49836E2D51
:1014B0008F2D0E94070901C080E00F90DF91CF912E
:1014C0001F910F91FF90EF90DF90CF90BF90089504
:1014D000CF92DF92EF92FF920F931F93CF93DF9300
:1014E0001F92CDB7DEB7F82EE62ED42EC22E08EE10
:1014F00013E09E012F5F3F4F41E00E941709998141
:10150000CC2041F041E050E001C0440FDA94EAF70A
:10151000492B09C021E030E0A90101C0440FDA9451
:10152000EAF74095492349836E2D8F2D0E940709C4
:101530000F90DF91CF911F910F91FF90EF90DF906F
:10154000CF9008951F93CF93DF93EC01162F8881DE
:101550008C3008F04EC061E0812F0E94880788819E
:10156000E82FF0E09F01220F331FE20FF31FEB5E25
:10157000FD4F1F739081907C192B108319821A8262
:101580006CE00E9431259CE0899FB001112440E06D
:1015900050E09A01260F371FF901EE0FFF1F2E0FA3
:1015A0003F1FF901EB5EFD4F908196FD16C04F5F26
:1015B0005F4F4C30510569F781110FC010928000C8
:1015C00082E0809381001092850010928400B19A8D
:1015D00080916F00826080936F00E881F0E0CF011E
:1015E000880F991FE80FF91FEB5EFD4F8081806423
:1015F00080838881DF91CF911F910895FC019091A4
:1016000014029C30A0F481E0890F8093140290832F
:10161000892F90E0FC01EE0FFF1F8E0F9F1FFC0132
:10162000EB5EFD4F88EB9BE09283818308958FEF03
:10163000808308951F920F920FB60F9211242F935B
:101640003F934F935F936F937F938F939F93AF934A
:10165000BF93EF93FF938091130287FF05C0109211
:101660008500109284001BC020911302022E000CF2
:10167000330B8091140290E02817390784F480918D
:101680001302082E000C990BFC01EE0FFF1F8E0FAA
:101690009F1FFC01EB5EFD4F808186FD15C0809190
:1016A00013028F5F8093130220911302022E000C0D
:1016B000330B8091140290E028173907C4F480910D
:1016C00013028C3064F113C080911302082E000CB9
:1016D000990BFC01EE0FFF1F8E0F9F1FFC01EB5EAD
:1016E000FD4F808160E08F730E943C07D8CF8091CE
:1016F000840090918500049680349C4918F480E41D
:101700009CE905C080918400909185000496909397
:101710008900809388008FEF809313023BC0209153
:1017200084003091850080911302082E000C990BE3
:10173000FC01EE0FFF1F8E0F9F1FFC01EB5EFD4FA4
:1017400081819281820F931F9093890080938800FA
:1017500080911302082E000C990BFC01EE0FFF1F65
:101760008E0F9F1FFC01EB5EFD4F808186FF12C034
:1017700080911302082E000C990BFC01EE0FFF1F45
:101780008E0F9F1FFC01EB5EFD4F808161E08F7328
:101790000E943C07FF91EF91BF91AF919F918F9174
:1017A0007F916F915F914F913F912F910F900FBE5D
:1017B0000F901F9018951F920F920FB60F92112441
:1017C0002F933F934F935F936F937F938F939F9349
:1017D000AF93BF93EF93FF938091B900887F8036DA
:1017E00009F49CC068F5883209F45BC090F480313C
:1017F00009F454C038F4882309F4F6C0883009F499
:101800004DC0F6C0883109F44CC0803209F45DC087
:10181000EFC0803409F468C048F4803309F455C03F
:10182000883309F0E5C080938602D8C0803509F47A
:101830004FC0883509F45DC0883409F0D9C0D6C0DE
:10184000883909F4C7C0A8F4883709F467C038F4A8
:10185000883609F463C0803709F460C0C9C088388D
:1018600009F4B8C0803909F45FC0803809F0C0C0FD
:101870005BC0803B09F486C038F4803A09F466C046
:10188000883A09F47FC0B4C0803C09F4A7C0883C02
:1018900009F4A4C0883B09F48AC0AAC080916302FD
:1018A00010C09091850280918402981770F5E091A4
:1018B000850281E08E0F80938502F0E0EC59FD4FA8
:1018C00080818093BB0085EC86C0809386028EC0A9
:1018D000E091850281E08E0F809385028091BB00AC
:1018E000F0E0EC59FD4F8083909185028091840255
:1018F0006EC0E091850281E08E0F80938502809119
:10190000BB00F0E0EC59FD4F80838091870281118C
:101910006DC081E08093620284EA61C083E08093BD
:10192000880210921202CFCF80911202803208F00A
:1019300051C0E091120281E08E0F809312028091DB
:10194000BB00F0E0EE50FE4F8083BDCF85EC80936E
:10195000BC001092880280911202803230F4E09133
:101960001202F0E0EE50FE4F10826091120270E021
:10197000E091F001F091F10182EF91E00995109270
:10198000120236C084E0809388021092EF01109218
:10199000EE01E091EC01F091ED0109958091EE01ED
:1019A000811105C081E08093EE011092CC01E0919D
:1019B000EF0181E08E0F8093EF01F0E0E453FE4FE2
:1019C00080818093BB009091EF018091EE01981788
:1019D00008F479CF85E88093BC000AC085EC809339
:1019E000BC001092880204C0109286020E94290650
:1019F000FF91EF91BF91AF919F918F917F916F91E7
:101A00005F914F913F912F910F900FBE0F901F90BC
:101A10001895CF92DF92EF92FF926B017C0120E04C
:101A200030E0A9010E94592287FD11C020E030E07A
:101A300048EC52E4C701B6010E942C25181654F454
:101A4000C12CD12C88ECE82E82E4F82E03C0C12CE6
:101A5000D12C7601C0924501D0924601E092470117
:101A6000F0924801C701B6010E94F6249B01AC0127
:101A7000A9EBB2E00E949C2324E630E040E050E075
:101A80000E947D23CA01B90161597B4F8F4F9F4F3F
:101A900082E693E0FF90EF90DF90CF900C94F405F6
:101AA000CF92DF92EF92FF926B017C0120E030E059
:101AB000A9010E94592287FD11C020E030E048ECC6
:101AC00052E4C701B6010E942C25181654F4C12C0B
:101AD000D12C88ECE82E82E4F82E03C0C12CD12C46
:101AE0007601C0924901D0924A01E0924B01F092F6
:101AF0004C01C701B6010E94F6249B01AC01A9EB81
:101B0000B2E00E949C2324E630E040E050E00E94D6
:101B10007D23CA01B90161597B4F8F4F9F4F85E6E5
:101B200093E0FF90EF90DF90CF900C94F405CF926C
:101B3000DF92EF92FF926B017C0120E030E0A9017F
:101B40000E94592287FD11C020E030E048EC52E4A9
:101B5000C701B6010E942C25181654F4C12CD12CB3
:101B600088ECE82E82E4F82E03C0C12CD12C76013B
:101B7000C0924D01D0924E01E0924F01F09250017F
:101B8000C701B6010E94F6249B01AC01A9EBB2E0AB
:101B90000E949C2324E630E040E050E00E947D2338
:101BA000CA01B90161597B4F8F4F9F4F88E693E07F
:101BB000FF90EF90DF90CF900C94F405CF92DF92DE
:101BC000EF92FF926B017C0120E030E0A9010E94BE
:101BD0002C25181624F460E084E00E943C0720E0E5
:101BE00030E048EC52E4C701B6010E942C251816DB
:101BF0006CF020E030E0A901C701B6010E94592233
:101C000087FF0AC0C12CD12C760106C0C12CD12C73
:101C100088ECE82E82E4F82EC0925101D092520155
:101C2000E0925301F0925401C701B6010E94F624DC
:101C30009B01AC01A9EBB2E00E949C2324E630E0BA
:101C400040E050E00E947D23CA01B90161597B4FF9
:101C50008F4F9F4F8BE693E0FF90EF90DF90CF90F8
:101C60000C94F4051092890160E070E0CB010E94B1
:101C7000DE0D60E070E0CB010E94970D60E070E047
:101C8000CB010E94500D60E070E0CB010C94090D77
:101C90000F931F931092690110926A0110926B01C9
:101CA00010926C011092650110926601109267010A
:101CB000109268011092610110926201109263010A
:101CC00010926401009181011091820120918301A1
:101CD0003091840100935D0110935E0120935F01B8
:101CE0003093600140917D0150917E0160917F01B0
:101CF000709180014093590150935A0160935B01A8
:101D000070935C018091790190917A01A0917B019F
:101D1000B0917C018093550190935601A093570197
:101D2000B0935801009375011093760120937701C9
:101D30003093780140937101509372016093730165
:101D40007093740180936D0190936E01A0936F0165
:101D5000B09370010E94FE07609385017093860125
:101D6000809387019093880181E08093890160E0EE
:101D700070E0CB010E94DE0D60E070E0CB010E94BC
:101D8000970D60E070E0CB010E94500D60E070E0C4
:101D9000CB011F910F910C94090D9C01FC0180E077
:101DA000AF01421B530B461757071CF49191890F43
:101DB000F7CF0895AF92BF92CF92DF92EF92FF924A
:101DC0000F931F93CF93DF93CDB7DEB78B01ADB6E3
:101DD000BEB66B012FEFC21AD20A2DB73EB72C192F
:101DE0003D090FB6F8943EBF0FBE2DBF2F5F3F4F8A
:101DF0007901D901FC019F01281B390B20173107FC
:101E00001CF421912D93F7CFB801C7010E94CD0E8C
:101E1000F701E00FF11F8083A601B7018DEA92E080
:101E20000E947C0F8DEA92E00E949A050FB6F8940A
:101E3000BEBE0FBEADBEDF91CF911F910F91FF903F
:101E4000EF90DF90CF90BF90AF900895CF92DF9248
:101E5000EF92FF920F931F93CF93DF93CDB7DEB72F
:101E60000DB71EB7DC011496ED91FC911597BF01DB
:101E70006E5F7F4F2DB73EB7261B370B0FB6F8941A
:101E80003EBF0FBE2DBFADB7BEB711966D0127E0A7
:101E9000ADB7BEB711962C93D6011196EC93EDB663
:101EA000FEB6B3E0EB0EF11C20E030E02E173F074A
:101EB00091F0DC014D915C914115510529F0420FE3
:101EC000531FDA014C9101C040E0D7014D937D01D1
:101ED0002F5F3F4FEBCFC6010E94DA0E0FB6F8948A
:101EE0001EBF0FBE0DBFDF91CF911F910F91FF90CD
:101EF000EF90DF90CF900895CF92DF92EF92FF9214
:101F00000F931F93CF93DF936C017A018B01C0E095
:101F1000D0E0CE15DF0589F0D8016D918D01D60195
:101F2000ED91FC910190F081E02DC6010995892B7E
:101F300011F47E0102C02196ECCFC701DF91CF9151
:101F40001F910F91FF90EF90DF90CF900895CF9366
:101F5000DF93EC0188819981009711F00E94D825C8
:101F6000198218821D821C821B821A82DF91CF91F6
:101F700008950F931F93CF93DF93EC01888199818C
:101F8000009729F02A813B812617370788F48B01B7
:101F90006F5F7F4F0E947026009761F0998388835E
:101FA0001B830A832C813D81232B11F4FC011082B9
:101FB00081E001C080E0DF91CF911F910F910895E2
:101FC0008F929F92AF92BF92EF92FF920F931F93C7
:101FD000CF93DF938B017C01C0E0D0E0C017D10725
:101FE000D1F10E94FE076093B5027093B602809310
:101FF000B7029093B802E091AD02F091AE02068074
:10200000F781E02D8DEA92E0099597FF1FC00E94AD
:10201000FE078090B5029090B602A090B702B090F3
:10202000B802DC01CB0188199909AA09BB09809083
:10203000B1029090B202A090B302B090B4028815A1
:102040009905AA05BB05B8F28E0105C0F701819379
:102050007F012196C3CFC801DF91CF911F910F91CE
:10206000FF90EF90BF90AF909F908F900895209138
:10207000AC029091AB02213208F04AC080918802F4
:102080008111FCCF32E03093880231E03093870237
:102090003FEF309386021092850220938402ABE8D2
:1020A000B2E044E652E0FA013E2F341B321718F436
:1020B0003D913193F9CF1092630220916302990F01
:1020C000922B9093630290916202913061F410928E
:1020D0006202909163029093BB009091BC0093FDCB
:1020E000F8CF95EC01C095EE9093BC0090918802DA
:1020F0009230E1F3909186029F3F79F080918602C1
:10210000803241F080918602803331F084E005C056
:1021100081E003C082E001C083E010928A02109245
:10212000AC021092890208950F931F93CF93DF930F
:10213000CAE8D3E008EE13E02BE833E041E06AE3BD
:1021400088810E9417098981DF91CF911F910F919A
:10215000089521E042E06AE680918A030C94680ABF
:10216000482F6EE680918A030C9407092F923F92C4
:102170004F925F926F927F928F929F92AF92BF9297
:10218000CF92DF92EF92FF920F931F93CF93DF9343
:102190003C015B01342ED22F202E4F716DE68091D1
:1021A0008A030E9407098D2F0E94B01080E190E001
:1021B0000E9443256C01002339F080E190E00E94E9
:1021C0004325C82F492E02C0C0E0412CE12CF12C40
:1021D000EA14FB0408F06EC0C7014096A816B906C1
:1021E00018F45A2C5E1802C080E1582E852D90E01C
:1021F00020E031E02D1B31092817390714F45D2E3A
:102200005194F301EE0DFF1D222059F09C2FAC2FAD
:10221000B42D8A2F891B851530F484918D933196C6
:10222000F8CFCE2F4F2E2C2F342D452D6FE68091D9
:102230008A030E94A208852C912CC114D10429F193
:10224000432D4F716DE680918A030E9407098D2FFF
:102250000E94B01008EE13E09601452D6FE68091C4
:102260008A030E941709A401B6018C2F942D0E94A5
:102270003F27892B51F0C6010E94D825222021F149
:102280008C2F942D0E94D8251FC0E80CF91CD50D69
:10229000EA14FB0408F09CCFD11101C03394432D04
:1022A0004F716DE680918A030E9407098D2F0E946D
:1022B000B0108ECFC6010E94D825222039F08C2F75
:1022C000942D0E94D82502C080E001C081E0DF91FA
:1022D000CF911F910F91FF90EF90DF90CF90BF9023
:1022E000AF909F908F907F906F905F904F903F90B6
:1022F0002F9008950F931F93662351F0462F9C0152
:1023000008EE13E064E780918A030E94170902C077
:10231000FC0110821F910F9108950F931F93CF938B
:10232000DF93CAE8D3E008EE13E02BE833E042E0A5
:1023300062E788810E941709898190E0982F882799
:102340002A81822BDF91CF911F910F910895EF92F7
:10235000FF920F931F93CF93DF931F92CDB7DEB7FA
:102360007A0189019E012F5F3F4F41E00E941709CA
:10237000882339F029812E7730E035952795F701AC
:1023800020830F90DF91CF911F910F91FF90EF90DD
:102390000895EF92FF920F931F93CF93DF93EC0179
:1023A0008B016115710551F0CB010E9450227C0117
:1023B000BC01CE010E94B90F811104C0CE010E9460
:1023C000A70F07C0FD82EC82B801888199810E9425
:1023D0004922CE01DF91CF911F910F91FF90EF9095
:1023E0000895FC01808191810C94D825EF92FF9291
:1023F0000F931F93CF93DF93EC01198218821B82F6
:102400001A821D821C826115710521F18B01FB016D
:1024100001900020E9F731977F01E61AF70AB7012A
:102420000E94B90F811109C0CE01DF91CF911F9198
:102430000F91FF90EF900C94A70FFD82EC82B801F2
:1024400088819981DF91CF911F910F91FF90EF903B
:102450000C945527DF91CF911F910F91FF90EF9032
:102460000895CF93DF93CDB7DEB7C25DD1090FB624
:10247000F894DEBF0FBECDBF789484B5826084BD72
:1024800084B5816084BD85B5826085BD85B5816078
:1024900085BD80916E00816080936E0010928100F6
:1024A00080918100826080938100809181008160B1
:1024B0008093810080918000816080938000809172
:1024C000B10084608093B1008091B00081608093FE
:1024D000B00080917A00846080937A0080917A00C5
:1024E000826080937A0080917A00816080937A0084
:1024F00080917A00806880937A001092C10068EE23
:1025000073E080E090E00E94C407E091BD02F0918A
:10251000BE0282E08083E091B902F091BA0210829B
:10252000E091BB02F091BC0280E180831092C50271
:10253000E091C102F091C20286E08083E091BF0287
:10254000F091C002808180618083E091BF02F091B0
:10255000C002808188608083E091BF02F091C00258
:10256000808180688083E091BF02F091C002808109
:102570008F7D80831092B1021092B2021092B3024A
:102580001092B40268E371E0CE0101960E94F61148
:10259000CE0101960E94260FCE0101960E94F111F4
:1025A00061E087E00E94880761E087E00E943C07C5
:1025B00066E070E08BE693E00E94A20A64E070E0BF
:1025C00085E693E00E94A20A60E070E0CB010E94E1
:1025D000DE0D60E070E0CB010E94970D60E070E0DE
:1025E000CB010E94500D60E070E0CB010E94090D0C
:1025F00068EE73E080E090E00E94C4070E94FE074E
:102600006093C8017093C9018093CA019093CB0174
:10261000109243011092420110928A021092AC0271
:102620001092880281E0809387021092620261E03A
:1026300082E10E943C0761E083E10E943C078091B7
:10264000B9008E7F8093B9008091B9008D7F80930F
:10265000B90088E48093B80085E48093BC008CE0E6
:102660008093B80001E023E042E06BE680918A03AA
:102670000E941D0A00E022E044E06BE180918A03A1
:102680000E941D0A22E044E06CE180918A030E94CE
:102690001D0A20E046E06BE680918A030E94680AEA
:1026A00060E082E00E94880728EE33E04BE853E0C8
:1026B00065E780918A030E94A71180918B03843380
:1026C00019F061E079E002C06BE179E01A821982C9
:1026D0001C821B821E821D82CE0101960E94C9119E
:1026E000CE0101960E94260FCE0101960E94F111A3
:1026F0001A8219821C821B821E821D8269E379E084
:10270000CE0101960E94C911CE0101960E94260FAA
:10271000CE0101960E94F11121E047E06BE6809125
:102720008A030E94680A6EE170E080E090E00E94F7
:10273000C40720E046E06BE680918A030E94680AA5
:1027400040E76DE680918A030E94070986E00E94B7
:10275000B01040E06DE680918A030E94070928EEE0
:1027600033E04BE853E060E080918A030E94A711B8
:1027700080908B0328EE33E04BE853E061E08091DA
:102780008A030E94A71190908B0328EE33E04BE858
:1027900053E062E080918A030E94A711A0908B030E
:1027A0004FE765E280918A030E94070920E045E037
:1027B0006AE680918A030E94680A48E665E2809191
:1027C0008A030E94070921E041E06AE680918A03BA
:1027D0000E94680A64E170E080E090E00E94C40713
:1027E00001E020E040E069E877E087E591E00E94C1
:1027F000B610882309F4CDC288E090E00E944325FA
:10280000B82E192FE12CF12CF701E956FF4F449116
:10281000F701E856FF4F2491670133E0C30ED11C46
:10282000F701E756FF4FE491EE23D1F1EE2EF12CA4
:10283000E330D8F0B7018B2D912FCE52DF4F288394
:10284000C25DD040CF52DF4F4883C15DD0400E946F
:102850007026B82E192FCF52DF4F4881C15DD0406E
:10286000CE52DF4F2881C25DD040AB2DB12F80E02A
:1028700090E08E159F0548F4F601E80FF91FE95620
:10288000FF4FE491ED930196F4CF00E0B7018B2D5B
:10289000912F0E94B610EC0CFD1C811117C010C0C6
:1028A00044E0E40EF11CF601E956FF4FE491E130FB
:1028B00039F442E368E380918A030E94070906C065
:1028C0008B2D912F0E94D82512E064C250ECE516A2
:1028D000F10408F499CF8B2D912F0E94D82503E0A5
:1028E00023E042E06BE680918A030E941D0A42E1E8
:1028F00068E380918A030E94070944E069E18091BE
:102900008A030E94070901E023E045E06AE1809123
:102910008A030E941D0A03E023E042E06AE18091FD
:102920008A030E941D0A22E044E06BE180918A0341
:102930000E941D0A43E060E780918A030E94070914
:1029400040E061E780918A030E94070920E040E0AF
:1029500060E080918A030E94680A082D26E046E024
:1029600060E080918A030E941D0A092D26E046E05E
:1029700061E080918A030E941D0A0A2D26E046E04C
:1029800062E080918A030E941D0AE12CF12CF7017C
:10299000E859FF4FE491A1E8B0E0AC0FBD1FAE0DC8
:1029A000B11DEC9381E08E0D9FEFE91AF90AA3E0C7
:1029B000AE1568F7CD57DF4F6881C358D04070E03F
:1029C0009B012E5F3F4F90E02817390704F700E086
:1029D000CE57DF4F2881C258D040CF57DF4F4881B4
:1029E000C158D04081E890E08C0F9D1F03960E9453
:1029F000B61080E0F701E859FF4FE491A1E8B0E09C
:102A0000AC0FBD1FA80FB11DEC938F5FBFEFEB1A8A
:102A1000FB0A843078F3CD57DF4F6881C358D0402C
:102A200070E0AB014E5F5F4F282F30E04217530735
:102A30000CF700E0CE57DF4F2881C258D040CF5767
:102A4000DF4F4881C158D04081E890E08C0F9D1F36
:102A500003960E94B6100E94A9100E948D11682F43
:102A6000CE0101960E947A1142E06FE180918A03C3
:102A70000E9407094CE961E280918A030E940709DC
:102A800040E560E280918A030E94070940E062E22B
:102A900080918A030E9407090E94A91021E046E064
:102AA0006AE680918A030E94680A21E047E06AE6AC
:102AB00080918A030E94680A21E043E06AE68091DF
:102AC0008A030E94680A80E0F701E859FF4FE49109
:102AD000A1E8B0E0AC0FBD1FA80FB11DEC938F5F54
:102AE000EFEFEE1AFE0A843078F3CD57DF4F68819E
:102AF000C358D04070E0AB014E5F5F4F282F30E0ED
:102B0000421753070CF700E0CE57DF4F2881C25819
:102B1000D040CF57DF4F4881C158D04081E890E086
:102B20008C0F9D1F03960E94B61080E0F701E859B4
:102B3000FF4FE491A1E8B0E0AC0FBD1FA80FB11D9D
:102B4000EC938F5FFFEFEF1AFF0A843078F3CD57D5
:102B5000DF4F6881C358D04070E0AB014E5F5F4FDC
:102B6000282F30E0421753070CF700E0CE57DF4F15
:102B70002881C258D040CF57DF4F4881C158D0403C
:102B800081E890E08C0F9D1F03960E94B61080E0B4
:102B9000F701E859FF4FE491A1E8B0E0AC0FBD1F89
:102BA000A80FB11DEC938F5F2FEFE21AF20A843069
:102BB00078F3CD57DF4F6881C358D04070E0AB0148
:102BC0004E5F5F4F282F30E0421753070CF700E0AD
:102BD000CE57DF4F2881C258D040CF57DF4F4881B2
:102BE000C158D04081E890E08C0F9D1F03960E9451
:102BF000B6100E948D1183309105D8F3682FCE0155
:102C000001960E947A1180E0F701E859FF4FE491A4
:102C1000A1E8B0E0AC0FBD1FA80FB11DEC938F5F12
:102C20003FEFE31AF30A843078F3CD57DF4F388053
:102C3000C358D040832C912CA4014E5F5F4F282FA6
:102C400030E04217530704F7CE57DF4FB880C25821
:102C5000D040CF57DF4F2880C158D040422D4F7110
:102C60006DE680918A030E9407098B2D0E94B010A7
:102C7000C12CD12C612C7724739461E8462E512C01
:102C80004C0E5D1E43E0440E511CC814D90498F547
:102C9000C60140968816990618F4A32CAC1802C0F9
:102CA00040E1A42E8A2D90E093012B1931092817B9
:102CB000390714F4AB2CA19492012C0D3D1D08EEA4
:102CC00013E04A2D6FE680918A030E941709CA0C0F
:102CD000D11CBA0CC814D904C0F6B11001C0239499
:102CE000422D4F716DE680918A030E9407098B2D5A
:102CF0000E94B010CACF0E948D1183309105D8F385
:102D0000682FCE0101960E947A11F701E859FF4F12
:102D100080E09491A1E8B0E0AC0FBD1FA80FB11DF9
:102D20009C938F5F843010F43196F3CFCD57DF4FF3
:102D30006881C358D04070E0AB014E5F5F4F282FD1
:102D400030E04217530784F700E0CE57DF4F288169
:102D5000C258D040CF57DF4F4881C158D04081E89A
:102D600090E08C0F9D1F03960E94B61020E047E074
:102D70006AE680918A030E94680A8AE290E0909352
:102D80008D0380938C030E94A9100E94941010E080
:102D900001C011E010938A0141E55FEE66E0809189
:102DA0008A030E94DB0842EF59EF68E080918A03B2
:102DB0000E94DB0848E757E06AE080918A030E949E
:102DC000DB0841E55FEF63E180918A030E94DB0845
:102DD00040EC5FEF65E180918A030E94DB084DEAD9
:102DE0005FEF67E180918A030E94DB08111120C028
:102DF00021E047E06AE680918A030E94680A8EED2E
:102E000096E09093010180930001809169008360B6
:102E100080936900E89A0E94941080938B018091BE
:102E20008C0390918D0390938D0180938C0125C02C
:102E30001A8219821C821B821E821D8260EE78E03B
:102E4000CE0101960E94C911CE0101960E94260F63
:102E5000CE0101960E94F11160918A0170E06F5BD2
:102E60007E4FCE0101960E94F611CE0101960E947E
:102E7000260FCE0101960E94F1118E010F5F1F4FA8
:102E800028E0222E31E1332E8DEA92E00E941C05CB
:102E9000892B09F4A5C361E070E0CE0188569F4FED
:102EA0000E94E00FC856DF4F2881C859D040222326
:102EB00011F40C946321CE52DF4F2883C25DD040C1
:102EC0000E94FE076093C8017093C9018093CA01F4
:102ED0009093CB01CE52DF4F2881C25DD04021308C
:102EE00009F0CCC062E070E0C8010E94E00F61E030
:102EF00070E0CE018F579F4F0E94E00F62E070E0BC
:102F0000C8010E94CD0E8F5FCF57DF4F9881C15807
:102F1000D04089139EC160E084E00E943C0720916C
:102F2000810130918201409183015091840160912F
:102F300096017091970180919801909199010E945A
:102F40001824609396017093970180939801909351
:102F5000990120917D0130917E0140917F01509136
:102F60008001609192017091930180919401909100
:102F700095010E94182460939201709393018093AD
:102F80009401909395012091790130917A014091BB
:102F90007B0150917C0160918E0170918F01809135
:102FA0009001909191010E94182460938E0170937A
:102FB0008F01809390019093910110928101109262
:102FC0008201109283011092840110927D0110926F
:102FD0007E0110927F01109280011092790110926F
:102FE0007A0110927B0110927C011092690110927B
:102FF0006A0110926B0110926C011092650110929F
:10300000660110926701109268011092610110929E
:103010006201109263011092640110925D0110929E
:103020005E0110925F01109260011092590110929E
:103030005A0110925B0110925C011092550110929E
:10304000560110925701109258011092750110927A
:10305000760110927701109278011092710110920E
:103060007201109273011092740110926D0110920E
:103070006E0110926F0110927001B2C2223009F0FD
:1030800057C065E070E0C8010E94E00F61E070E0A9
:10309000CE018F579F4F0E94E00F65E070E0C8019E
:1030A0000E94CD0E8E5FCF57DF4F9881C158D04020
:1030B0008913CFC051E0509389010E94480E698165
:1030C00070E080E090E00E945E226093B401709313
:1030D000B5018093B6019093B7016A8170E080E0FA
:1030E00090E00E945E226093C4017093C5018093BA
:1030F000C6019093C7016B8170E080E090E00E9470
:103100005E226093BC017093BD018093BE019093D9
:10311000BF0181E09C81911101C080E08093A301F7
:1031200081E09D81911101C080E08093A20158C28D
:10313000233009F072C064E070E0C8010E94E00F23
:1031400061E070E0CE018F579F4F0E94E00F64E076
:1031500070E0C8010E94CD0E8D5FCF57DF4F988180
:10316000C158D040891375C0109289010E94320E57
:1031700010929E0110929F011092A0011092A10145
:103180001092B4011092B5011092B6011092B701DD
:103190001092BC011092BD011092BE011092BF01AD
:1031A0001092C4011092C5011092C6011092C7017D
:1031B00010929D0110929C0110929B0110929A0115
:1031C0006A8170E080E090E00E945E222B013C0169
:1031D0006B8170E080E090E00E945E224B015C0118
:1031E0006C8170E080E090E00E945E226B017C01C7
:1031F000698170E080E090E00E945E220E94DE0D16
:10320000C301B2010E94970DC501B4010E94500D87
:10321000C701B6010E94090DE3C1243009F0E0C1E5
:103220006EE170E0C8010E94E00F61E070E0CE0145
:1032300089569F4F0E94E00F6EE170E0C8010E9426
:10324000CD0E8C5FC956DF4F9881C759D040891782
:1032500029F08DEA92E00E949A05C2C189818823F3
:1032600039F0C12CD12C90E8E92E9FEBF92E06C045
:10327000C12CD12C80E8E82E8FE3F82E6C8170E011
:10328000762F6627072E000C880B990B0E94602270
:1032900020E030E543EC57E40E94842420E030E055
:1032A000A9010E9418244B015C016D8170E080E04F
:1032B00090E00E94602220E030E543EC57E40E9459
:1032C00084249B01AC01C501B4010E9418249B0118
:1032D000AC01C701B6010E94BF226093B001709398
:1032E000B1018093B2019093B3018E81882339F0AC
:1032F000C12CD12CA0E8EA2EAFEBFA2E06C0C12CCF
:10330000D12CF0E8EF2EFFE3FF2E698570E0762FD9
:103310006627072E000C880B990B0E94602220E084
:1033200030E543EC57E40E94842420E030E0A9011A
:103330000E9418244B015C016A8570E080E090E0F7
:103340000E94602220E030E543EC57E40E94842490
:103350009B01AC01C501B4010E9418249B01AC0182
:10336000C701B6010E94BF226093AC017093AD010A
:103370008093AE019093AF018B85882339F0C12CE7
:10338000D12C70E8E72E7FEBF72E06C0C12CD12C94
:1033900060E8E62E6FE3F62E6E8570E0762F6627E6
:1033A000072E000C880B990B0E94602220E030E56C
:1033B00043EC57E40E94842420E030E0A9010E94FD
:1033C00018244B015C016F8570E080E090E00E9462
:1033D000602220E030E543EC57E40E9484249B0106
:1033E000AC01C501B4010E9418249B01AC01C701C6
:1033F000B6010E94BF226093A8017093A901809337
:10340000AA019093AB018889882339F0C12CD12C73
:1034100040E8E42E4FEBF42E06C0C12CD12C30E84E
:10342000E32E3FE3F32E6B8970E0762F6627072E9D
:10343000000C880B990B0E94602220E030E543ECE1
:1034400057E40E94842420E030E0A9010E9418245F
:103450004B015C016C8970E080E090E00E9460228A
:1034600020E030E543EC57E40E9484249B01AC014A
:10347000C501B4010E9418249B01AC01C701B6012B
:103480000E94BF2260930C0170930D0180930E0186
:1034900090930F018D89882339F0C12CD12C90E8AD
:1034A000E92E9FEBF92E06C0C12CD12C80E8E82E26
:1034B0008FE3F82E688D70E0762F6627072E000CBC
:1034C000880B990B0E94602220E030E543EC57E422
:1034D0000E94842420E030E0A9010E9418244B01BE
:1034E0005C01698D70E080E090E00E94602220E045
:1034F00030E543EC57E40E9484249B01AC01C501F4
:10350000B4010E9418249B01AC01C701B6010E94BE
:10351000BF22609308017093090180930A01909380
:103520000B018A8D882339F0C12CD12CA0E8EA2E1A
:10353000AFEBFA2E06C0C12CD12CF0E8EF2EFFE342
:10354000FF2E6D8D70E0762F6627072E000C880BFE
:10355000990B0E94602220E030E543EC57E40E9482
:10356000842420E030E0A9010E9418244B015C0172
:103570006E8D70E080E090E00E94602220E030E5F7
:1035800043EC57E40E9484249B01AC01C501B401C3
:103590000E9418249B01AC01C701B6010E94BF2202
:1035A00060930401709305018093060190930701D5
:1035B00061E471E0CE018F569F4F0E94F61160E4E6
:1035C00071E0CE018F579F4F0E94F611CE018F57A9
:1035D0009F4F0E94F111CE018F569F4F0E94F11113
:1035E0000E94FE07C090A401D090A501E090A60122
:1035F000F090A701A4E6CA0ED11CE11CF11C6C15C9
:103600007D058E059F0508F471C00E94FE0760933A
:10361000A4017093A5018093A6019093A701F801DE
:1036200025E011922A95E9F739E03983609151013B
:103630007091520180915301909154010E94FD2498
:103640006A8360914D0170914E0180914F0190917C
:1036500050010E94FD246B836091490170914A01E1
:1036600080914B0190914C010E94FD246C836091EC
:1036700045017091460180914701909148010E9457
:10368000FD246D83CF57DF4F2882C158D040CE57DD
:10369000DF4F3882C258D04060917D0170917E0129
:1036A00080917F01909180010E94FD24CD57DF4FD2
:1036B0006883C358D0406091790170917A018091FC
:1036C0007B0190917C010E94FD24CC57DF4F6883E1
:1036D000C458D04065E070E0C8010E94DA0E64E092
:1036E00070E0CE018F579F4F0E94DA0E0E94FE07B6
:1036F000C090C801D090C901E090CA01F090CB0100
:10370000DC01CB018C199D09AE09BF09893C9105EB
:10371000A105B10510F00E94320E80918901882325
:1037200009F4C8C56091C4017091C5018091C601BA
:103730009091C7010E94F6249B01AC012C593F4F88
:103740004F4F5F4FA2EFBFEF0E94AA2328EC30E05B
:1037500040E050E00E947D23CA01B901695F7F4FBC
:103760008F4F9F4F0E9460224B015C016093C0010C
:103770007093C1018093C2019093C3016091BC0119
:103780007091BD018091BE019091BF010E94F6240D
:103790009B01AC012C593F4F4F4F5F4FAEE0B0E063
:1037A0000E949C2328EC30E040E050E00E947D2302
:1037B000CA01B90167507109810991090E9460220B
:1037C0006B017C016093B8017093B9018093BA01D9
:1037D0009093BB010E94FE074090850150908601A6
:1037E00060908701709088016419750986099709AE
:1037F0000E945E22C754DF4F688379838A839B834C
:10380000C95BD0408091810190918201A091830198
:10381000B0918401C756DF4F88839983AA83BB8305
:10382000C959D04020917D0130917E0140917F01A6
:1038300050918001C354DF4F288339834A835B83CF
:10384000CD5BD040A5019401C354DF4F68817981DD
:103850008A819B81CD5BD0400E941724C755DF4FE2
:10386000688379838A839B83C95AD0408091790188
:1038700090917A01A0917B01B0917C01CF53DF4FF1
:1038800088839983AA83BB83C15CD040A70196013A
:10389000BC01CD010E941724C355DF4F6883798393
:1038A0008A839B83CD5AD04020E030E0A901C756DF
:1038B000DF4F688179818A819B81C959D0400E94FC
:1038C0002C25181694F0C756DF4F288139814A817C
:1038D0005B81C959D0405058C356DF4F2883398384
:1038E0004A835B83CD59D04010C0C756DF4F8881D3
:1038F0009981AA81BB81C959D040C356DF4F8883C3
:103900009983AA83BB83CD59D04020E030E0A90140
:10391000C755DF4F688179818A819B81C95AD04020
:103920000E942C25181694F0C755DF4F2881398145
:103930004A815B81C95AD0405058CF55DF4F288308
:1039400039834A835B83C15AD04010C0C755DF4FCB
:1039500088819981AA81BB81C95AD040CF55DF4F58
:1039600088839983AA83BB83C15AD04020E030E08A
:10397000A901C355DF4F688179818A819B81CD5A26
:10398000D0400E942C25181694F0C355DF4F288193
:1039900039814A815B81CD5AD0405058CB55DF4F99
:1039A000288339834A835B83C55AD04010C0C355EE
:1039B000DF4F88819981AA81BB81CD5AD040CB55F8
:1039C000DF4F88839983AA83BB83C55AD040209157
:1039D0007501309176014091770150917801C75679
:1039E000DF4F688179818A819B81C959D0400E94CB
:1039F00017244B015C0120917101309172014091BB
:103A0000730150917401C354DF4F688179818A81B9
:103A10009B81CD5BD0400E9417246B017C012091DB
:103A20006D0130916E0140916F0150917001CF5343
:103A3000DF4F688179818A819B81C15CD0400E947F
:103A40001724A70196015058CB54DF4F28833983A0
:103A50004A835B83C55BD0409B01AC015058C35384
:103A6000DF4F288339834A835B83CD5CD0402AE9CA
:103A700039E949E95EE3C356DF4F688179818A817C
:103A80009B81CD59D0400E94592287FF08C01092D7
:103A9000690110926A0110926B0110926C014090C2
:103AA000B4015090B5016090B6017090B70120E06C
:103AB00030E0A901C301B2010E945922882309F113
:103AC0002AE939E949E95EE3CF55DF4F6881798119
:103AD0008A819B81C15AD0400E94592287FD11C022
:103AE0002AE939E949E95EE3CB55DF4F68817981FD
:103AF0008A819B81C55AD0400E94592287FD12C0FD
:103B000019C010926501109266011092670110921F
:103B1000680120E030E0A901C301B2010E945922EE
:103B20008111DECF10926101109262011092630147
:103B3000109264018091690190916A01A0916B01DA
:103B4000B0916C01CB53DF4F88839983AA83BB83E9
:103B5000C55CD0402091B0013091B1014091B201DB
:103B60005091B301C356DF4F688179818A819B816F
:103B7000CD59D0400E94BF2220E030E048EC52E412
:103B80000E9484246B017C012091AC013091AD0135
:103B90004091AE015091AF01CB53DF4F68817981E5
:103BA0008A819B81C55CD0400E94BF2220E030E02A
:103BB0004AE754E40E9484249B01AC01C701B6018A
:103BC0000E9418246B017C012091A8013091A90169
:103BD0004091AA015091AB01C501B4010E94BF22DE
:103BE000C754DF4F288139814A815B81C95BD0404E
:103BF0000E9484249B01AC01C701B6010E941724D6
:103C0000CF54DF4F688379838A839B83C15BD04025
:103C100020916501309166014091670150916801E2
:103C2000C753DF4F288339834A835B83C95CD04005
:103C300020910C0130910D0140910E0150910F0126
:103C4000CF55DF4F688179818A819B81C15AD040ED
:103C50000E94BF2220E030E048EC52E40E9484241D
:103C60004B015C01209108013091090140910A014A
:103C700050910B01C753DF4F688179818A819B8105
:103C8000C95CD0400E94BF2220E030E04AE754E403
:103C90000E9484249B01AC01C501B4010E94182438
:103CA0004B015C0120910401309105014091060116
:103CB00050910701CB54DF4F688179818A819B81C4
:103CC000C55BD0400E94BF22C754DF4F2881398195
:103CD0004A815B81C95BD0400E9484249B01AC0176
:103CE000C501B4010E9417246B017C018091610120
:103CF00090916201A0916301B0916401CB54DF4FB8
:103D000088839983AA83BB83C55BD04020915E03DF
:103D100030915F034091600350916103CB55DF4FB9
:103D2000688179818A819B81C55AD0400E94BF22D7
:103D300020E030E048EC52E40E9484244B015C0116
:103D400020915A0330915B0340915C0350915D03D5
:103D5000CB54DF4F688179818A819B81C55BD040DC
:103D60000E94BF2220E030E04AE754E40E9484240D
:103D70009B01AC01C501B4010E9418244B015C01F8
:103D800020915603309157034091580350915903A5
:103D9000C353DF4F688179818A819B81CD5CD0409C
:103DA0000E94BF22C754DF4F288139814A815B813D
:103DB000C95BD0400E9484249B01AC01C501B401C1
:103DC0000E9417244B015C0120E030E040E751E401
:103DD000C701B6010E942C2520E030E040E751E405
:103DE00018160CF490C2C501B4010E942C2520E0E5
:103DF00030E040E751EC1816ECF0C701B6010E9424
:103E0000592287FF06C0C12CD12C50E7E52E51EC7A
:103E1000F52E20E030E040E751ECC501B4010E94EE
:103E2000592287FF19C0812C912C40E7A42E41EC28
:103E3000B42E12C0C701B6010E94592287FF06C0E6
:103E4000C12CD12C30E7E32E31ECF32E812C912CB8
:103E500020E7A22E21E4B22E0E94FE076093850186
:103E6000709386018093870190938801C356DF4F3A
:103E7000288139814A815B81CD59D04020935D01F1
:103E800030935E0140935F0150936001CF55DF4F47
:103E900088819981AA81BB81C15AD0408093590100
:103EA00090935A01A0935B01B0935C01CB55DF4F17
:103EB000288139814A815B81C55AD04020935501C0
:103EC000309356014093570150935801C756DF4F26
:103ED00088819981AA81BB81C959D040809375019D
:103EE00090937601A0937701B0937801C354DF4F8C
:103EF000288139814A815B81CD5BD040209371015B
:103F0000309372014093730150937401CF53DF4F8C
:103F100088819981AA81BB81C15CD04080936D0169
:103F200090936E01A0936F01B0937001C356DF4F61
:103F3000288139814A815B81CD59D040CB53DF4FF5
:103F4000688179818A819B81C55CD0400E94182458
:103F50006093690170936A0180936B0190936C0187
:103F6000CF55DF4F288139814A815B81C15AD040CA
:103F7000C753DF4F688179818A819B81C95CD040BA
:103F80000E94182460936501709366018093670115
:103F900090936801CB55DF4F288139814A815B813D
:103FA000C55AD040CB54DF4F688179818A819B818B
:103FB000C55BD0400E941824609361017093620138
:103FC000809363019093640120E030E0A901C7561B
:103FD000DF4F688179818A819B81C959D0400E94D5
:103FE0005922CF54DF4F288139814A815B81C15BDF
:103FF000D04087FF19C0C301B2010E941724C756E1
:10400000DF4F688379838A839B83C959D040CF541B
:10401000DF4F288139814A815B81C15BD040C30178
:10402000B2010E94182418C0C301B2010E941824D2
:10403000C756DF4F688379838A839B83C959D040F1
:10404000CF54DF4F288139814A815B81C15BD040E9
:10405000C301B2010E9417242B013C0120E030E093
:10406000A901C755DF4F688179818A819B81C95A2F
:10407000D0400E945922A701960187FD3BC0C75638
:10408000DF4F688179818A819B81C959D0400E9424
:104090001724C356DF4F688379838A839B83CD5966
:1040A000D040A7019601C301B2010E941724CF5549
:1040B000DF4F688379838A839B83C15AD040A701ED
:1040C0009601C756DF4F688179818A819B81C959E2
:1040D000D0400E941824C756DF4F688379838A83B3
:1040E0009B83C959D040A7019601C301B2010E9428
:1040F00018243AC0C756DF4F688179818A819B8135
:10410000C959D0400E941824C356DF4F6883798371
:104110008A839B83CD59D040A7019601C301B20188
:104120000E941824CF55DF4F688379838A839B834D
:10413000C15AD040A7019601C756DF4F68817981E7
:104140008A819B81C959D0400E941724C756DF4FEE
:10415000688379838A839B83C959D040A7019601DC
:10416000C301B2010E9417246B017C0120E030E002
:10417000A901C355DF4F688179818A819B81CD5A1E
:10418000D0400E945922A501940187FF3BC0C3562D
:10419000DF4F688179818A819B81CD59D0400E940F
:1041A0001724C356DF4F688379838A839B83CD5955
:1041B000D040A5019401CF55DF4F688179818A8174
:1041C0009B81C15AD0400E9418242B013C01A501BB
:1041D0009401C756DF4F688179818A819B81C959D3
:1041E000D0400E941824C756DF4F688379838A83A2
:1041F0009B83C959D040A5019401C701B6010E9413
:1042000017243AC0C356DF4F688179818A819B8128
:10421000CD59D0400E941824C356DF4F688379835C
:104220008A839B83CD59D040A5019401CF55DF4FA0
:10423000688179818A819B81C15AD0400E9417246C
:104240002B013C01A5019401C756DF4F688179819C
:104250008A819B81C959D0400E941724C756DF4FDD
:10426000688379838A839B83C959D040A5019401CF
:10427000C701B6010E9418244B015C01C356DF4FF1
:10428000688179818A819B81CD59D0400E94DE0D61
:10429000C301B2010E94970DC756DF4F6881798133
:1042A0008A819B81C959D0400E94500DC501B4013B
:1042B0000E94090D60E070E0CB010E94C4070E94DB
:1042C000BC050C94441761E070E0CE018F579F4FFE
:1042D0000E94E00F61E070E0C8010E94E00FCF573C
:1042E000DF4F8881C158D040998189130C942919D6
:1042F000811103C00E94320E73C9813009F070C968
:104300000E94480E6DC9C501B4010E942C25C12C24
:10431000D12C90E7E92E91E4F92E18160CF496CDE5
:1043200078CDEDEAF2E01382128288EE93E0A0E00D
:10433000B0E084839583A683B7832CE131E0318399
:10434000208325EC30E03587248724EC30E0378764
:10435000268720EC30E0318B208B21EC30E0338B52
:10436000228B22EC30E0358B248B26EC30E0378B2F
:10437000268B118E128E138E148EEAE4F3E01382D4
:10438000128284839583A683B7838CE291E0918324
:10439000808388E680938A03EAE7F3E080E090E098
:1043A000A0E8BFE380839183A283B3831482158244
:1043B0001682178210861186128613861486158639
:1043C00016861786E9EAF3E01182108213821282C0
:1043D00015821482E3EAF3E01182108213821282C2
:1043E00015821482EDE9F3E01182108213821282A9
:1043F00015821482EEE6F3E010821182128213829B
:1044000014821582168217821086118612861386F0
:104410008BE693E00E94FE0A88E693E00E94FE0A83
:1044200085E693E00E94FE0A82E693E00E94FE0A7F
:1044300080910C0190910D01A0910E01B0910F019E
:1044400080935E0390935F03A0936003B093610336
:104450008091080190910901A0910A01B0910B018E
:1044600080935A0390935B03A0935C03B0935D0326
:104470008091040190910501A0910601B09107017E
:104480008093560390935703A0935803B093590316
:104490000895FB01DC0105900D920020E1F70895DD
:1044A000FC0105900020E9F7809590958E0F9F1FE5
:1044B00008950E949B2208F481E00895E89409C0C1
:1044C00097FB3EF490958095709561957F4F8F4F47
:1044D0009F4F9923A9F0F92F96E9BB279395F6955D
:1044E000879577956795B795F111F8CFFAF4BB0FDB
:1044F00011F460FF1BC06F5F7F4F8F4F9F4F16C03F
:10450000882311F096E911C0772321F09EE8872FC8
:10451000762F05C0662371F096E8862F70E060E084
:104520002AF09A95660F771F881FDAF7880F9695FD
:10453000879597F90895990F0008550FAA0BE0E8A1
:10454000FEEF16161706E807F907C0F01216130655
:10455000E407F50798F0621B730B840B950B39F495
:104560000A2661F0232B242B252B21F408950A26FB
:1045700009F4A140A6958FEF811D811D08950E9429
:10458000D2220C9443230E94352338F00E943C230E
:1045900020F0952311F00C942C230C943223112439
:1045A0000C9477230E94542370F3959FC1F3950FC9
:1045B00050E0551F629FF001729FBB27F00DB11DA7
:1045C000639FAA27F00DB11DAA1F649F6627B00D37
:1045D000A11D661F829F2227B00DA11D621F739F20
:1045E000B00DA11D621F839FA00D611D221F749F2E
:1045F0003327A00D611D231F849F600D211D822F75
:10460000762F6A2F11249F5750409AF0F1F088239B
:104610004AF0EE0FFF1FBB1F661F771F881F9150C8
:104620005040A9F79E3F510580F00C942C230C9428
:1046300077235F3FE4F3983ED4F3869577956795AB
:10464000B795F795E7959F5FC1F7FE2B880F911DF2
:104650009695879597F9089597F99F6780E870E098
:1046600060E008959FEF80EC089500240A941616E8
:10467000170618060906089500240A941216130650
:10468000140605060895092E0394000C11F48823DE
:1046900052F0BB0F40F4BF2B11F460FF04C06F5FFA
:1046A0007F4F8F4F9F4F089557FD9058440F551FD0
:1046B00059F05F3F71F04795880F97FB991F61F0A4
:1046C0009F3F79F087950895121613061406551F1B
:1046D000F2CF4695F1DF08C0161617061806991F87
:1046E000F1CF86957105610508940895E894BB277C
:1046F00066277727CB0197F90895052E97FB1EF4BF
:1047000000940E94942357FD07D00E94E62307FCE3
:1047100003D04EF40C9494235095409530952195F8
:104720003F4F4F4F5F4F08959095809570956195DD
:104730007F4F8F4F9F4F08950E940824A59F900D93
:10474000B49F900DA49F800D911D11240895B7FF73
:104750000C949C230E949C23821B930B08952F9200
:104760003F924F925F926F927F928F929F92AF9201
:10477000BF92CF92DF92EF92FF920F931F93CF934E
:10478000DF93CDB7DEB7CA1BDB0B0FB6F894DEBFE5
:104790000FBECDBF09942A88398848885F846E840B
:1047A0007D848C849B84AA84B984C884DF80EE8055
:1047B000FD800C811B81AA81B981CE0FD11D0FB65E
:1047C000F894DEBF0FBECDBFED010895A1E21A2E11
:1047D000AA1BBB1BFD010DC0AA1FBB1FEE1FFF1FA5
:1047E000A217B307E407F50720F0A21BB30BE40BF5
:1047F000F50B661F771F881F991F1A9469F760953C
:104800007095809590959B01AC01BD01CF010895F5
:10481000A29FB001B39FC001A39F700D811D112401
:10482000911DB29F700D811D1124911D0895505846
:10483000BB27AA270E942F240C9443230E943523D0
:1048400038F00E943C2320F039F49F3F19F426F4FD
:104850000C9432230EF4E095E7FB0C942C23E92F03
:104860000E94542358F3BA17620773078407950709
:1048700020F079F4A6F50C9476230EF4E0950B2E37
:10488000BA2FA02D0B01B90190010C01CA01A001A2
:104890001124FF27591B99F0593F50F4503E68F1FD
:1048A0001A16F040A22F232F342F4427585FF3CF3E
:1048B000469537952795A795F0405395C9F77EF40F
:1048C0001F16BA0B620B730B840BBAF09150A1F058
:1048D000FF0FBB1F661F771F881FC2F70EC0BA0FDE
:1048E000621F731F841F48F4879577956795B79566
:1048F000F7959E3F08F0B0CF9395880F08F0992761
:10490000EE0F9795879508950E9498240C94432361
:104910000E943C2358F00E94352340F029F45F3F69
:1049200029F00C942C2351110C9477230C943223EE
:104930000E94542368F39923B1F3552391F3951BF7
:10494000550BBB27AA2762177307840738F09F5FB0
:104950005F4F220F331F441FAA1FA9F335D00E2E1D
:104960003AF0E0E832D091505040E695001CCAF78A
:104970002BD0FE2F29D0660F771F881FBB1F26174D
:1049800037074807AB07B0E809F0BB0B802DBF0124
:10499000FF2793585F4F3AF09E3F510578F00C94F3
:1049A0002C230C9477235F3FE4F3983ED4F3869551
:1049B00077956795B795F7959F5FC9F7880F911D14
:1049C0009695879597F90895E1E0660F771F881F00
:1049D000BB1F621773078407BA0720F0621B730BB3
:1049E000840BBA0BEE1F88F7E09508950E94FD2412
:1049F0006894B1110C94772308950E945C2388F089
:104A00009F5798F0B92F9927B751B0F0E1F0660F92
:104A1000771F881F991F1AF0BA95C9F714C0B130D3
:104A200091F00E947623B1E008950C947623672FCD
:104A3000782F8827B85F39F0B93FCCF38695779502
:104A40006795B395D9F73EF49095809570956195EB
:104A50007F4F8F4F9F4F08950E949B2208F48FEF46
:104A60000895991B79E004C0991F961708F0961BCA
:104A7000881F7A95C9F780950895EE0FFF1F05905E
:104A8000F491E02D0994CF93DF938230910510F4D7
:104A900082E090E0E091B103F091B20320E030E0D9
:104AA000C0E0D0E0309711F140815181481759079B
:104AB000C0F04817590761F482819381209719F05B
:104AC0009B838A832BC09093B2038093B10326C04B
:104AD0002115310519F04217530718F49A01BE0148
:104AE000DF01EF010280F381E02DDCCF21153105DC
:104AF00009F1281B390B2430310590F412968D9161
:104B00009C9113976115710521F0FB0193838283BA
:104B100004C09093B2038093B103FD01329644C068
:104B2000FD01E20FF31F81939193225031092D93E0
:104B30003C933AC02091AF033091B003232B41F452
:104B400020911201309113013093B0032093AF03F1
:104B500020911001309111012115310541F42DB73B
:104B60003EB74091140150911501241B350BE09183
:104B7000AF03F091B003E217F307A0F42E1B3F0B35
:104B80002817390778F0AC014E5F5F4F24173507BF
:104B900048F04E0F5F1F5093B0034093AF038193D3
:104BA000919302C0E0E0F0E0CF01DF91CF91089552
:104BB0000F931F93CF93DF93009709F48CC0FC01F0
:104BC0003297138212820091B1031091B203011542
:104BD000110581F420813181820F931F2091AF0351
:104BE0003091B0032817390779F5F093B003E093BB
:104BF000AF0371C0D80140E050E0AE17BF0750F4DA
:104C000012962D913C911397AD012115310509F1B3
:104C1000D901F3CF9D01DA01338322836081718151
:104C2000860F971F8217930769F4EC012881398159
:104C3000260F371F2E5F3F4F318320838A819B8150
:104C400093838283452B29F4F093B203E093B1035D
:104C500042C01396FC93EE931297ED01499159913E
:104C60009E01240F351FE217F30771F480819181B3
:104C7000840F951F029611969C938E938281938147
:104C800013969C938E931297E0E0F0E0D801129671
:104C90008D919C911397009719F0F8018C01F6CF34
:104CA0008D919C9198012E5F3F4F820F931F209111
:104CB000AF033091B0032817390769F4309729F40E
:104CC0001092B2031092B10302C0138212821093A9
:104CD000B0030093AF03DF91CF911F910F9108951F
:104CE000A0E0B0E0E6E7F6E20C94B323EC01009715
:104CF00021F4CB010E944325B8C0FC01E60FF71F49
:104D00009C0122503109E217F30708F4ACC0D90125
:104D10000D911C91119706171707B0F0053011057A
:104D200008F49FC0C80104978617970708F499C034
:104D300002501109061B170B019311936D937C937D
:104D4000CF010E94D8258DC05B01A01AB10A4C0189
:104D5000800E911EA091B103B091B20340E050E0EB
:104D6000E12CF12C109709F44AC0A815B905D1F52A
:104D70006D907C901197630182E0C80ED11CCA141B
:104D8000DB0480F1A3014A195B096A0182E0C80EC5
:104D9000D11C1296BC9012971396AC91B5E0CB162D
:104DA000D10440F0B282A38351834083D9016D9333
:104DB0007C930AC00E5F1F4FC301800F911FF90142
:104DC00091838083EB2DFA2FE114F10431F0D701A8
:104DD0001396FC93EE93129744C0F093B203E093C2
:104DE000B1033FC08D919C9111974817590708F462
:104DF000AC017D0112960D90BC91A02DB3CF809196
:104E0000AF039091B00388159905E1F44617570751
:104E1000C8F48091100190911101009741F48DB771
:104E20009EB74091140150911501841B950BE81712
:104E3000F907C8F4F093B003E093AF03F90171836D
:104E400060830FC0CB010E9443257C01009759F07D
:104E5000A801BE010E944C27CE010E94D825C7019F
:104E600004C0CE0102C080E090E0CDB7DEB7EEE036
:104E70000C94CF2381E090E0F8940C945C27FB0124
:104E8000DC0104C08D910190801921F44150504003
:104E9000C8F7881B990B0895FB01DC0102C0019043
:104EA0000D9241505040D8F70895FB01DC0101906C
:0C4EB0000D920020E1F70895F894FFCF68
:104EBC00EB05EB050000B4420000B0400000E04000
:104ECC000000B3038000E8030000000053057C0FD2
:104EDC001C05FA040E059A0500000000AF067F06BB
:104EEC00EC056B065C065B065374617274656400BA
:024EFC00200094
:00000001FF
