:100000000C94E7040C94A5080C947E080C940F053E
:100010000C940F050C940F050C940F050C940F0510
:100020000C940F050C940F050C940F050C94440BC5
:100030000C940F050C940F050C940F050C940F05F0
:100040000C9434080C940F050C9434070C940E0790
:100050000C940F050C940F050C940F050C940F05D0
:100060000C94050C0C940F05084AD73B3BCE016E4F
:1000700084BCBFFDC12F3D6C74319ABD56833DDAFF
:100080003D00C77F11BED9E4BB4C3E916BAAAABE0E
:10009000000000803F0001B202FFFF01900409232D
:1000A000A135016A0206000160080000000000009E
:1000B00000000060044000000001620200000060D7
:1000C0000400400000037B034CCD6C03AB033656A9
:1000D0007600680402CB47A202180400058BC10118
:1000E0000C0400000000037F060CC92C97979703AF
:1000F0008903264666006C022000024004000000CE
:100100000002440400000000024804000000000255
:100110004C040000000002500400000000025404DF
:100120000000000002580400000000025C0400000F
:10013000000002BC040000000001EC0400004000CC
:10014000037F060CC92C9797970402030D355D04B5
:100150000904872D353D00A301000000000107863A
:1001600001FE074105F120283038077E013007469F
:10017000019A074704F1283038076C04F128303819
:100180000216020001FB00003E000B0036000100D9
:10019000020003000000650054FFEF0000FA800039
:1001A0000B128200010002000000000000000000AD
:1001B000000000000000280000FFFF4581FFFFFA5B
:1001C0007200000000000003E80000000100017F51
:1001D000FFFFFE8001001B00000000000000000087
:1001E0000000000000003E03304000000002CAE3AF
:1001F000093E8000002000000000000000400000D8
:10020000006000000041FF000000000B2A00001603
:100210005500002182FD872650FD800000001F0050
:100220000000058000000000000001000000020046
:100230000000030000400000000000046F000265A1
:100240003200005EC040000000000000000000001E
:100250000000000000FB8C6F5DFD5D08D9007C7321
:100260003B006C12CC3200139D3200D0D632000815
:1002700000400001F4FFE68079020000000000D099
:10028000D600002710FB0000004000000000000026
:10029000000000000000000001000000000000015C
:1002A00000010000000000FA36FFBC308E0005FBA4
:1002B000F0FFD95BC8FFD09ABE000010A9FFF41E62
:1002C000B200CEBBF70000000100000004000200F5
:1002D000020200000CFFC280000001800000CF80FD
:1002E00000400000000000000100000000000006C7
:1002F00000000000140000000000000000000000EA
:1003000000000000000000000000000000000000ED
:1003100000000000000000000000000000000000DD
:10032000000000000000000000033F68B679352897
:10033000BCC67ED16C80000000400000000000B20E
:100340006A00000000000000000000000000003F04
:10035000F00000003000000000000000000000007D
:10036000000000000000000000000000000000008D
:1003700000000000000000254D002F706D000005FA
:10038000AE000C02D00000000000650054FFEF003A
:100390000000000000000001000044000000000C0C
:1003A0000000000100000000000065000000540093
:1003B00000FFEF000000000000000000000000004F
:1003C00000000000004000000000000000000000ED
:1003D00000000000004000000000000000000000DD
:1003E000000000000000000001000000020000000A
:1003F00000000000000000000000000000000000FD
:1004000000000000000000000000000000000000EC
:100410000000000000001B000000000000000000C1
:1004200000000000000000000000000000000000CC
:1004300000000000000000000000000000000000BC
:100440000040000000001B00000000000000000051
:10045000000000000000000000000000000000009C
:10046000000000000000000000000000000000008C
:10047000000000000000000000000000000000007C
:100480000000000000D8DCBAA2F1DEB2B8B4A88146
:1004900091F74A907F916AF3F9DBA8F9B0BAA0808E
:1004A000F2CE81F3C2F1C1F2C3F3CCA2B280F1C6A5
:1004B000D880BAA7DFDFDFF2A7C3CBC5B6F087A22B
:1004C000942448703C95406834589B78A2F18392FC
:1004D0002D557DD8B1B4B8A1D09180F270F370F2EF
:1004E0007C80A8F101B09887D943D886C988BAA181
:1004F000F20EB89780F1A9DFDFDFAADFDFDFF2AA13
:10050000C5CDC7A90CC92C97979797F1A9892646FD
:1005100066B0B4BA80ACDEF2CAF1B28C02A9B69869
:1005200000890E161EB8A9B4992C547CB08AA896DE
:10053000365676F1B9AFB4B083C0B8A89711B18F71
:1005400098B9AFF0240844106418F1A329557DAF81
:1005500083B593AFF0002850F1A3869F61A6DADE41
:10056000DFD9FAA38696DB31A6D9F8DFBAA68FC207
:10057000C5C7B28CC1B8A2DFDFDFA3DFDFDFD8D809
:10058000F1B8A8B286B4980D355DB8AA98B0872D99
:10059000353DB2B6BAAF8C96198F9FA70E161EB412
:1005A0009AB8AA872C547CB9A3DEDFDFA3B180F20E
:1005B000C4CDC9F1B8A9B499830D355D89B9A32D0E
:1005C000557DB593A30E161EA92C547CB8B4B0F17A
:1005D0009783A81184A50998A383F0DA240844100E
:1005E0006418D8F1A529557DA58595021A2E3A568D
:1005F0005A4048F9F3A3D9F8F098832408441064CA
:10060000189782A8F111F098A2240844106418DA0F
:10061000F3DED883A59401D9A302F1A2C3C5C7D83C
:10062000F18492A24DDA2AD84869D92AD86855DAD5
:1006300032D85071D932D8705DDA3AD85879D93A6F
:10064000D87893A34DDA2AD84869D92AD86855DAD8
:1006500032D85071D932D8705DDA3AD85879D93A4F
:10066000D878A88A9AF02850789EF38818F19F1DB0
:1006700098A8D908D8C89F129EF315A8DA1210D8E6
:10068000F1AFC8978734B5B994A421F3D922D8F231
:100690002DF3D92AD8F235F3D932D881A46060611C
:1006A000D961D86C6869D969D8747071D971D8B1B9
:1006B000A384193D5DA3831A3E5E9310308110110F
:1006C000B8B0AF8F94F2DA3ED8B49AA88729DAF896
:1006D000D8879A35DAF8D8879A3DDAF8D8B1B9A42C
:1006E0009885022E56A581000C14A397B08AF12D8F
:1006F000D928D84DD948D86DD968D8B1840DDA0E2B
:10070000D8A32983DA2C0ED8A3844983DA2C4C0E83
:10071000D8B8B0A88A9AF520AADADFD8A840AAD01B
:10072000DADED8A860AADAD0DFD8F19786A8319BA4
:10073000069907AB9728889BF00C201440B8B0B4FA
:10074000A88C9CF0042851791D301438B282ABD0AB
:10075000982C505078789BF11AB0F08A9CA82951B7
:10076000798B2951798A2470598B2058718A446970
:10077000388B3940688A6448318B304960A58820BD
:100780000971584468113964493019F1AC002C548E
:100790007CF08CA804285078F1889726A85998AC4A
:1007A0008C02264666F0899CA82951792470594408
:1007B0006938644831A98809205970AB11384069FB
:1007C000A8193148608CA83C415C207C00F18798D6
:1007D0001986A86E767EA999882D557D9EB9A38A23
:1007E000228A6E8A568A5E9FB183062646660E2E40
:1007F0004E6E9DB8AD002C547CF2B18CB499B9A367
:100800002D557D8191AC38AD3AB58391AC2DD92869
:10081000D84DD948D86DD968D88C9DAE29D904AEA9
:10082000D851D904AED879D904D881F39DAD008DC3
:10083000AE1981ADD901D8F2AEDA26D88E912983CE
:10084000A7D9ADADADADF32AD8D8F1B0AC89913E02
:100850005E76F3AC2E2EF1B18C5A9CAC2C28282855
:100860009CAC3018A8988128343C9724A728343CA5
:100870009C24F2B089AC912C4C6C8A9B2DD9D8D891
:1008800051D9D8D879D9D8D8F19E88A331DAD8D817
:10089000912DD928D84DD948D86DD968D8B183932E
:1008A000353D8025DAD8D88569DAD8D8B49381A3C4
:1008B00028343CF3AB8BF8A391B609B4D9ABDEFA7C
:1008C000B0879CB9A3DDF1A3A3A3A395F1A3A3A330
:1008D0009DF1A3A3A3A3F2A3B49080F2A3A3A3A327
:1008E000A3A3A3A3A3A3B2A3A3A3A3A3A3B087B5C6
:1008F00099F1A3A3A398F1A3A3A3A397A3A3A3A34D
:10090000F39BA3A3DCB9A7F1262626D8D8FF444D34
:100910005020496E697469616C697A6174696F6E9F
:10092000206661696C65642028636F646520004DF2
:1009300050553630353020636F6E6E656374696F65
:100940006E206661696C6564004D505536303530F7
:1009500020636F6E6E656374696F6E207375636379
:1009600065737366756C00496E697469616C697A48
:10097000696E6720444D502E2E2E0000000000248A
:100980000027002A0000000000250028002B00049A
:100990000404040404040402020202020203030326
:1009A0000303030102040810204080010204081020
:1009B00020010204081020000000080002010000CD
:1009C00003040700000000000000000009241124B7
:1009D0001FBECFEFD8E0DEBFCDBF11E0A0E0B1E099
:1009E000ECEAF5E502C005900D92A634B107D9F7FF
:1009F00024E0A6E4B1E001C01D92A630B207E1F701
:100A000014E0C7EED4E004C02197FE010E94B5288F
:100A1000C63ED107C9F70E941A120C94D42A0C942E
:100A20000000FC01538D448D252F30E0842F90E091
:100A3000821B930B541710F0CF96089501970895D9
:100A4000FC01918D828D981761F0828DDF01A80FD6
:100A5000B11D5D968C91928D9F5F9F73928F90E0F8
:100A600008958FEF9FEF0895FC01918D828D981767
:100A700031F0828DE80FF11D858D90E008958FEFA4
:100A80009FEF0895FC01918D228D892F90E0805C6D
:100A90009F4F821B91098F739927089580E093E0FF
:100AA0000E94420521E0892B09F420E0822F08955D
:100AB000FC01848DDF01A80FB11DA35ABF4F2C91FB
:100AC000848D90E001968F739927848FA689B789CA
:100AD0002C93A089B1898C9180648C93938D848DA3
:100AE000981306C00288F389E02D80818F7D808372
:100AF0000895EF92FF920F931F93CF93DF93EC0132
:100B000081E0888F9B8D8C8D981305C0E889F989C9
:100B1000808185FD24C0F62E0B8D10E00F5F1F4FE6
:100B20000F731127E02E8C8DE8120CC00FB607FC56
:100B3000FACFE889F989808185FFF5CFCE010E943F
:100B40005805F1CF8B8DFE01E80FF11DE35AFF4FE1
:100B5000F0820B8FEA89FB898081806207C0EE8971
:100B6000FF896083E889F98980818064808381E0DE
:100B700090E0DF91CF911F910F91FF90EF9008953A
:100B8000CF93DF93EC01888D8823C9F0EA89FB8934
:100B9000808185FD05C0A889B9898C9186FD0FC02B
:100BA0000FB607FCF5CF808185FFF2CFA889B98900
:100BB0008C9185FFEDCFCE010E945805E7CFDF91E4
:100BC000CF91089580E090E0892B29F00E944E0596
:100BD00081110C94000008953FB7F8948091B10200
:100BE0009091B202A091B302B091B40226B5A89B35
:100BF00005C02F3F19F00196A11DB11D3FBFBA2FAF
:100C0000A92F982F8827820F911DA11DB11DBC010E
:100C1000CD0142E0660F771F881F991F4A95D1F7D3
:100C2000089508958091460190E020914701821B2C
:100C300091090895FC0190819C3080F5818128E81C
:100C400030E0281B310987FD3395220F331F220F17
:100C5000331F621773077CF0828128E532E0281B7E
:100C6000310987FD3395220F331F220F331F62177F
:100C700073070CF49B0122503109220F331F4FB729
:100C8000F894892F90E0FC01EE0FFF1F8E0F9F1F3D
:100C9000FC01E859FD4F328321834FBF089585ED54
:100CA0008093BC008091BC0084FDFCCF1092DB02DD
:100CB000089540914102262F30E0240F311D21324A
:100CC0003105DCF42091DB022430C9F4FC0180E022
:100CD00090E0861758F4309141022191DC01A15E29
:100CE000BD4FA30FB11D2C930196F3CF809141020C
:100CF000680F6093410280E0089581E0089582E0EA
:100D000008950895E091470180914601E81730F475
:100D1000F0E0E457FD4F808190E008958FEF9FEF62
:100D200008959091470180914601981750F4E92F5A
:100D3000F0E0E457FD4F208130E09F5F9093470142
:100D400002C02FEF3FEFC9010895CF92DF92EF92DB
:100D5000FF920F931F93CF93DF937C01262F972F42
:100D60008A018091DC02882391F0C62FD72F6E0173
:100D7000C40ED51ECC15DD0571F06991D701ED913A
:100D8000FC910190F081E02DC7010995F3CF642F0C
:100D9000822F0E945906C801DF91CF911F910F91B8
:100DA000FF90EF90DF90CF900895CF93DF931F9245
:100DB000CDB7DEB769832091DC022223D1F02091E8
:100DC000FF02203240F021E030E0FC013383228337
:100DD00080E090E015C08091DD02E82FF0E0E25263
:100DE000FD4F998190838F5F8093DD028093FF0296
:100DF00005C061E0CE0101960E94590681E090E0B5
:100E00000F90DF91CF910895089580E090E00895CC
:100E100081E08093480108950E94B22A1F920F92A8
:100E20000FB60F9211242F933F934F935F936F93BD
:100E30007F938F939F93AF93BF93EF93FF9380E044
:100E400093E00E945805FF91EF91BF91AF919F9160
:100E50008F917F916F915F914F913F912F910F9063
:100E60000FBE0F901F9018951F920F920FB60F9202
:100E700011242F938F939F93EF93FF93E09110038F
:100E8000F09111038081E0911603F091170382FD28
:100E900012C09081809119038F5F8F7320911A0384
:100EA000821751F0E0911903F0E0E050FD4F958F6B
:100EB0008093190301C08081FF91EF919F918F91E1
:100EC0002F910F900FBE0F901F90189590E0FC018E
:100ED000E954F64F3491FC01ED55F64F2491FC0195
:100EE000E157F64FE491EE2309F43BC0332339F187
:100EF000333091F038F43130A9F0323001F584B557
:100F00008F7D12C0373091F03830A1F03430B9F411
:100F1000809180008F7D03C0809180008F778093C7
:100F200080000DC084B58F7784BD09C08091B0006A
:100F30008F7703C08091B0008F7D8093B000F0E088
:100F4000EE0FFF1FEB57F64FA591B4918FB7F894B2
:100F5000EC91611103C020952E2301C02E2B2C9300
:100F60008FBF0895CF93DF9390E0FC01ED55F64FCE
:100F70002491FC01E157F64F8491882361F190E0C0
:100F8000880F991FFC01E558F64FC591D491FC01DB
:100F9000EB57F64FA591B491611109C09FB7F89432
:100FA0008881209582238883EC912E230BC06230A8
:100FB00061F49FB7F8943881822F809583238883CA
:100FC000EC912E2B2C939FBF06C08FB7F894E8812D
:100FD0002E2B28838FBFDF91CF9108958F929F9200
:100FE000AF92BF92CF92DF92EF92FF926B017C01A2
:100FF0000E94EC054B015C01C114D104E104F10431
:10100000F1F00E94EC05DC01CB0188199909AA09CD
:10101000BB09883E9340A105B10570F321E0C21AD7
:10102000D108E108F10888EE880E83E0981EA11C23
:10103000B11CC114D104E104F10419F7DDCFFF9014
:10104000EF90DF90CF90BF90AF909F908F900895DA
:101050002FB7F8946091AD027091AE028091AF020B
:101060009091B0022FBF08951F920F920FB60F926A
:1010700011242F933F938F939F93AF93BF938091AE
:10108000AD029091AE02A091AF02B091B00230914A
:10109000AC0223E0230F2D3720F40196A11DB11DD2
:1010A00005C026E8230F0296A11DB11D2093AC02B6
:1010B0008093AD029093AE02A093AF02B093B002C2
:1010C0008091B1029091B202A091B302B091B402AA
:1010D0000196A11DB11D8093B1029093B202A0931D
:1010E000B302B093B402BF91AF919F918F913F91A2
:1010F0002F910F900FBE0F901F9018951F920F9277
:101100000FB60F9211242F933F934F935F936F93DA
:101110007F938F939F93AF93BF93EF93FF93E09150
:101120000201F09103010995FF91EF91BF91AF91F9
:101130009F918F917F916F915F914F913F912F91EF
:101140000F900FBE0F901F9018951F920F920FB621
:101150000F9211242F933F934F935F936F937F933D
:101160008F939F93AF93BF93EF93FF93E091000111
:10117000F09101010995FF91EF91BF91AF919F917E
:101180008F917F916F915F914F913F912F910F9030
:101190000FBE0F901F901895EF92FF920F931F9321
:1011A000CF93DF9300D0CDB7DEB7142F91E09093AB
:1011B000DC028093FE021092DD021092FF028DE9A4
:1011C00093E029833A830E94D5062981022FE22EDB
:1011D0003A81F32E8E2D801B811740F4F701619127
:1011E0007F018DE993E00E94D506F4CF0E94201084
:1011F00091E0811190E0892F0F900F90DF91CF91B6
:101200001F910F91FF90EF9008951F93CF93DF935D
:1012100000D0CDB7DEB75A83498391E09093DC02CA
:101220008093FE021092DD021092FF028DE993E09E
:101230000E94D50619816A818DE993E00E94D50646
:10124000612F8DE993E00E94D5060E94201091E065
:10125000811190E0892F0F900F90DF91CF911F9116
:101260000895CF93DF931F92CDB7DEB749839E01D8
:101270002F5F3F4F41E00E94CC080F90DF91CF914C
:1012800008952F923F924F925F926F927F928F922A
:101290009F92AF92BF92CF92DF92EF92FF920F9305
:1012A0001F93CF93DF93CDB7DEB727970FB6F89490
:1012B000DEBF0FBECDBFE82E6B834F8369010E9456
:1012C00028084B015C016E2C660CF12C1E827724E1
:1012D00073945F81452F50E05D834C831801412C4E
:1012E000512C4F81F41608F099C07092DC02E09204
:1012F000FE021092DD021092FF026B818DE993E0F5
:101300000E94D5060E9420107092DC02E092FE023C
:101310001092DD021092FF028091DB028111FCCF5E
:101320002C813D812F1931092132310514F020E241
:1013300030E0213208F020E27092DB027092DA0293
:101340008FEF8093D9021092D802820F8093D70238
:101350007092B6028091B60286298093B60280917F
:10136000B502813071F41092B5028091B60280937B
:10137000BB008091BC0083FDF8CF95EC9093BC003E
:1013800003C0E5EEE093BC008091DB028130E1F325
:101390008091D802821710F42091D802A7EBB2E016
:1013A000ECE8F2E08E2F4CE852E0841B821718F430
:1013B0008D918193F7CF1092470120934601909130
:1013C000460180914701981719F10115110599F40B
:1013D000A6012E81420F511D27FD5A955A8349833C
:1013E0008DE993E00E949106E981FA8180832E8144
:1013F0002F5F2E83E4CF0E942808DC01CB018819DF
:101400009909AA09BB0982159305A405B50500F33E
:101410008F81813208F080E2F80E63CFFE800115E3
:101420001105D9F00E942808DC01CB01881999091F
:10143000AA09BB0920E030E080179107A207B30793
:1014400060F05F81252F30E08F2D0F2C000C990B61
:101450008217930714F4FF24FA948F2D27960FB662
:10146000F894DEBF0FBECDBFDF91CF911F910F91DA
:10147000FF90EF90DF90CF90BF90AF909F908F90B4
:101480007F906F905F904F903F902F900895BF9204
:10149000CF92DF92EF92FF920F931F93CF93DF9340
:1014A0001F92CDB7DEB7F82EE62EC42EB22ED02E68
:1014B00008EE13E09E012F5F3F4F41E00E9441097B
:1014C000882321F1EC2DF0E0EB19F109319621E0B0
:1014D00030E002C0220F331FBA94E2F721503109E5
:1014E0000E2E01C0220F0A94EAF78D2D01C0880F3D
:1014F000EA95EAF7422F4095998149232823422B08
:1015000049836E2D8F2D0E94310901C080E00F901C
:10151000DF91CF911F910F91FF90EF90DF90CF90CF
:10152000BF900895CF92DF92EF92FF920F931F9397
:10153000CF93DF931F92CDB7DEB7F82EE62ED42ED1
:10154000C22E08EE13E09E012F5F3F4F41E00E9444
:1015500041099981CC2041F041E050E001C0440FA5
:10156000DA94EAF7492B09C021E030E0A90101C073
:10157000440FDA94EAF74095492349836E2D8F2D65
:101580000E9431090F90DF91CF911F910F91FF9031
:10159000EF90DF90CF9008951F93CF93DF93EC01EE
:1015A000162F88818C3008F04EC061E0812F0E9498
:1015B000B2078881E82FF0E09F01220F331FE20F6E
:1015C000F31FE859FD4F1F739081907C192B1083F6
:1015D00019821A826CE00E94A9289CE0899FB001C0
:1015E000112440E050E09A01260F371FF901EE0F59
:1015F000FF1F2E0F3F1FF901E859FD4F908196FD07
:1016000016C04F5F5F4F4C30510569F781110FC015
:101610001092800082E080938100109285001092E9
:101620008400B19A80916F00826080936F00E8819E
:10163000F0E0CF01880F991FE80FF91FE859FD4F1F
:101640008081806480838881DF91CF911F9108958C
:10165000FC01909167029C30A0F481E0890F809397
:1016600067029083892F90E0FC01EE0FFF1F8E0F21
:101670009F1FFC01E859FD4F88EB9BE0928381831B
:1016800008958FEF808308951F920F920FB60F92E7
:1016900011242F933F934F935F936F937F938F9377
:1016A0009F93AF93BF93EF93FF938091660287FF61
:1016B00005C010928500109284001BC02091660224
:1016C000022E000C330B8091670290E02817390737
:1016D00084F480916602082E000C990BFC01EE0F39
:1016E000FF1F8E0F9F1FFC01E859FD4F808186FD73
:1016F00015C0809166028F5F80936602209166021A
:10170000022E000C330B8091670290E028173907F6
:10171000C4F4809166028C3064F113C0809166023B
:10172000082E000C990BFC01EE0FFF1F8E0F9F1F60
:10173000FC01E859FD4F808160E08F730E946607CD
:10174000D8CF8091840090918500049680349C4984
:1017500018F480E49CE905C0809184009091850094
:10176000049690938900809388008FEF809366029F
:101770003BC0209184003091850080916602082E44
:10178000000C990BFC01EE0FFF1F8E0F9F1FFC0139
:10179000E859FD4F81819281820F931F90938900B8
:1017A0008093880080916602082E000C990BFC0142
:1017B000EE0FFF1F8E0F9F1FFC01E859FD4F808128
:1017C00086FF12C080916602082E000C990BFC0166
:1017D000EE0FFF1F8E0F9F1FFC01E859FD4F808108
:1017E00061E08F730E946607FF91EF91BF91AF9107
:1017F0009F918F917F916F915F914F913F912F9129
:101800000F900FBE0F901F9018951F920F920FB65A
:101810000F9211242F933F934F935F936F937F9376
:101820008F939F93AF93BF93EF93FF938091B900F2
:10183000887F803609F49CC068F5883209F45BC063
:1018400090F4803109F454C038F4882309F4F6C0C8
:10185000883009F44DC0F6C0883109F44CC080329C
:1018600009F45DC0EFC0803409F468C048F48033E7
:1018700009F455C0883309F0E5C08093D902D8C077
:10188000803509F44FC0883509F45DC0883409F00B
:10189000D9C0D6C0883909F4C7C0A8F4883709F47C
:1018A00067C038F4883609F463C0803709F460C033
:1018B000C9C0883809F4B8C0803909F45FC08038DD
:1018C00009F0C0C05BC0803B09F486C038F4803AA0
:1018D00009F466C0883A09F47FC0B4C0803C09F4BA
:1018E000A7C0883C09F4A4C0883B09F48AC0AAC0F8
:1018F0008091B60210C09091D8028091D7029817BB
:1019000070F5E091D80281E08E0F8093D802F0E06C
:10191000E954FD4F80818093BB0085EC86C08093A5
:10192000D9028EC0E091D80281E08E0F8093D80258
:101930008091BB00F0E0E954FD4F80839091D80284
:101940008091D7026EC0E091D80281E08E0F809323
:10195000D8028091BB00F0E0E954FD4F8083809174
:10196000DA0281116DC081E08093B50284EA61C022
:1019700083E08093DB0210926502CFCF80916502F5
:10198000803208F051C0E091650281E08E0F8093B3
:1019900065028091BB00F0E0EB5BFD4F8083BDCF23
:1019A00085EC8093BC001092DB028091650280324E
:1019B00030F4E0916502F0E0EB5BFD4F1082609146
:1019C000650270E0E0914302F091440285E492E008
:1019D00009951092650236C084E08093DB02109274
:1019E000420210924102E0913F02F09140020995BB
:1019F00080914102811105C081E0809341021092E3
:101A00001F02E091420281E08E0F80934202F0E0DB
:101A1000E15EFD4F80818093BB00909142028091F6
:101A20004102981708F479CF85E88093BC000AC07A
:101A300085EC8093BC001092DB0204C01092D902A6
:101A40000E944F06FF91EF91BF91AF919F918F91AF
:101A50007F916F915F914F913F912F910F900FBEAA
:101A60000F901F901895CF92DF92EF92FF926B012B
:101A70007C0120E030E0A9010E94D12487FD11C043
:101A800020E030E048EC52E4C701B6010E943D2856
:101A9000181654F4C12CD12C88ECE82E82E4F82ED0
:101AA00003C0C12CD12C7601C0924901D0924A01C9
:101AB000E0924B01F0924C01C701B6010E94E02771
:101AC0009B01AC01A9EBB2E00E94142624E630E0B1
:101AD00040E050E00E94F525CA01B90161597B4FF1
:101AE0008F4F9F4F85EB93E0FF90EF90DF90CF906B
:101AF0000C941A06CF92DF92EF92FF926B017C0159
:101B000020E030E0A9010E94D12487FD11C020E02F
:101B100030E048EC52E4C701B6010E943D28181697
:101B200054F4C12CD12C88ECE82E82E4F82E03C0AA
:101B3000C12CD12C7601C0924D01D0924E01E09281
:101B40004F01F0925001C701B6010E94E0279B01AE
:101B5000AC01A9EBB2E00E94142624E630E040E09C
:101B600050E00E94F525CA01B90161597B4F8F4FA2
:101B70009F4F88EB93E0FF90EF90DF90CF900C9415
:101B80001A06CF92DF92EF92FF926B017C0120E068
:101B900030E0A9010E94D12487FD11C020E030E08F
:101BA00048EC52E4C701B6010E943D28181654F4CF
:101BB000C12CD12C88ECE82E82E4F82E03C0C12C75
:101BC000D12C7601C0925101D0925201E092530182
:101BD000F0925401C701B6010E94E0279B01AC01BD
:101BE000A9EBB2E00E94142624E630E040E050E089
:101BF0000E94F525CA01B90161597B4F8F4F9F4F54
:101C00008BEB93E0FF90EF90DF90CF900C941A064F
:101C1000CF92DF92EF92FF926B017C0120E030E0E7
:101C2000A9010E943D28181624F460E084E00E9477
:101C3000660720E030E048EC52E4C701B6010E949C
:101C40003D2818166CF020E030E0A901C701B6016C
:101C50000E94D12487FF0AC0C12CD12C760106C076
:101C6000C12CD12C88ECE82E82E4F82EC0925501CC
:101C7000D0925601E0925701F0925801C701B60187
:101C80000E94E0279B01AC01A9EBB2E00E94142660
:101C900024E630E040E050E00E94F525CA01B90199
:101CA00061597B4F8F4F9F4F8EEB93E0FF90EF90EA
:101CB000DF90CF900C941A061092810160E070E0E2
:101CC000CB010E94080E60E070E0CB010E94C10DC4
:101CD00060E070E0CB010E947A0D60E070E0CB0123
:101CE0000C94330D10926D0110926E0110926F01E1
:101CF000109270011092690110926A0110926B01AA
:101D000010926C01109265011092660110926701A9
:101D1000109268018091790190917A01A0917B01E4
:101D2000B0917C018093610190936201A093630163
:101D3000B09364018091750190917601A091770133
:101D4000B091780180935D0190935E01A0935F0153
:101D5000B09360018091710190917201A091730123
:101D6000B09174018093590190935A01A0935B0143
:101D7000B0935C010E94280860937D0170937E01FE
:101D800080937F019093800181E08093810160E0E6
:101D900070E0CB010E94080E60E070E0CB010E9471
:101DA000C10D60E070E0CB010E947A0D60E070E050
:101DB000CB010C94330DFC01818108950F931F9387
:101DC000CF93DF9300D01F92CDB7DEB78C01FC011B
:101DD00080818B83C8010E94DB0E8A8341E050E042
:101DE000BE016D5F7F4F80E093E00E94660F41E08F
:101DF00050E0BE016E5F7F4F80E093E00E94660F6F
:101E0000F8018181898341E050E0BE016F5F7F4F1F
:101E100080E093E00E94660F80E093E00E94C0059E
:101E20000F900F900F90DF91CF911F910F91089518
:101E3000CF92DF92EF92FF920F931F93CF93DF9396
:101E4000CDB7DEB77C010DB71EB7DC011496CD907F
:101E5000DC901597B6016F5F7F4FEDB7FEB7E61BBD
:101E6000F70B0FB6F894FEBF0FBEEDBF319621E021
:101E700030E026173707B8F42C153D0558F4D70184
:101E80004D915C914115510529F0420F531FDA0124
:101E90009C9101C090E0AF01420F531FDA019C9367
:101EA0002F5F3F4FE6CF87E08083CF010E94DE0E99
:101EB0000FB6F8941EBF0FBE0DBFDF91CF911F91DB
:101EC0000F91FF90EF90DF90CF900895CF92DF9227
:101ED000EF92FF920F931F93CF93DF936C017A01E0
:101EE0008B01C0E0D0E0CE15DF0589F0D8016D91FF
:101EF0008D01D601ED91FC910190F081E02DC6019C
:101F00000995892B11F47E0102C02196ECCFC701FF
:101F1000DF91CF911F910F91FF90EF90DF90CF90C5
:101F20000895CF93DF93EC0188819981009711F098
:101F30000E945029198218821D821C821B821A82DB
:101F4000DF91CF9108950F931F93CF93DF93EC010F
:101F500088819981009729F02A813B8126173707CC
:101F600088F48B016F5F7F4F0E94E829009761F032
:101F7000998388831B830A832C813D81232B11F451
:101F8000FC01108281E001C080E0DF91CF911F91C0
:101F90000F9108958F929F92AF92BF92EF92FF920E
:101FA0000F931F93CF93DF937B018C01C0E0D0E0B0
:101FB000CE15DF05C9F10E942808609308037093CD
:101FC000090380930A0390930B03E0910003F091BF
:101FD00001030284F385E02D80E093E0099597FFEB
:101FE0001EC00E9428088090080390900903A090CA
:101FF0000A03B0900B03DC01CB0188199909AA09E7
:10200000BB098090040390900503A0900603B09054
:10201000070388159905AA05BB05B8F205C0F801A4
:1020200081938F012196C4CFCE01DF91CF911F9173
:102030000F91FF90EF90BF90AF909F908F90089579
:102040002091FF029091FE02213208F04AC0809157
:10205000DB028111FCCF32E03093DB0231E03093C0
:10206000DA023FEF3093D9021092D8022093D702C0
:10207000AEEDB2E047EB52E0FA013E2F341B3217CF
:1020800018F43D913193F9CF1092B6022091B60227
:10209000990F922B9093B6029091B502913061F412
:1020A0001092B5029091B6029093BB009091BC0043
:1020B00093FDF8CF95EC01C095EE9093BC00909104
:1020C000DB029230E1F39091D9029F3F79F0809149
:1020D000D902803241F08091D902803331F084E01E
:1020E00005C081E003C082E001C083E01092DD0200
:1020F0001092FF021092DC0208950F931F93CF936A
:10210000DF93CDEDD3E008EE13E02EED33E041E0B8
:102110006AE388810E9441098981DF91CF911F91F3
:102120000F91089521E042E06AE68091DD030C946E
:10213000920A482F6EE68091DD030C9431092F92AC
:102140003F924F925F926F927F928F929F92AF9247
:10215000BF92CF92DF92EF92FF920F931F93CF9394
:10216000DF933C015B01342ED22F202E4F716DE6A0
:102170008091DD030E9431098D2F0E94991080E12A
:1021800090E00E94BB286C01002339F080E190E0D0
:102190000E94BB28C82F492E02C0C0E0412CE12C70
:1021A000F12CEA14FB0408F06EC0C7014096A81693
:1021B000B90618F45A2C5E1802C080E1582E852DFD
:1021C00090E020E031E02D1B31092817390714F485
:1021D0005D2E5194F301EE0DFF1D222059F09C2F2E
:1021E000AC2FB42D8A2F891B851530F484918D93E3
:1021F0003196F8CFCE2F4F2E2C2F342D452D6FE654
:102200008091DD030E94CC08852C912CC114D1044F
:1022100029F1432D4F716DE68091DD030E94310954
:102220008D2F0E94991008EE13E09601452D6FE660
:102230008091DD030E944109A401B6018C2F942DE9
:102240000E94B72A892B51F0C6010E9450292220F2
:1022500021F18C2F942D0E9450291FC0E80CF91CED
:10226000D50DEA14FB0408F09CCFD11101C03394C2
:10227000432D4F716DE68091DD030E9431098D2F52
:102280000E9499108ECFC6010E945029222039F059
:102290008C2F942D0E94502902C080E001C081E063
:1022A000DF91CF911F910F91FF90EF90DF90CF9032
:1022B000BF90AF909F908F907F906F905F904F9066
:1022C0003F902F9008950F931F93662351F0462F50
:1022D0009C0108EE13E064E78091DD030E94410950
:1022E00002C0FC0110821F910F9108950F931F935C
:1022F000CF93DF93CDEDD3E008EE13E02EED33E086
:1023000042E062E788810E944109898190E0982F2C
:1023100088272A81822BDF91CF911F910F910895F9
:10232000EF92FF920F931F93CF93DF931F92CDB73E
:10233000DEB77A0189019E012F5F3F4F41E00E9485
:102340004109882339F029812E7730E0359527958A
:10235000F70120830F90DF91CF911F910F91FF9094
:10236000EF900895EF92FF920F931F93CF93DF9317
:10237000EC018B016115710551F0CB010E94C8245D
:102380007C01BC01CE010E94A30F811104C0CE01CB
:102390000E94910F07C0FD82EC82B801888199816B
:1023A0000E94C124CE01DF91CF911F910F91FF9028
:1023B000EF900895FC01808191810C945029EF9257
:1023C000FF920F931F93CF93DF93EC011982188232
:1023D0001B821A821D821C826115710521F18B01FD
:1023E000FB0101900020E9F731977F01E61AF70A17
:1023F000B7010E94A30F811109C0CE01DF91CF91D7
:102400001F910F91FF90EF900C94910FFD82EC8241
:10241000B80188819981DF91CF911F910F91FF9031
:10242000EF900C94CD2ADF91CF911F910F91FF90E7
:10243000EF900895CF93DF93CDB7DEB7C65DD10996
:102440000FB6F894DEBF0FBECDBF789484B582601E
:1024500084BD84B5816084BD85B5826085BD85B548
:10246000816085BD80916E00816080936E001092C6
:102470008100809181008260809381008091810041
:1024800081608093810080918000816080938000D2
:102490008091B10084608093B1008091B000816030
:1024A0008093B00080917A00846080937A0080915C
:1024B0007A00826080937A0080917A0081608093B4
:1024C0007A0080917A00806880937A001092C1002F
:1024D00068EE73E080E090E00E94EE07E091100368
:1024E000F091110382E08083E0910C03F0910D03E1
:1024F0001082E0910E03F0910F0380E1808310922F
:102500001803E0911403F091150386E08083E091B5
:102510001203F0911303808180618083E0911203A4
:10252000F0911303808188608083E0911203F09121
:102530001303808180688083E0911203F09113037C
:1025400080818F7D80831092040310920503109286
:102550000603109207036CE371E0CE0101960E941E
:10256000DF11CE0101960E94180FCE0101960E9444
:10257000DA1161E087E00E94B20761E087E00E9423
:10258000660766E070E08EEB93E00E94CC0A64E0A0
:1025900070E088EB93E00E94CC0A60E070E0CB0131
:1025A0000E94080E60E070E0CB010E94C10D60E067
:1025B00070E0CB010E947A0D60E070E0CB010E94D8
:1025C000330D68EE73E080E090E00E94EE070E9419
:1025D000280860931B0270931C0280931D02909345
:1025E0001E0210924701109246011092DD021092D5
:1025F000FF021092DB0281E08093DA021092B502B2
:1026000061E082E10E94660761E083E10E94660763
:102610008091B9008E7F8093B9008091B9008D7F41
:102620008093B90088E48093B80085E48093BC006F
:102630008CE08093B80001E023E042E06BE68091FB
:10264000DD030E94470A00E022E044E06BE1809154
:10265000DD030E94470A22E044E06CE18091DD0343
:102660000E94470A20E046E06BE68091DD030E946D
:10267000920A60E082E00E94B20728EE33E04EED5D
:1026800053E065E78091DD030E9490118091DE03A5
:10269000843319F06FE279E002C069E479E01A82CC
:1026A00019821C821B821E821D82CE0101960E940D
:1026B000B211CE0101960E94180FCE0101960E9420
:1026C000DA111A8219821C821B821E821D8267E621
:1026D00079E0CE0101960E94B211CE0101960E94CE
:1026E000180FCE0101960E94DA1121E047E06BE657
:1026F0008091DD030E94920A6EE170E080E090E03C
:102700000E94EE0720E046E06BE68091DD030E9428
:10271000920A40E76DE68091DD030E94310986E070
:102720000E94991040E06DE68091DD030E9431091E
:1027300028EE33E04EED53E060E08091DD030E942F
:1027400090118090DE0328EE33E04EED53E061E01F
:102750008091DD030E9490119090DE0328EE33E01B
:102760004EED53E062E08091DD030E949011A09055
:10277000DE034FE765E28091DD030E94310920E02E
:1027800045E06AE68091DD030E94920A48E665E230
:102790008091DD030E94310921E041E06AE68091E9
:1027A000DD030E94920A64E170E080E090E00E9404
:1027B000EE0701E020E040E069E877E085E891E09D
:1027C0000E949F10882309F4CDC288E090E00E9407
:1027D000BB28B82E192FE12CF12CF701EB53FF4F3A
:1027E0004491F701EA53FF4F2491670133E0C30E90
:1027F000D11CF701E953FF4FE491EE23D1F1EE2E06
:10280000F12CE330D8F0B7018B2D912FCA52DF4F56
:102810002883C65DD040CB52DF4F4883C55DD04092
:102820000E94E829B82E192FCB52DF4F4881C55D91
:10283000D040CA52DF4F2881C65DD040AB2DB12FAA
:1028400080E090E08E159F0548F4F601E80FF91F2F
:10285000EB53FF4FE491ED930196F4CF00E0B70105
:102860008B2D912F0E949F10EC0CFD1C811117C025
:1028700010C044E0E40EF11CF601EB53FF4FE4916D
:10288000E13039F442E368E38091DD030E943109CD
:1028900006C08B2D912F0E94502912E064C250EC8B
:1028A000E516F10408F499CF8B2D912F0E94502941
:1028B00003E023E042E06BE68091DD030E94470ADB
:1028C00042E168E38091DD030E94310944E069E15F
:1028D0008091DD030E94310901E023E045E06AE1D7
:1028E0008091DD030E94470A03E023E042E06AE1B1
:1028F0008091DD030E94470A22E044E06BE1809171
:10290000DD030E94470A43E060E78091DD030E94F7
:10291000310940E061E78091DD030E94310920E048
:1029200040E060E08091DD030E94920A082D26E0DD
:1029300046E060E08091DD030E94470A092D26E011
:1029400046E061E08091DD030E94470A0A2D26E0FF
:1029500046E062E08091DD030E94470AE12CF12C01
:10296000F701EA56FF4FE491A1E8B0E0AC0FBD1FBC
:10297000AE0DB11DEC9381E08E0D9FEFE91AF90ABF
:10298000A3E0AE1568F7CD57DF4F6881C358D0403C
:1029900070E09B012E5F3F4F90E02817390704F746
:1029A00000E0CE57DF4F2881C258D040CF57DF4FCD
:1029B0004881C158D04081E890E08C0F9D1F03965C
:1029C0000E949F1080E0F701EA56FF4FE491A1E8D2
:1029D000B0E0AC0FBD1FA80FB11DEC938F5FBFEF30
:1029E000EB1AFB0A843078F3CD57DF4F6881C35868
:1029F000D04070E0AB014E5F5F4F282F30E04217B0
:102A000053070CF700E0CE57DF4F2881C258D04063
:102A1000CF57DF4F4881C158D04081E890E08C0FFC
:102A20009D1F03960E949F100E9492100E94761193
:102A3000682FCE0101960E94631142E06FE1809100
:102A4000DD030E9431094CE961E28091DD030E94BF
:102A5000310940E560E28091DD030E94310940E0E8
:102A600062E28091DD030E9431090E94921021E010
:102A700046E06AE68091DD030E94920A21E047E089
:102A80006AE68091DD030E94920A21E043E06AE653
:102A90008091DD030E94920A80E0F701EA56FF4F21
:102AA000E491A1E8B0E0AC0FBD1FA80FB11DEC93FD
:102AB0008F5FEFEFEE1AFE0A843078F3CD57DF4FC9
:102AC0006881C358D04070E0AB014E5F5F4F282F44
:102AD00030E0421753070CF700E0CE57DF4F288154
:102AE000C258D040CF57DF4F4881C158D04081E80D
:102AF00090E08C0F9D1F03960E949F1080E0F701CD
:102B0000EA56FF4FE491A1E8B0E0AC0FBD1FA80F5B
:102B1000B11DEC938F5FFFEFEF1AFF0A843078F35B
:102B2000CD57DF4F6881C358D04070E0AB014E5F96
:102B30005F4F282F30E0421753070CF700E0CE57C5
:102B4000DF4F2881C258D040CF57DF4F4881C1584E
:102B5000D04081E890E08C0F9D1F03960E949F104B
:102B600080E0F701EA56FF4FE491A1E8B0E0AC0F36
:102B7000BD1FA80FB11DEC938F5F2FEFE21AF20A71
:102B8000843078F3CD57DF4F6881C358D04070E070
:102B9000AB014E5F5F4F282F30E0421753070CF711
:102BA00000E0CE57DF4F2881C258D040CF57DF4FCB
:102BB0004881C158D04081E890E08C0F9D1F03965A
:102BC0000E949F100E94761183309105D8F3682FE0
:102BD000CE0101960E94631180E0F701EA56FF4F93
:102BE000E491A1E8B0E0AC0FBD1FA80FB11DEC93BC
:102BF0008F5F3FEFE31AF30A843078F3CD57DF4F4E
:102C00003880C358D040832C912CA4014E5F5F4F75
:102C1000282F30E04217530704F7CE57DF4FB88014
:102C2000C258D040CF57DF4F2880C158D040422DE6
:102C30004F716DE68091DD030E9431098B2D0E945A
:102C40009910C12CD12C612C77247394A1E84A2EC1
:102C5000512C4C0E5D1E43E0440E511CC814D90487
:102C600098F5C60140968816990618F4A32CAC185E
:102C700002C0E0E1AE2E8A2D90E093012B193109BC
:102C80002817390714F4AB2CA19492012C0D3D1D8B
:102C900008EE13E04A2D6FE68091DD030E944109A2
:102CA000CA0CD11CBA0CC814D904C0F6B11001C0AA
:102CB0002394422D4F716DE68091DD030E9431090E
:102CC0008B2D0E949910CACF0E94761183309105F6
:102CD000D8F3682FCE0101960E946311F701EA56DE
:102CE000FF4F80E09491A1E8B0E0AC0FBD1FA80FAA
:102CF000B11D9C938F5F843010F43196F3CFCD5784
:102D0000DF4F6881C358D04070E0AB014E5F5F4F2A
:102D1000282F30E04217530784F700E0CE57DF4FEB
:102D20002881C258D040CF57DF4F4881C158D0408A
:102D300081E890E08C0F9D1F03960E949F1020E079
:102D400047E06AE68091DD030E94920A8AE290E001
:102D50009093E0038093DF030E9492100E947D1005
:102D600010E001C011E01093820141E55FEE66E0E2
:102D70008091DD030E94050942EF59EF68E08091E0
:102D8000DD030E94050948E757E06AE08091DD0312
:102D90000E94050941E55FEF63E18091DD030E9438
:102DA000050940EC5FEF65E18091DD030E940509B4
:102DB0004DEA5FEF67E18091DD030E940509111183
:102DC00023C021E047E06AE68091DD030E94920A79
:102DD00088E097E090930101809300018091690061
:102DE000836080936900E89A0E947D108093CF01F0
:102DF00081E08093D4018091DF039091E003909370
:102E0000D1018093D00125C01A8219821C821B82B5
:102E10001E821D826EE079E0CE0101960E94B21101
:102E2000CE0101960E94180FCE0101960E94DA1180
:102E30006091820170E06B5B7E4FCE0101960E9433
:102E4000DF11CE0101960E94180FCE0101960E945B
:102E5000DA118E010F5F1F4F69E0262E78E0372EC2
:102E60008091D401882329F12091D2013091D3019E
:102E70008091D0019091D10140914801411103C04E
:102E800028173907C8F3109248010E947D10F82EC8
:102E90008093CF010E9476119093D3018093D20149
:102EA000F4FC05C08115944011F00C9472210E942D
:102EB000921061E070E0CE0188569F4F0E94CA0FC9
:102EC000C856DF4F2881C859D0402223A1F0CA52EA
:102ED000DF4F2883C65DD0400E94280860931B0204
:102EE00070931C0280931D0290931E02CA52DF4F02
:102EF0002881C65DD04061E070E0CE0189569F4FC9
:102F0000CA52DF4F2883C65DD0400E94CA0FCA5202
:102F1000DF4F2881C65DD04021111BC061E070E009
:102F2000C8010E94CA0FC8010E94DB0EC956DF4FBC
:102F30009881C759D040891360C38981811103C02A
:102F40000E945C0E5AC3813009F057C30E94720E72
:102F500054C3213009F0C2C062E070E0C8010E9491
:102F6000CA0FC8010E94DB0EC956DF4F9881C759AE
:102F7000D040891342C360E084E00E94660720913C
:102F8000790130917A0140917B0150917C016091EF
:102F9000DD017091DE018091DF019091E0010E94DE
:102FA00090266093DD017093DE018093DF019093A2
:102FB000E0012091750130917601409177015091A7
:102FC00078016091D9017091DA018091DB019091D3
:102FD000DC010E9490266093D9017093DA018093FE
:102FE000DB019093DC0120917101309172014091DD
:102FF0007301509174016091D5017091D601809157
:10300000D7019091D8010E9490266093D5017093CA
:10301000D6018093D7019093D80110927901109234
:103020007A0110927B0110927C011092750110922E
:10303000760110927701109278011092710110922E
:103040007201109273011092740110926D0110922E
:103050006E0110926F01109270011092690110922E
:103060006A0110926B0110926C011092650110922E
:10307000660110926701109268011092610110922E
:103080006201109263011092640110925D0110922E
:103090005E0110925F01109260011092590110922E
:1030A0005A0110925B0110925C011092070210927B
:1030B00008021092090210920A0210920302109262
:1030C000040210920502109206021092FF01109263
:1030D000000210920102109202028FC2223009F007
:1030E0004DC065E070E0C8010E94CA0FC8010E948F
:1030F000DB0EC956DF4F9881C759D04089137DC276
:1031000081E0809381010E94720E698170E080E00D
:1031100090E00E94D6246093FB017093FC018093A1
:10312000FD019093FE016A8170E080E090E00E94D2
:10313000D62460931702709318028093190290931B
:103140001A026B8170E080E090E00E94D6246093C8
:103150000F0270931002809311029093120281E08B
:103160009C81911101C080E08093EA0181E09D8102
:10317000911101C080E08093E9013FC2233009F042
:1031800068C064E070E0C8010E94CA0FC8010E94D4
:10319000DB0EC956DF4F9881C759D04089132DC225
:1031A000109281010E945C0E1092E5011092E601DE
:1031B0001092E7011092E8011092FB011092FC01BD
:1031C0001092FD011092FE0110920F021092100257
:1031D000109211021092120210921702109218020D
:1031E0001092190210921A021092E4011092E30157
:1031F0001092E2011092E1016A8170E080E090E0BB
:103200000E94D6242B013C016B8170E080E090E0AD
:103210000E94D6244B015C016C8170E080E090E05C
:103220000E94D6246B017C01698170E080E090E00F
:103230000E94D6240E94080EC301B2010E94C10D53
:10324000C501B4010E947A0DC701B6010E94330D79
:10325000D4C1243009F0D1C16EE170E0C8010E94F0
:10326000CA0FC8010E94DB0EC956DF4F9881C759AB
:10327000D0408913C2C18981882339F0C12CD12C57
:1032800090E8E92E9FEBF92E06C0C12CD12C80E8E6
:10329000E82E8FE3F82E6C8170E0762F6627072EDC
:1032A000000C880B990B0E94D82420E030E543ECF9
:1032B00057E40E946E2720E030E0A9010E9490268A
:1032C0004B015C016D8170E080E090E00E94D824A9
:1032D00020E030E543EC57E40E946E279B01AC01EF
:1032E000C501B4010E9490269B01AC01C701B60143
:1032F0000E9437256093F7017093F8018093F901DC
:103300009093FA018E81882339F0C12CD12CA0E84A
:10331000EA2EAFEBFA2E06C0C12CD12CF0E8EF2E2E
:10332000FFE3FF2E698570E0762F6627072E000CDD
:10333000880B990B0E94D82420E030E543EC57E439
:103340000E946E2720E030E0A9010E9490264B01E8
:103350005C016A8570E080E090E00E94D82420E063
:1033600030E543EC57E40E946E279B01AC01C50198
:10337000B4010E9490269B01AC01C701B6010E94D6
:1033800037256093F3017093F4018093F5019093D6
:10339000F6018B85882339F0C12CD12C70E8E72EFB
:1033A0007FEBF72E06C0C12CD12C60E8E62E6FE330
:1033B000F62E6E8570E0762F6627072E000C880BA0
:1033C000990B0E94D82420E030E543EC57E40E949A
:1033D0006E2720E030E0A9010E9490264B015C019D
:1033E0006F8570E080E090E00E94D82420E030E516
:1033F00043EC57E40E946E279B01AC01C501B40168
:103400000E9490269B01AC01C701B6010E9437259E
:103410006093EF017093F0018093F1019093F201BA
:103420008889882339F0C12CD12C40E8E42E4FEB59
:10343000F42E06C0C12CD12C30E8E32E3FE3F32E4E
:103440006B8970E0762F6627072E000C880B990B8E
:103450000E94D82420E030E543EC57E40E946E2718
:1034600020E030E0A9010E9490264B015C016C89AC
:1034700070E080E090E00E94D82420E030E543EC4A
:1034800057E40E946E279B01AC01C501B4010E9464
:1034900090269B01AC01C701B6010E9437256093BD
:1034A0000C0170930D0180930E0190930F018D8993
:1034B000882339F0C12CD12C90E8E92E9FEBF92E0E
:1034C00006C0C12CD12C80E8E82E8FE3F82E688D41
:1034D00070E0762F6627072E000C880B990B0E9450
:1034E000D82420E030E543EC57E40E946E2720E02A
:1034F00030E0A9010E9490264B015C01698D70E0CB
:1035000080E090E00E94D82420E030E543EC57E4CE
:103510000E946E279B01AC01C501B4010E94902658
:103520009B01AC01C701B6010E94372560930801D9
:103530007093090180930A0190930B018A8D88236F
:1035400039F0C12CD12CA0E8EA2EAFEBFA2E06C040
:10355000C12CD12CF0E8EF2EFFE3FF2E6D8D70E033
:10356000762F6627072E000C880B990B0E94D82413
:1035700020E030E543EC57E40E946E2720E030E085
:10358000A9010E9490264B015C016E8D70E080E0E5
:1035900090E00E94D82420E030E543EC57E40E94FC
:1035A0006E279B01AC01C501B4010E9490269B01CE
:1035B000AC01C701B6010E943725609304017093E6
:1035C0000501809306019093070165E471E0CE0147
:1035D0008F569F4F0E94DF1164E471E0CE018F5738
:1035E0009F4F0E94DF11CE018F579F4F0E94DA112B
:1035F000CE018F569F4F0E94DA110E942808C0907A
:10360000EB01D090EC01E090ED01F090EE01A8EC20
:10361000CA0ED11CE11CF11C6C157D058E059F05A1
:1036200008F476C00E9428086093EB017093EC01C7
:103630008093ED019093EE01F80125E011922A9517
:10364000E9F72982609155017091560180915701E7
:10365000909158010E94E7276A836091510170910F
:10366000520180915301909154010E94E7276B838E
:1036700060914D0170914E0180914F0190915001E8
:103680000E94E7276C836091490170914A01809103
:103690004B0190914C010E94E7276D83CF57DF4F7C
:1036A0003882C158D0406091790170917A0180913F
:1036B0007B0190917C010E94E727CE57DF4F688302
:1036C000C258D04060917501709176018091770168
:1036D000909178010E94E727CD57DF4F6883C35848
:1036E000D04060917101709172018091730190914D
:1036F00074010E94E727CC57DF4F6883C458D0403D
:10370000C8010E94DE0ECE018F579F4F0E94DE0E31
:103710000E942808C0901B02D0901C02E0901D025D
:10372000F0901E02DC01CB018C199D09AE09BF0986
:10373000893C9105A105B10510F00E945C0E8091B5
:103740008101882309F4C5C56091170270911802A0
:103750008091190290911A020E94E0279B01AC010E
:103760002C593F4F4F4F5F4FA2EFBFEF0E942226D1
:1037700028EC30E040E050E00E94F525CA01B90194
:10378000695F7F4F8F4F9F4F0E94D8244B015C0190
:1037900060931302709314028093150290931602A3
:1037A00060910F02709110028091110290911202AB
:1037B0000E94E0279B01AC012C593F4F4F4F5F4FB8
:1037C000AEE0B0E00E94142628EC30E040E050E08B
:1037D0000E94F525CA01B901675071098109910953
:1037E0000E94D8246B017C0160930B0270930C0241
:1037F00080930D0290930E020E94280840907D0154
:1038000050907E0160907F0170908001641975096D
:10381000860997090E94D624C754DF4F68837983AD
:103820008A839B83C95BD0408091790190917A0112
:10383000A0917B01B0917C01C756DF4F88839983AB
:10384000AA83BB83C959D04020917501309176017C
:103850004091770150917801C354DF4F2883398319
:103860004A835B83CD5BD040A5019401C354DF4FF5
:10387000688179818A819B81CD5BD0400E948F26AF
:10388000C355DF4F688379838A839B83CD5AD040A9
:103890008091710190917201A0917301B0917401B6
:1038A000CF53DF4F88839983AA83BB83C15CD04009
:1038B000A7019601BC01CD010E948F26CF54DF4F96
:1038C000688379838A839B83C15BD04020E030E0AA
:1038D000A901C756DF4F688179818A819B81C959C7
:1038E000D0400E943D28181694F0C756DF4F28811B
:1038F00039814A815B81C959D0405058CF55DF4F3B
:10390000288339834A835B83C15AD04010C0C7568D
:10391000DF4F88819981AA81BB81C959D040CF5599
:10392000DF4F88839983AA83BB83C15AD04020E0AC
:1039300030E0A901C355DF4F688179818A819B817D
:10394000CD5AD0400E943D28181694F0C355DF4F41
:10395000288139814A815B81CD5AD0405058CB555E
:10396000DF4F288339834A835B83C55AD04010C018
:10397000C355DF4F88819981AA81BB81CD5AD04040
:10398000CB55DF4F88839983AA83BB83C55AD04028
:1039900020E030E0A901CF54DF4F688179818A812E
:1039A0009B81C15BD0400E943D28181694F0CF54F3
:1039B000DF4F288139814A815B81C15BD0405058FB
:1039C000C755DF4F288339834A835B83C95AD04068
:1039D00010C0CF54DF4F88819981AA81BB81C15B20
:1039E000D040C755DF4F88839983AA83BB83C95AC8
:1039F000D040209107023091080240910902509175
:103A00000A02C756DF4F688179818A819B81C95933
:103A1000D0400E948F264B015C012091030230911F
:103A200004024091050250910602C354DF4F6881A1
:103A300079818A819B81CD5BD0400E948F266B016A
:103A40007C012091FF0130910002409101025091D0
:103A50000202CF53DF4F688179818A819B81C15CEB
:103A6000D0400E948F262601370177FA709477F8AC
:103A700070949B01AC015058CF52DF4F288339839B
:103A80004A835B83C15DD0402AE939E949E95EE3B5
:103A9000CF55DF4F688179818A819B81C15AD0409F
:103AA0000E94D12487FF08C010926D0110926E0110
:103AB00010926F01109270018091FB019091FC01B6
:103AC000A091FD01B091FE01C356DF4F8883998319
:103AD000AA83BB83CD59D04020E030E0A901BC01CE
:103AE000CD010E94D124882309F12AE939E949E965
:103AF0005EE3CB55DF4F688179818A819B81C55A0E
:103B0000D0400E94D12487FD11C02AE939E949E952
:103B10005EE3C755DF4F688179818A819B81C95AED
:103B2000D0400E94D12487FD18C01FC010926901A7
:103B300010926A0110926B0110926C0120E030E04B
:103B4000A901C356DF4F688179818A819B81CD5954
:103B5000D0400E94D1248111D8CF109265011092DB
:103B60006601109267011092680120916D013091F9
:103B70006E0140916F0150917001CB53DF4F28834C
:103B800039834A835B83C55CD0402091F701309133
:103B9000F8014091F9015091FA01CF55DF4F68814A
:103BA00079818A819B81C15AD0400E94372520E0CB
:103BB00030E048EC52E40E946E276B017C012091BA
:103BC000F3013091F4014091F5015091F601CB538E
:103BD000DF4F688179818A819B81C55CD0400E94DA
:103BE000372520E030E04AE754E40E946E279B012D
:103BF000AC01C701B6010E9490266B017C012091A7
:103C0000EF013091F0014091F1015091F201C501B5
:103C1000B4010E943725C754DF4F288139814A817A
:103C20005B81C95BD0400E946E279B01AC01C7013C
:103C3000B6010E948F26CB54DF4F688379838A8335
:103C40009B83C55BD0408091690190916A01A091EE
:103C50006B01B0916C01C753DF4F88839983AA83AE
:103C6000BB83C95CD04020910C0130910D01409183
:103C70000E0150910F01CB55DF4F688179818A8108
:103C80009B81C55AD0400E94372520E030E048ECA7
:103C900052E40E946E276B017C0120910801309153
:103CA000090140910A0150910B01C753DF4F688110
:103CB00079818A819B81C95CD0400E94372520E0B0
:103CC00030E04AE754E40E946E279B01AC01C70133
:103CD000B6010E9490266B017C0120910401309175
:103CE00005014091060150910701C301B2010E94F4
:103CF0003725C754DF4F288139814A815B81C95BF1
:103D0000D0400E946E279B01AC01C701B6010E9402
:103D10008F262B013C012091650130916601409175
:103D2000670150916801C353DF4F288339834A8369
:103D30005B83CD5CD0402091B1033091B2034091C0
:103D4000B3035091B403C755DF4F688179818A81ED
:103D50009B81C95AD0400E94372520E030E048ECD2
:103D600052E40E946E276B017C012091AD033091DB
:103D7000AE034091AF035091B003C353DF4F68814E
:103D800079818A819B81CD5CD0400E94372520E0DB
:103D900030E04AE754E40E946E279B01AC01C70162
:103DA000B6010E9490266B017C012091A9033091FD
:103DB000AA034091AB035091AC03CF52DF4F68810F
:103DC00079818A819B81C15DD0400E943725C7548B
:103DD000DF4F288139814A815B81C95BD0400E94D5
:103DE0006E279B01AC01C701B6010E948F264B01D3
:103DF0005C0120E030E040E751E4C301B2010E94E1
:103E00003D2820E030E040E751E418160CF4F3C4FC
:103E1000C501B4010E943D2820E030E040E751ECAC
:103E20001816ECF0C301B2010E94D12487FF06C02E
:103E3000412C512C50E7652E51EC752E20E030E0DE
:103E400040E751ECC501B4010E94D12487FF19C09D
:103E5000812C912C40E7A42E41ECB42E12C0C3015A
:103E6000B2010E94D12487FF06C0412C512C30E7BB
:103E7000632E31EC732E812C912C20E7A22E21E4AD
:103E8000B22E0E94280860937D0170937E0180937A
:103E90007F0190938001CF55DF4F88819981AA815E
:103EA000BB81C15AD0408093610190936201A0937D
:103EB0006301B0936401CB55DF4F288139814A817A
:103EC0005B81C55AD04020935D0130935E014093E1
:103ED0005F0150936001C755DF4F88819981AA81A6
:103EE000BB81C95AD0408093590190935A01A09345
:103EF0005B01B0935C01C756DF4F288139814A814D
:103F00005B81C959D0402093070230930802409347
:103F1000090250930A02C354DF4F88819981AA8114
:103F2000BB81CD5BD0408093030290930402A093A9
:103F30000502B0930602CF53DF4F288139814A81B1
:103F40005B81C15CD0402093FF013093000240931D
:103F5000010250930202CF55DF4F288139814A81F7
:103F60005B81C15AD040CB53DF4F688179818A8110
:103F70009B81C55CD0400E94902660936D01709338
:103F80006E0180936F0190937001CB55DF4F2881B4
:103F900039814A815B81C55AD040C753DF4F688160
:103FA00079818A819B81C95CD0400E949026609370
:103FB000690170936A0180936B0190936C01C755FE
:103FC000DF4F288139814A815B81C95AD040C35370
:103FD000DF4F688179818A819B81CD5CD0400E94CE
:103FE00090266093650170936601809367019093BA
:103FF000680120E030E0A901C756DF4F6881798170
:104000008A819B81C959D0400E94D124CB54DF4F73
:10401000288139814A815B81C55BD04087FF1FC001
:10402000C356DF4F688179818A819B81CD59D04009
:104030000E948F266B017C01CB54DF4F2881398190
:104040004A815B81C55BD040C356DF4F688179816F
:104050008A819B81CD59D0400E9490261EC0C356B4
:10406000DF4F688179818A819B81CD59D0400E9440
:1040700090266B017C01CB54DF4F288139814A8126
:104080005B81C55BD040C356DF4F688179818A81EF
:104090009B81CD59D0400E948F26C756DF4F688341
:1040A00079838A839B83C959D04020E030E0A901FD
:1040B000C355DF4F688179818A819B81CD5AD04079
:1040C0000E94D124A301920187FD35C0C701B6012A
:1040D0000E948F26C356DF4F688379838A839B8330
:1040E000CD59D040A3019201C756DF4F6881798135
:1040F0008A819B81C959D0400E948F26CF55DF4FBE
:10410000688379838A839B83C15AD040A30192013B
:10411000C701B6010E9490266B017C01A3019201A8
:10412000C756DF4F688179818A819B81C959D04008
:104130000E94902634C0C701B6010E949026C35643
:10414000DF4F688379838A839B83CD59D040A30155
:104150009201C756DF4F688179818A819B81C95955
:10416000D0400E949026CF55DF4F688379838A83A1
:104170009B83C15AD040A3019201C701B6010E949E
:104180008F266B017C01A3019201C756DF4F688126
:1041900079818A819B81C959D0400E948F262B0149
:1041A0003C0120E030E0A901CF54DF4F68817981E4
:1041B0008A819B81C15BD0400E94D124A5019401DA
:1041C00087FF35C0C356DF4F688179818A819B8123
:1041D000CD59D0400E948F26C756DF4F6883798320
:1041E0008A839B83C959D040A5019401CF55DF4FE5
:1041F000688179818A819B81C15AD0400E94902632
:10420000C356DF4F688379838A839B83CD59D0401F
:10421000A5019401C701B6010E9490266B017C01A3
:10422000A5019401C301B2010E948F2634C0C35678
:10423000DF4F688179818A819B81CD59D0400E946E
:104240009026C756DF4F688379838A839B83C95939
:10425000D040A5019401CF55DF4F688179818A81D3
:104260009B81C15AD0400E948F26C356DF4F68837E
:1042700079838A839B83CD59D040A5019401C701DE
:10428000B6010E948F266B017C01A5019401C30138
:10429000B2010E9490264B015C01C756DF4F688136
:1042A00079818A819B81C959D0400E94080EC356EA
:1042B000DF4F688179818A819B81CD59D0400E94EE
:1042C000C10DC701B6010E947A0DC501B4010E945B
:1042D000330D60E070E0CB010E94EE070E94E20522
:1042E0000C943017F1FC02C00C945917E090D201E5
:1042F000F090D301C090D001D090D101EC14FD0416
:1043000038F40E9476119093D3018093D201EECFBE
:104310006C2D8FE891E00E946311EC18FD08F0927B
:10432000D301E092D201A0909301B12CBA2CAA241F
:1043300080919401A82AC0909701D12CDC2CCC2428
:1043400080919801C82AE0909B01F12CFE2CEE246C
:1043500080919C01E82A60918F0170E0762F66279A
:1043600080919001682B072E000C880B990B0E94FE
:10437000D82420E030E040E858E30E9437252B01A4
:104380003C016093CD037093CE038093CF03909351
:10439000D003B501BB0C880B990B0E94D82420E0F8
:1043A00030E040E858E30E9437254B015C01609300
:1043B000D1037093D2038093D3039093D403B601B7
:1043C000DD0C880B990B0E94D82420E030E040E8F7
:1043D00058E30E943725C756DF4F688379838A8365
:1043E0009B83C959D0406093D5037093D6038093C3
:1043F000D7039093D803B701FF0C880B990B0E9449
:10440000D82420E030E040E858E30E943725C35626
:10441000DF4F688379838A839B83CD59D040609333
:10442000D9037093DA038093DB039093DC039B0141
:10443000AC01C501B4010E9437256B017C01C75650
:10444000DF4F288139814A815B81C959D040C3013E
:10445000B2010E9437259B01AC01C701B6010E9441
:104460008F269B01AC010E949026CF55DF4F6883B9
:1044700079838A839B83C15AD0406093C103709330
:10448000C2038093C3039093C403A5019401C301A5
:10449000B2010E9437256B017C01C356DF4F288192
:1044A00039814A815B81CD59D040C756DF4F688141
:1044B00079818A819B81C959D0400E9437259B010F
:1044C000AC01C701B6010E9490269B01AC010E947D
:1044D0009026CB55DF4F688379838A839B83C55AA7
:1044E000D0406093C5037093C6038093C703909335
:1044F000C803A3019201C301B2010E9437256B01D9
:104500007C01A5019401C501B4010E9437259B01DE
:10451000AC01C701B6010E948F266B017C01C75612
:10452000DF4F288139814A815B81C959D040CA0156
:10453000B9010E9437259B01AC01C701B6010E9459
:104540008F266B017C01C356DF4F288139814A8158
:104550005B81CD59D040CA01B9010E9437259B012A
:10456000AC01C701B6010E9490266B017C016093EB
:10457000C9037093CA038093CB039093CC03A30128
:104580009201C301B2010E949026C755DF4F688394
:1045900079838A839B83C95AD040A5019401C501C0
:1045A000B4010E949026C355DF4F688379838A83C4
:1045B0009B83CD5AD040A3019201C755DF4F68813C
:1045C00079818A819B81C95AD0400E9437252B016D
:1045D0003C01A5019401C355DF4F688179818A812F
:1045E0009B81CD5AD0400E9437259B01AC01C3016D
:1045F000B2010E94902620E030E040E85FE30E9494
:104600008F262B013C01C756DF4F288139814A8113
:104610005B81C959D040C355DF4F688179818A8158
:104620009B81CD5AD0400E9437254B015C01C35677
:10463000DF4F288139814A815B81CD59D040C755F0
:10464000DF4F688179818A819B81C95AD0400E945D
:1046500037259B01AC01C501B4010E948F26A3013F
:1046600092010E940F274B015C01609383017093BC
:1046700084018093850190938601A7019601C7016B
:10468000B6010E9437252B013C01CB55DF4F288115
:1046900039814A815B81C55AD040CA01B9010E9463
:1046A0003725A30192010E9490260E9450289B0169
:1046B000AC01CF55DF4F688179818A819B81C15AD6
:1046C000D0400E946E270E943F276B017C016093BF
:1046D0008701709388018093890190938A01CF5557
:1046E000DF4F288139814A815B81C15AD040CA019C
:1046F000B9010E943725A30192010E9490260E94D1
:1047000050289B01AC01CB55DF4F688179818A81AC
:104710009B81C55AD0400E946E270E943F272B01E3
:104720003C0160938B0170938C0180938D01909379
:104730008E0120E030E044E353E4C501B4010E945F
:1047400037252BED3FE049E450E40E946E2720918D
:10475000DD013091DE014091DF015091E0010E94C6
:104760008F266093790170937A0180937B019093F7
:104770007C0120E030E044E353E4C701B6010E942D
:1047800037252BED3FE049E450E40E946E2720914D
:10479000D9013091DA014091DB015091DC010E9496
:1047A0008F266093750170937601809377019093C3
:1047B000780120E030E044E353E4C301B2010E94F9
:1047C00037252BED3FE049E450E40E946E2720910D
:1047D000D5013091D6014091D7015091D8010E9466
:1047E0008F2660937101709372018093730190938F
:1047F00074010C945917C501B4010E943D28412C45
:10480000512C90E7692E91E4792E18160CF433CBD5
:1048100015CBE0E0F3E01382128288EE93E0A0E093
:10482000B0E084839583A683B7832CE131E03183A4
:10483000208325EC30E03587248724EC30E037876F
:10484000268720EC30E0318B208B21EC30E0338B5D
:10485000228B22EC30E0358B248B26EC30E0378B3A
:10486000268B118E128E138E148EEDE9F3E01382D7
:10487000128284839583A683B7838EE291E091832D
:10488000808388E68093DD03EDECF3E080E090E048
:10489000A0E8BFE380839183A283B383148215824F
:1048A0001682178210861186128613861486158644
:1048B00016861786ECEFF3E01182108213821282C3
:1048C00015821482E6EFF3E01182108213821282C5
:1048D00015821482E0EFF3E01182108213821282BB
:1048E00015821482E1ECF3E01082118212821382AD
:1048F00014821582168217821086118612861386FC
:104900008EEB93E00E94280B8BEB93E00E94280B28
:1049100088EB93E00E94280B85EB93E00E94280B24
:1049200080910C0190910D01A0910E01B0910F01A9
:104930008093B1039093B203A093B303B093B403F5
:104940008091080190910901A0910A01B0910B0199
:104950008093AD039093AE03A093AF03B093B003E5
:104960008091040190910501A0910601B091070189
:104970008093A9039093AA03A093AB03B093AC03D5
:104980000895FB01DC0105900D920020E1F70895E8
:10499000FC0105900020E9F7809590958E0F9F1FF0
:1049A00008950E94132508F481E00895E89409C051
:1049B00097FB3EF490958095709561957F4F8F4F52
:1049C0009F4F9923A9F0F92F96E9BB279395F69568
:1049D000879577956795B795F111F8CFFAF4BB0FE6
:1049E00011F460FF1BC06F5F7F4F8F4F9F4F16C04A
:1049F000882311F096E911C0772321F09EE8872FD4
:104A0000762F05C0662371F096E8862F70E060E08F
:104A10002AF09A95660F771F881FDAF7880F969508
:104A2000879597F90895990F0008550FAA0BE0E8AC
:104A3000FEEF16161706E807F907C0F01216130660
:104A4000E407F50798F0621B730B840B950B39F4A0
:104A50000A2661F0232B242B252B21F408950A2606
:104A600009F4A140A6958FEF811D811D08950E9434
:104A70004A250C94BB250E94AD2538F00E94B42530
:104A800020F0952311F00C94A4250C94AA25112450
:104A90000C94EF250E94CC2570F3959FC1F3950FE0
:104AA00050E0551F629FF001729FBB27F00DB11DB2
:104AB000639FAA27F00DB11DAA1F649F6627B00D42
:104AC000A11D661F829F2227B00DA11D621F739F2B
:104AD000B00DA11D621F839FA00D611D221F749F39
:104AE0003327A00D611D231F849F600D211D822F80
:104AF000762F6A2F11249F5750409AF0F1F08823A7
:104B00004AF0EE0FFF1FBB1F661F771F881F9150D3
:104B10005040A9F79E3F510580F00C94A4250C94B9
:104B2000EF255F3FE4F3983ED4F38695779567953C
:104B3000B795F795E7959F5FC1F7FE2B880F911DFD
:104B40009695879597F9089597F99F6780E870E0A3
:104B500060E008959FEF80EC089500240A941616F3
:104B6000170618060906089500240A94121613065B
:104B7000140605060895092E0394000C11F48823E9
:104B800052F0BB0F40F4BF2B11F460FF04C06F5F05
:104B90007F4F8F4F9F4F089557FD9058440F551FDB
:104BA00059F05F3F71F04795880F97FB991F61F0AF
:104BB0009F3F79F087950895121613061406551F26
:104BC000F2CF4695F1DF08C0161617061806991F92
:104BD000F1CF86957105610508940895E894BB2787
:104BE00066277727CB0197F90895052E97FB1EF4CA
:104BF00000940E940C2657FD07D00E945E2607FCF9
:104C000003D04EF40C940C26509540953095219588
:104C10003F4F4F4F5F4F08959095809570956195E8
:104C20007F4F8F4F9F4F08950E948026A59F900D24
:104C3000B49F900DA49F800D911D11240895B7FF7E
:104C40000C9414260E941426821B930B08952F9215
:104C50003F924F925F926F927F928F929F92AF920C
:104C6000BF92CF92DF92EF92FF920F931F93CF9359
:104C7000DF93CDB7DEB7CA1BDB0B0FB6F894DEBFF0
:104C80000FBECDBF09942A88398848885F846E8416
:104C90007D848C849B84AA84B984C884DF80EE8060
:104CA000FD800C811B81AA81B981CE0FD11D0FB669
:104CB000F894DEBF0FBECDBFED010895A1E21A2E1C
:104CC000AA1BBB1BFD010DC0AA1FBB1FEE1FFF1FB0
:104CD000A217B307E407F50720F0A21BB30BE40B00
:104CE000F50B661F771F881F991F1A9469F7609547
:104CF0007095809590959B01AC01BD01CF01089501
:104D0000A29FB001B39FC001A39F700D811D11240C
:104D1000911DB29F700D811D1124911D0895505851
:104D2000BB27AA270E94A7260C94BB250E94AD256D
:104D300038F00E94B42520F039F49F3F19F426F48E
:104D40000C94AA250EF4E095E7FB0C94A425E92F1A
:104D50000E94CC2558F3BA1762077307840795079A
:104D600020F079F4A6F50C94EE250EF4E0950B2EC8
:104D7000BA2FA02D0B01B90190010C01CA01A001AD
:104D80001124FF27591B99F0593F50F4503E68F108
:104D90001A16F040A22F232F342F4427585FF3CF49
:104DA000469537952795A795F0405395C9F77EF41A
:104DB0001F16BA0B620B730B840BBAF09150A1F063
:104DC000FF0FBB1F661F771F881FC2F70EC0BA0FE9
:104DD000621F731F841F48F4879577956795B79571
:104DE000F7959E3F08F0B0CF9395880F08F099276C
:104DF000EE0F9795879508950E94AD2560F080E8A5
:104E000091E009F49EEF0E94B42528F040E851E0BB
:104E100071F45EEF0CC00C94AA250C94EE25E92FDA
:104E2000E0780E94CC2540F3092E052AB1F326171D
:104E300037074807590738F00E2E07F8E02569F0C4
:104E4000E025E0640AC0EF6307F8009407FADB018D
:104E5000B9019D01DC01CA01AD01EF930E948527D4
:104E60000E94BB250E943F275F91552339F02BED0F
:104E70003FE049E450FD49EC0C9490260895DF93FF
:104E8000DD27B92FBF7740E85FE3161617064807FE
:104E90005B0718F4D92F0E9442289F938F937F932A
:104EA0006F930E949028E8E6F0E00E9416280E9486
:104EB000BB252F913F914F915F910E944A25DD23A1
:104EC00051F09058A2EA2AED3FE049EC5FE3D07838
:104ED0005D270E94A726DF910C94BB250E948227A4
:104EE0000C94BB250E94B42558F00E94AD2540F0DB
:104EF00029F45F3F29F00C94A42551110C94EF255F
:104F00000C94AA250E94CC2568F39923B1F355236C
:104F100091F3951B550BBB27AA27621773078407CC
:104F200038F09F5F5F4F220F331F441FAA1FA9F362
:104F300035D00E2E3AF0E0E832D091505040E69550
:104F4000001CCAF72BD0FE2F29D0660F771F881FB1
:104F5000BB1F261737074807AB07B0E809F0BB0BA4
:104F6000802DBF01FF2793585F4F3AF09E3F5105B8
:104F700078F00C94A4250C94EF255F3FE4F3983E61
:104F8000D4F3869577956795B795F7959F5FC9F7A1
:104F9000880F911D9695879597F90895E1E0660F22
:104FA000771F881FBB1F621773078407BA0720F09B
:104FB000621B730B840BBA0BEE1F88F7E095089504
:104FC0000E94E7276894B1110C94EF2508950E9480
:104FD000D42588F09F5798F0B92F9927B751B0F092
:104FE000E1F0660F771F881F991F1AF0BA95C9F76D
:104FF00014C0B13091F00E94EE25B1E008950C94F8
:10500000EE25672F782F8827B85F39F0B93FCCF3AA
:10501000869577956795B395D9F73EF490958095E9
:10502000709561957F4F8F4F9F4F0895DF93CF937A
:105030001F930F93FF92EF92DF927B018C01689494
:1050400006C0DA2EEF010E944A25FE01E894A591E0
:105050002591359145915591A6F3EF010E94A72620
:10506000FE019701A801DA9469F7DF90EF90FF90B5
:105070000F911F91CF91DF9108950E94132508F49D
:105080008FEF08959B01AC0160E070E080E89FE342
:105090000C946E2719F416F40C94AA250C949428F9
:1050A0000E94D425B8F39923C9F3B6F39F57550B43
:1050B00087FF0E94A2280024A0E640EA90018058C1
:1050C0005695979528F4805C660F771F881F20F00F
:1050D00026173707480730F4621B730B840B20290F
:1050E00031294A2BA69517940794202531254A2764
:1050F00058F7660F771F881F20F0261737074807D5
:1051000030F4620B730B840B200D311D411DA095F3
:1051100081F7B901842F9158880F96958795089546
:105120009B01AC010C9437259F3F31F0915020F446
:10513000879577956795B795880F911D9695879573
:1051400097F9089591505040660F771F881FD2F746
:105150000895991B79E004C0991F961708F0961BD3
:10516000881F7A95C9F780950895EE0FFF1F059067
:10517000F491E02D0994CF93DF938230910510F4E0
:1051800082E090E0E0910404F091050420E030E03A
:10519000C0E0D0E0309711F14081518148175907A4
:1051A000C0F04817590761F482819381209719F064
:1051B0009B838A832BC0909305048093040426C0AC
:1051C0002115310519F04217530718F49A01BE0151
:1051D000DF01EF010280F381E02DDCCF21153105E5
:1051E00009F1281B390B2430310590F412968D916A
:1051F0009C9113976115710521F0FB0193838283C4
:1052000004C09093050480930404FD01329644C0C9
:10521000FD01E20FF31F81939193225031092D93E9
:105220003C933AC02091020430910304232B41F4B3
:105230002091120130911301309303042093020452
:1052400020911001309111012115310541F42DB744
:105250003EB74091140150911501241B350BE0918C
:105260000204F0910304E217F307A0F42E1B3F0B96
:105270002817390778F0AC014E5F5F4F24173507C8
:1052800048F04E0F5F1F5093030440930204819334
:10529000919302C0E0E0F0E0CF01DF91CF9108955B
:1052A0000F931F93CF93DF93009709F48CC0FC01F9
:1052B00032971382128200910404109105040115A3
:1052C000110581F420813181820F931F2091020406
:1052D000309103042817390779F5F0930304E0931C
:1052E000020471C0D80140E050E0AE17BF0750F48F
:1052F00012962D913C911397AD012115310509F1BD
:10530000D901F3CF9D01DA0133832283608171815A
:10531000860F971F8217930769F4EC012881398162
:10532000260F371F2E5F3F4F318320838A819B8159
:1053300093838283452B29F4F0930504E0930404BE
:1053400042C01396FC93EE931297ED014991599147
:105350009E01240F351FE217F30771F480819181BC
:10536000840F951F029611969C938E938281938150
:1053700013969C938E931297E0E0F0E0D80112967A
:105380008D919C911397009719F0F8018C01F6CF3D
:105390008D919C9198012E5F3F4F820F931F20911A
:1053A0000204309103042817390769F4309729F46F
:1053B000109205041092040402C01382128210930A
:1053C000030400930204DF91CF911F910F91089580
:1053D000A0E0B0E0EEEEF9E20C942B26EC01009791
:1053E00021F4CB010E94BB28B8C0FC01E60FF71FD7
:1053F0009C0122503109E217F30708F4ACC0D9012F
:105400000D911C91119706171707B0F00530110583
:1054100008F49FC0C80104978617970708F499C03D
:1054200002501109061B170B019311936D937C9386
:10543000CF010E9450298DC05B01A01AB10A4C0116
:10544000800E911EA0910404B091050440E050E04C
:10545000E12CF12C109709F44AC0A815B905D1F533
:105460006D907C901197630182E0C80ED11CCA1424
:10547000DB0480F1A3014A195B096A0182E0C80ECE
:10548000D11C1296BC9012971396AC91B5E0CB1636
:10549000D10440F0B282A38351834083D9016D933C
:1054A0007C930AC00E5F1F4FC301800F911FF9014B
:1054B00091838083EB2DFA2FE114F10431F0D701B1
:1054C0001396FC93EE93129744C0F0930504E09377
:1054D00004043FC08D919C9111974817590708F417
:1054E000AC017D0112960D90BC91A02DB3CF80919F
:1054F00002049091030488159905E1F446175707B3
:10550000C8F48091100190911101009741F48DB77A
:105510009EB74091140150911501841B950BE8171B
:10552000F907C8F4F0930304E0930204F9017183CE
:1055300060830FC0CB010E94BB287C01009759F00B
:10554000A801BE010E94C42ACE010E945029C701B1
:1055500004C0CE0102C080E090E0CDB7DEB7EEE03F
:105560000C94472681E090E0F8940C94D42AFB0137
:10557000DC0104C08D910190801921F4415050400C
:10558000C8F7881B990B0895FB01DC0102C001904C
:105590000D9241505040D8F70895FB01DC01019075
:0C55A0000D920020E1F70895F894FFCF71
:1055AC00110611060000B4420000B0400000E040BB
:1055BC00000006048000E803000000007905660F77
:1055CC001105C00542052005340500000000D50674
:1055DC00A5060507810612069106820653746172B0
:0655EC007465640020005C
:00000001FF
