:100000000C94E7040C9492080C946B080C940F0564
:100010000C940F050C940F050C940F050C940F0510
:100020000C940F050C940F050C940F050C94310BD8
:100030000C940F050C940F050C940F050C940F05F0
:100040000C9421080C940F050C9421070C94FB06CA
:100050000C940F050C940F050C940F050C940F05D0
:100060000C94F20B0C940F05084AD73B3BCE016E63
:1000700084BCBFFDC12F3D6C74319ABD56833DDAFF
:100080003D00C77F11BED9E4BB4C3E916BAAAABE0E
:10009000000000803F0001B202FFFF01900409232D
:1000A000A135016A0206000160080000000000009E
:1000B00000000060044000000001620200000060D7
:1000C0000400400000037B034CCD6C03AB033656A9
:1000D0007600680402CB47A202180400058BC10118
:1000E0000C0400000000037F060CC92C97979703AF
:1000F0008903264666006C022000024004000000CE
:100100000002440400000000024804000000000255
:100110004C040000000002500400000000025404DF
:100120000000000002580400000000025C0400000F
:10013000000002BC040000000001EC0400004000CC
:10014000037F060CC92C9797970402030D355D04B5
:100150000904872D353D00A301000000000107863A
:1001600001FE074105F120283038077E013007469F
:10017000019A074704F1283038076C04F128303819
:100180000216020001FB00003E000B0036000100D9
:10019000020003000000650054FFEF0000FA800039
:1001A0000B128200010002000000000000000000AD
:1001B000000000000000280000FFFF4581FFFFFA5B
:1001C0007200000000000003E80000000100017F51
:1001D000FFFFFE8001001B00000000000000000087
:1001E0000000000000003E03304000000002CAE3AF
:1001F000093E8000002000000000000000400000D8
:10020000006000000041FF000000000B2A00001603
:100210005500002182FD872650FD800000001F0050
:100220000000058000000000000001000000020046
:100230000000030000400000000000046F000265A1
:100240003200005EC040000000000000000000001E
:100250000000000000FB8C6F5DFD5D08D9007C7321
:100260003B006C12CC3200139D3200D0D632000815
:1002700000400001F4FFE68079020000000000D099
:10028000D600002710FB0000004000000000000026
:10029000000000000000000001000000000000015C
:1002A00000010000000000FA36FFBC308E0005FBA4
:1002B000F0FFD95BC8FFD09ABE000010A9FFF41E62
:1002C000B200CEBBF70000000100000004000200F5
:1002D000020200000CFFC280000001800000CF80FD
:1002E00000400000000000000100000000000006C7
:1002F00000000000140000000000000000000000EA
:1003000000000000000000000000000000000000ED
:1003100000000000000000000000000000000000DD
:10032000000000000000000000033F68B679352897
:10033000BCC67ED16C80000000400000000000B20E
:100340006A00000000000000000000000000003F04
:10035000F00000003000000000000000000000007D
:10036000000000000000000000000000000000008D
:1003700000000000000000254D002F706D000005FA
:10038000AE000C02D00000000000650054FFEF003A
:100390000000000000000001000044000000000C0C
:1003A0000000000100000000000065000000540093
:1003B00000FFEF000000000000000000000000004F
:1003C00000000000004000000000000000000000ED
:1003D00000000000004000000000000000000000DD
:1003E000000000000000000001000000020000000A
:1003F00000000000000000000000000000000000FD
:1004000000000000000000000000000000000000EC
:100410000000000000001B000000000000000000C1
:1004200000000000000000000000000000000000CC
:1004300000000000000000000000000000000000BC
:100440000040000000001B00000000000000000051
:10045000000000000000000000000000000000009C
:10046000000000000000000000000000000000008C
:10047000000000000000000000000000000000007C
:100480000000000000D8DCBAA2F1DEB2B8B4A88146
:1004900091F74A907F916AF3F9DBA8F9B0BAA0808E
:1004A000F2CE81F3C2F1C1F2C3F3CCA2B280F1C6A5
:1004B000D880BAA7DFDFDFF2A7C3CBC5B6F087A22B
:1004C000942448703C95406834589B78A2F18392FC
:1004D0002D557DD8B1B4B8A1D09180F270F370F2EF
:1004E0007C80A8F101B09887D943D886C988BAA181
:1004F000F20EB89780F1A9DFDFDFAADFDFDFF2AA13
:10050000C5CDC7A90CC92C97979797F1A9892646FD
:1005100066B0B4BA80ACDEF2CAF1B28C02A9B69869
:1005200000890E161EB8A9B4992C547CB08AA896DE
:10053000365676F1B9AFB4B083C0B8A89711B18F71
:1005400098B9AFF0240844106418F1A329557DAF81
:1005500083B593AFF0002850F1A3869F61A6DADE41
:10056000DFD9FAA38696DB31A6D9F8DFBAA68FC207
:10057000C5C7B28CC1B8A2DFDFDFA3DFDFDFD8D809
:10058000F1B8A8B286B4980D355DB8AA98B0872D99
:10059000353DB2B6BAAF8C96198F9FA70E161EB412
:1005A0009AB8AA872C547CB9A3DEDFDFA3B180F20E
:1005B000C4CDC9F1B8A9B499830D355D89B9A32D0E
:1005C000557DB593A30E161EA92C547CB8B4B0F17A
:1005D0009783A81184A50998A383F0DA240844100E
:1005E0006418D8F1A529557DA58595021A2E3A568D
:1005F0005A4048F9F3A3D9F8F098832408441064CA
:10060000189782A8F111F098A2240844106418DA0F
:10061000F3DED883A59401D9A302F1A2C3C5C7D83C
:10062000F18492A24DDA2AD84869D92AD86855DAD5
:1006300032D85071D932D8705DDA3AD85879D93A6F
:10064000D87893A34DDA2AD84869D92AD86855DAD8
:1006500032D85071D932D8705DDA3AD85879D93A4F
:10066000D878A88A9AF02850789EF38818F19F1DB0
:1006700098A8D908D8C89F129EF315A8DA1210D8E6
:10068000F1AFC8978734B5B994A421F3D922D8F231
:100690002DF3D92AD8F235F3D932D881A46060611C
:1006A000D961D86C6869D969D8747071D971D8B1B9
:1006B000A384193D5DA3831A3E5E9310308110110F
:1006C000B8B0AF8F94F2DA3ED8B49AA88729DAF896
:1006D000D8879A35DAF8D8879A3DDAF8D8B1B9A42C
:1006E0009885022E56A581000C14A397B08AF12D8F
:1006F000D928D84DD948D86DD968D8B1840DDA0E2B
:10070000D8A32983DA2C0ED8A3844983DA2C4C0E83
:10071000D8B8B0A88A9AF520AADADFD8A840AAD01B
:10072000DADED8A860AADAD0DFD8F19786A8319BA4
:10073000069907AB9728889BF00C201440B8B0B4FA
:10074000A88C9CF0042851791D301438B282ABD0AB
:10075000982C505078789BF11AB0F08A9CA82951B7
:10076000798B2951798A2470598B2058718A446970
:10077000388B3940688A6448318B304960A58820BD
:100780000971584468113964493019F1AC002C548E
:100790007CF08CA804285078F1889726A85998AC4A
:1007A0008C02264666F0899CA82951792470594408
:1007B0006938644831A98809205970AB11384069FB
:1007C000A8193148608CA83C415C207C00F18798D6
:1007D0001986A86E767EA999882D557D9EB9A38A23
:1007E000228A6E8A568A5E9FB183062646660E2E40
:1007F0004E6E9DB8AD002C547CF2B18CB499B9A367
:100800002D557D8191AC38AD3AB58391AC2DD92869
:10081000D84DD948D86DD968D88C9DAE29D904AEA9
:10082000D851D904AED879D904D881F39DAD008DC3
:10083000AE1981ADD901D8F2AEDA26D88E912983CE
:10084000A7D9ADADADADF32AD8D8F1B0AC89913E02
:100850005E76F3AC2E2EF1B18C5A9CAC2C28282855
:100860009CAC3018A8988128343C9724A728343CA5
:100870009C24F2B089AC912C4C6C8A9B2DD9D8D891
:1008800051D9D8D879D9D8D8F19E88A331DAD8D817
:10089000912DD928D84DD948D86DD968D8B183932E
:1008A000353D8025DAD8D88569DAD8D8B49381A3C4
:1008B00028343CF3AB8BF8A391B609B4D9ABDEFA7C
:1008C000B0879CB9A3DDF1A3A3A3A395F1A3A3A330
:1008D0009DF1A3A3A3A3F2A3B49080F2A3A3A3A327
:1008E000A3A3A3A3A3A3B2A3A3A3A3A3A3B087B5C6
:1008F00099F1A3A3A398F1A3A3A3A397A3A3A3A34D
:10090000F39BA3A3DCB9A7F1262626D8D8FF444D34
:100910005020496E697469616C697A6174696F6E9F
:10092000206661696C65642028636F646520004DF2
:1009300050553630353020636F6E6E656374696F65
:100940006E206661696C6564004D505536303530F7
:1009500020636F6E6E656374696F6E207375636379
:1009600065737366756C00496E697469616C697A48
:10097000696E6720444D502E2E2E0000000000248A
:100980000027002A0000000000250028002B00049A
:100990000404040404040402020202020203030326
:1009A0000303030102040810204080010204081020
:1009B00020010204081020000000080002010000CD
:1009C000030407000000000000000000EB231124D6
:1009D0001FBECFEFD8E0DEBFCDBF11E0A0E0B1E099
:1009E000E0E7F5E502C005900D92A234B107D9F712
:1009F00024E0A2E4B1E001C01D92A230B207E1F709
:100A000014E0C7EED4E004C02197FE010E949728AD
:100A1000C63ED107C9F70E94FC110C94B62A0C946B
:100A20000000FC01918D828D981761F0828DDF01AD
:100A3000A80FB11D5D968C91928D9F5F9F73928FD1
:100A400090E008958FEF9FEF0895FC01918D828DC6
:100A5000981731F0828DE80FF11D858D90E0089593
:100A60008FEF9FEF0895FC01918D228D892F90E0EB
:100A7000805C9F4F821B91098F73992708958CEF9B
:100A800092E00E94330521E0892B09F420E0822FB7
:100A90000895FC01848DDF01A80FB11DA35ABF4F3B
:100AA0002C91848D90E001968F739927848FA6896D
:100AB000B7892C93A089B1898C9180648C93938D94
:100AC000848D981306C00288F389E02D80818F7D84
:100AD00080830895EF92FF920F931F93CF93DF933C
:100AE000EC0181E0888F9B8D8C8D981305C0E8897F
:100AF000F989808185FD24C0F62E0B8D10E00F5FF3
:100B00001F4F0F731127E02E8C8DE8120CC00FB60B
:100B100007FCFACFE889F989808185FFF5CFCE01FE
:100B20000E944905F1CF8B8DFE01E80FF11DE35ABC
:100B3000FF4FF0820B8FEA89FB898081806207C0BA
:100B4000EE89FF896083E889F989808180648083E8
:100B500081E090E0DF91CF911F910F91FF90EF9096
:100B60000895CF93DF93EC01888D8823C9F0EA893B
:100B7000FB89808185FD05C0A889B9898C9186FD96
:100B80000FC00FB607FCF5CF808185FFF2CFA88993
:100B9000B9898C9185FFEDCFCE010E944905E7CF41
:100BA000DF91CF91089580E090E0892B29F00E9499
:100BB0003F0581110C94000008953FB7F89480918F
:100BC000AD029091AE02A091AF02B091B00226B5F5
:100BD000A89B05C02F3F19F00196A11DB11D3FBF75
:100BE000BA2FA92F982F8827820F911DA11DB11D03
:100BF000BC01CD0142E0660F771F881F991F4A95FF
:100C0000D1F7089508958091420190E02091430129
:100C1000821B91090895FC0190819C3080F58181AF
:100C200028E830E0281B310987FD3395220F331F58
:100C3000220F331F621773077CF0828128E532E0B0
:100C4000281B310987FD3395220F331F220F331FD5
:100C5000621773070CF49B0122503109220F331FD6
:100C60004FB7F894892F90E0FC01EE0FFF1F8E0F15
:100C70009F1FFC01EC59FD4F328321834FBF089524
:100C800085ED8093BC008091BC0084FDFCCF109268
:100C9000D702089540913D02262F30E0240F311DE8
:100CA00021323105DCF42091D7022430C9F4FC0153
:100CB00080E090E0861758F430913D022191DC01EC
:100CC000A55EBD4FA30FB11D2C930196F3CF80916C
:100CD0003D02680F60933D0280E0089581E0089531
:100CE00082E008950895E091430180914201E81760
:100CF00030F4F0E0E857FD4F808190E008958FEFE9
:100D00009FEF08959091430180914201981750F40C
:100D1000E92FF0E0E857FD4F208130E09F5F90938E
:100D2000430102C02FEF3FEFC9010895CF92DF9238
:100D3000EF92FF920F931F93CF93DF937C01262FA7
:100D4000972F8A018091D802882391F0C62FD72F40
:100D50006E01C40ED51ECC15DD0571F06991D70169
:100D6000ED91FC910190F081E02DC7010995F3CF41
:100D7000642F822F0E944A06C801DF91CF911F91F4
:100D80000F91FF90EF90DF90CF900895CF93DF9376
:100D90001F92CDB7DEB769832091D8022223D1F00C
:100DA0002091FB02203240F021E030E0FC0133834F
:100DB000228380E090E015C08091D902E82FF0E016
:100DC000E652FD4F998190838F5F8093D902809383
:100DD000FB0205C061E0CE0101960E944A0681E057
:100DE00090E00F90DF91CF91089581E080934401CE
:100DF00008950E94942A1F920F920FB60F92112409
:100E00002F933F934F935F936F937F938F939F9312
:100E1000AF93BF93EF93FF938CEF92E00E9449054D
:100E2000FF91EF91BF91AF919F918F917F916F91C2
:100E30005F914F913F912F910F900FBE0F901F9098
:100E400018951F920F920FB60F9211242F938F9324
:100E50009F93EF93FF93E0910C03F0910D0380813A
:100E6000E0911203F091130382FD12C090818091F2
:100E700015038F5F8F7320911603821751F0E09155
:100E80001503F0E0E450FD4F958F8093150301C0EA
:100E90008081FF91EF919F918F912F910F900FBEC5
:100EA0000F901F90189590E0FC01E954F64F349193
:100EB000FC01ED55F64F2491FC01E157F64FE4910A
:100EC000EE2309F43BC0332339F1333091F038F489
:100ED0003130A9F0323001F584B58F7D12C0373042
:100EE00091F03830A1F03430B9F4809180008F7DDA
:100EF00003C0809180008F77809380000DC084B5FF
:100F00008F7784BD09C08091B0008F7703C0809136
:100F1000B0008F7D8093B000F0E0EE0FFF1FEB5725
:100F2000F64FA591B4918FB7F894EC91611103C07D
:100F300020952E2301C02E2B2C938FBF0895CF9385
:100F4000DF9390E0FC01ED55F64F2491FC01E15751
:100F5000F64F8491882361F190E0880F991FFC017E
:100F6000E558F64FC591D491FC01EB57F64FA5918A
:100F7000B491611109C09FB7F894888120958223AC
:100F80008883EC912E230BC0623061F49FB7F894F4
:100F90003881822F809583238883EC912E2B2C938C
:100FA0009FBF06C08FB7F894E8812E2B28838FBF90
:100FB000DF91CF9108958F929F92AF92BF92CF927F
:100FC000DF92EF92FF926B017C010E94DD054B01E5
:100FD0005C01C114D104E104F104F1F00E94DD05CB
:100FE000DC01CB0188199909AA09BB09883E934005
:100FF000A105B10570F321E0C21AD108E108F1089A
:1010000088EE880E83E0981EA11CB11CC114D10487
:10101000E104F10419F7DDCFFF90EF90DF90CF905E
:10102000BF90AF909F908F9008952FB7F8946091E4
:10103000A9027091AA028091AB029091AC022FBFDD
:1010400008951F920F920FB60F9211242F933F9382
:101050008F939F93AF93BF938091A9029091AA021F
:10106000A091AB02B091AC023091A80223E0230F13
:101070002D3720F40196A11DB11D05C026E8230FD0
:101080000296A11DB11D2093A8028093A9029093FE
:10109000AA02A093AB02B093AC028091AD029091F2
:1010A000AE02A091AF02B091B0020196A11DB11D98
:1010B0008093AD029093AE02A093AF02B093B002C2
:1010C000BF91AF919F918F913F912F910F900FBE44
:1010D0000F901F9018951F920F920FB60F92112428
:1010E0002F933F934F935F936F937F938F939F9330
:1010F000AF93BF93EF93FF93E0910201F09103014F
:101100000995FF91EF91BF91AF919F918F917F9141
:101110006F915F914F913F912F910F900FBE0F9064
:101120001F9018951F920F920FB60F9211242F93B4
:101130003F934F935F936F937F938F939F93AF935F
:10114000BF93EF93FF93E0910001F09101010995A6
:10115000FF91EF91BF91AF919F918F917F916F918F
:101160005F914F913F912F910F900FBE0F901F9065
:101170001895EF92FF920F931F93CF93DF9300D0B8
:10118000CDB7DEB7142F91E09093D8028093FA0286
:101190001092D9021092FB0289E993E029833A83E5
:1011A0000E94C6062981022FE22E3A81F32E8E2D4F
:1011B000801B811740F4F70161917F0189E993E079
:1011C0000E94C606F4CF0E94021091E0811190E0C7
:1011D000892F0F900F90DF91CF911F910F91FF906A
:1011E000EF9008951F93CF93DF9300D0CDB7DEB774
:1011F0005A83498391E09093D8028093FA02109227
:10120000D9021092FB0289E993E00E94C606198177
:101210006A8189E993E00E94C606612F89E993E01B
:101220000E94C6060E94021091E0811190E0892F71
:101230000F900F90DF91CF911F910895CF93DF937F
:101240001F92CDB7DEB749839E012F5F3F4F41E02C
:101250000E94B9080F90DF91CF9108952F923F928D
:101260004F925F926F927F928F929F92AF92BF92B6
:10127000CF92DF92EF92FF920F931F93CF93DF9362
:10128000CDB7DEB727970FB6F894DEBF0FBECDBF40
:10129000E82E6B834F8369010E9415084B015C01A6
:1012A0006E2C660CF12C1E82772473945F81452F7F
:1012B00050E05D834C831801412C512C4F81F41672
:1012C00008F099C07092D802E092FA021092D90206
:1012D0001092FB026B8189E993E00E94C6060E948E
:1012E00002107092D802E092FA021092D902109283
:1012F000FB028091D7028111FCCF2C813D812F19F7
:1013000031092132310514F020E230E0213208F0B9
:1013100020E27092D7027092D6028FEF8093D502AE
:101320001092D402820F8093D3027092B202809105
:10133000B20286298093B2028091B102813071F4A9
:101340001092B1028091B2028093BB008091BC00E8
:1013500083FDF8CF95EC9093BC0003C0E5EEE093DD
:10136000BC008091D7028130E1F38091D4028217D2
:1013700010F42091D402A3EBB2E0E8E8F2E08E2F63
:1013800048E852E0841B821718F48D918193F7CFBF
:1013900010924301209342019091420180914301B8
:1013A000981719F10115110599F4A6012E81420F24
:1013B000511D27FD5A955A83498389E993E00E947C
:1013C0008206E981FA8180832E812F5F2E83E4CF0C
:1013D0000E941508DC01CB0188199909AA09BB09EB
:1013E00082159305A405B50500F38F81813208F0BD
:1013F00080E2F80E63CFFE8001151105D9F00E943E
:101400001508DC01CB0188199909AA09BB0920E05C
:1014100030E080179107A207B30760F05F81252FA6
:1014200030E08F2D0F2C000C990B8217930714F4CA
:10143000FF24FA948F2D27960FB6F894DEBF0FBEC7
:10144000CDBFDF91CF911F910F91FF90EF90DF9073
:10145000CF90BF90AF909F908F907F906F905F9054
:101460004F903F902F900895BF92CF92DF92EF92CE
:10147000FF920F931F93CF93DF931F92CDB7DEB7E9
:10148000F82EE62EC42EB22ED02E08EE13E09E01CA
:101490002F5F3F4F41E00E942E09882321F1EC2D60
:1014A000F0E0EB19F109319621E030E002C0220FA3
:1014B000331FBA94E2F7215031090E2E01C0220FDA
:1014C0000A94EAF78D2D01C0880FEA95EAF7422FBA
:1014D0004095998149232823422B49836E2D8F2DD6
:1014E0000E941E0901C080E00F90DF91CF911F91F3
:1014F0000F91FF90EF90DF90CF90BF900895CF9223
:10150000DF92EF92FF920F931F93CF93DF931F927F
:10151000CDB7DEB7F82EE62ED42EC22E08EE13E09D
:101520009E012F5F3F4F41E00E942E099981CC2000
:1015300041F041E050E001C0440FDA94EAF7492B52
:1015400009C021E030E0A90101C0440FDA94EAF7B4
:101550004095492349836E2D8F2D0E941E090F90BF
:10156000DF91CF911F910F91FF90EF90DF90CF907F
:1015700008951F93CF93DF93EC01162F88818C3051
:1015800008F04EC061E0812F0E949F078881E82FFC
:10159000F0E09F01220F331FE20FF31FEC59FD4FC4
:1015A0001F739081907C192B108319821A826CE032
:1015B0000E948B289CE0899FB001112440E050E0FC
:1015C0009A01260F371FF901EE0FFF1F2E0F3F1F45
:1015D000F901EC59FD4F908196FD16C04F5F5F4FAA
:1015E0004C30510569F781110FC01092800082E0E4
:1015F000809381001092850010928400B19A8091AE
:101600006F00826080936F00E881F0E0CF01880F67
:10161000991FE80FF91FEC59FD4F8081806480838A
:101620008881DF91CF911F910895FC019091630211
:101630009C30A0F481E0890F809363029083892F0E
:1016400090E0FC01EE0FFF1F8E0F9F1FFC01EC5975
:10165000FD4F88EB9BE09283818308958FEF808319
:1016600008951F920F920FB60F9211242F933F935C
:101670004F935F936F937F938F939F93AF93BF939A
:10168000EF93FF938091620287FF05C0109285005F
:10169000109284001BC020916202022E000C330BBA
:1016A0008091630290E02817390784F480916202E8
:1016B000082E000C990BFC01EE0FFF1F8E0F9F1FD1
:1016C000FC01EC59FD4F808186FD15C080916202BE
:1016D0008F5F8093620220916202022E000C330B16
:1016E0008091630290E028173907C4F48091620268
:1016F0008C3064F113C080916202082E000C990BAB
:10170000FC01EE0FFF1F8E0F9F1FFC01EC59FD4FD8
:10171000808160E08F730E945307D8CF809184004E
:1017200090918500049680349C4918F480E49CE9EB
:1017300005C0809184009091850004969093890063
:10174000809388008FEF809362023BC020918400D9
:101750003091850080916202082E000C990BFC01EB
:10176000EE0FFF1F8E0F9F1FFC01EC59FD4F818173
:101770009281820F931F90938900809388008091BB
:101780006202082E000C990BFC01EE0FFF1F8E0F5A
:101790009F1FFC01EC59FD4F808186FF12C0809194
:1017A0006202082E000C990BFC01EE0FFF1F8E0F3A
:1017B0009F1FFC01EC59FD4F808161E08F730E94F7
:1017C0005307FF91EF91BF91AF919F918F917F91BF
:1017D0006F915F914F913F912F910F900FBE0F909E
:1017E0001F9018951F920F920FB60F9211242F93EE
:1017F0003F934F935F936F937F938F939F93AF9399
:10180000BF93EF93FF938091B900887F803609F4EE
:101810009CC068F5883209F45BC090F4803109F40B
:1018200054C038F4882309F4F6C0883009F44DC058
:10183000F6C0883109F44CC0803209F45DC0EFC0B5
:10184000803409F468C048F4803309F455C0883303
:1018500009F0E5C08093D502D8C0803509F44FC0A7
:10186000883509F45DC0883409F0D9C0D6C08839FC
:1018700009F4C7C0A8F4883709F467C038F488367B
:1018800009F463C0803709F460C0C9C0883809F41E
:10189000B8C0803909F45FC0803809F0C0C05BC0AF
:1018A000803B09F486C038F4803A09F466C0883A6F
:1018B00009F47FC0B4C0803C09F4A7C0883C09F497
:1018C000A4C0883B09F48AC0AAC08091B20210C0AB
:1018D0009091D4028091D302981770F5E091D402D0
:1018E00081E08E0F8093D402F0E0ED54FD4F8081B3
:1018F0008093BB0085EC86C08093D5028EC0E091BA
:10190000D40281E08E0F8093D4028091BB00F0E07E
:10191000ED54FD4F80839091D4028091D3026EC02C
:10192000E091D40281E08E0F8093D4028091BB00BD
:10193000F0E0ED54FD4F80838091D60281116DC09F
:1019400081E08093B10284EA61C083E08093D70292
:1019500010926102CFCF80916102803208F051C0B5
:10196000E091610281E08E0F809361028091BB0063
:10197000F0E0EF5BFD4F8083BDCF85EC8093BC0032
:101980001092D70280916102803230F4E0916102BE
:10199000F0E0EF5BFD4F10826091610270E0E0913A
:1019A0003F02F091400281E492E0099510926102B9
:1019B00036C084E08093D70210923E0210923D021E
:1019C000E0913B02F0913C02099580913D0281112A
:1019D00005C081E080933D0210921B02E0913E021F
:1019E00081E08E0F80933E02F0E0E55EFD4F808146
:1019F0008093BB0090913E0280913D02981708F4BD
:101A000079CF85E88093BC000AC085EC8093BC0048
:101A10001092D70204C01092D5020E944006FF9196
:101A2000EF91BF91AF919F918F917F916F915F9156
:101A30004F913F912F910F900FBE0F901F901895CF
:101A4000CF92DF92EF92FF926B017C0120E030E0B9
:101A5000A9010E94B32487FD11C020E030E048ECCA
:101A600052E4C701B6010E941F28181654F4C12C75
:101A7000D12C88ECE82E82E4F82E03C0C12CD12CA6
:101A80007601C0924501D0924601E0924701F09262
:101A90004801C701B6010E94C2279B01AC01A9EB16
:101AA000B2E00E94F62524E630E040E050E00E94DB
:101AB000D725CA01B90161597B4F8F4F9F4F81EBE9
:101AC00093E0FF90EF90DF90CF900C940B06CF92B5
:101AD000DF92EF92FF926B017C0120E030E0A901E0
:101AE0000E94B32487FD11C020E030E048EC52E4AE
:101AF000C701B6010E941F28181654F4C12CD12C1E
:101B000088ECE82E82E4F82E03C0C12CD12C76019B
:101B1000C0924901D0924A01E0924B01F0924C01EF
:101B2000C701B6010E94C2279B01AC01A9EBB2E03C
:101B30000E94F62524E630E040E050E00E94D725E0
:101B4000CA01B90161597B4F8F4F9F4F84EB93E0DE
:101B5000FF90EF90DF90CF900C940B06CF92DF9226
:101B6000EF92FF926B017C0120E030E0A9010E941E
:101B7000B32487FD11C020E030E048EC52E4C701F7
:101B8000B6010E941F28181654F4C12CD12C88ECE1
:101B9000E82E82E4F82E03C0C12CD12C7601C0922D
:101BA0004D01D0924E01E0924F01F0925001C701D9
:101BB000B6010E94C2279B01AC01A9EBB2E00E94D2
:101BC000F62524E630E040E050E00E94D725CA0127
:101BD000B90161597B4F8F4F9F4F87EB93E0FF9087
:101BE000EF90DF90CF900C940B06CF92DF92EF92A4
:101BF000FF926B017C0120E030E0A9010E941F28C8
:101C0000181624F460E084E00E94530720E030E0DE
:101C100048EC52E4C701B6010E941F2818166CF068
:101C200020E030E0A901C701B6010E94B32487FF7C
:101C30000AC0C12CD12C760106C0C12CD12C88EC55
:101C4000E82E82E4F82EC0925101D0925201E09227
:101C50005301F0925401C701B6010E94C2279B01B3
:101C6000AC01A9EBB2E00E94F62524E630E040E0AA
:101C700050E00E94D725CA01B90161597B4F8F4FAF
:101C80009F4F8AEB93E0FF90EF90DF90CF900C9402
:101C90000B0610927D0160E070E0CB010E94F50D13
:101CA00060E070E0CB010E94AE0D60E070E0CB011F
:101CB0000E94670D60E070E0CB010C94200D109243
:101CC000690110926A0110926B0110926C011092DE
:101CD00065011092660110926701109268011092DE
:101CE000610110926201109263011092640180916F
:101CF000750190917601A0917701B0917801809360
:101D00005D0190935E01A0935F01B09360018091AB
:101D1000710190917201A0917301B091740180934F
:101D2000590190935A01A0935B01B0935C0180919B
:101D30006D0190916E01A0916F01B091700180933F
:101D4000550190935601A0935701B09358010E94FA
:101D500015086093790170937A0180937B019093C9
:101D60007C0181E080937D0160E070E0CB010E9406
:101D7000F50D60E070E0CB010E94AE0D60E070E018
:101D8000CB010E94670D60E070E0CB010C94200D48
:101D9000AF92BF92CF92DF92EF92FF920F931F9379
:101DA000CF93DF93CDB7DEB70DB71EB7DC01149626
:101DB000ED90FC901597A7014E5F5F4FEDB7FEB712
:101DC000E41BF50B0FB6F894FEBF0FBEEDBF6DB769
:101DD0007EB76F5F7F4F33966F0120E030E02E15A6
:101DE0003F0591F0DC01AD90BC90A114B10429F045
:101DF000D501A20FB31FBC9001C0B12CD601BD927A
:101E00006D012F5F3F4FEBCF87E0DB018C939B0190
:101E1000285F3F4F80E09191890FE217F307D9F7D0
:101E2000FB0181838CEF92E00E94480F0FB6F8947B
:101E30001EBF0FBE0DBFDF91CF911F910F91FF907D
:101E4000EF90DF90CF90BF90AF900895FC0181811B
:101E50000895CF93DF9300D01F92CDB7DEB7FC017A
:101E60002081298381818B838A8343E050E0BE01F6
:101E70006F5F7F4F8CEF92E00E94480F8CEF92E0F3
:101E80000E94B1050F900F900F90DF91CF910895B0
:101E9000CF92DF92EF92FF920F931F93CF93DF9336
:101EA0006C017A018B01C0E0D0E0CE15DF0589F02E
:101EB000D8016D918D01D601ED91FC910190F081D9
:101EC000E02DC6010995892B11F47E0102C02196EF
:101ED000ECCFC701DF91CF911F910F91FF90EF9051
:101EE000DF90CF900895CF93DF93EC0188819981A3
:101EF000009711F00E943229198218821D821C82DB
:101F00001B821A82DF91CF9108950F931F93CF9375
:101F1000DF93EC0188819981009729F02A813B8128
:101F20002617370788F48B016F5F7F4F0E94CA29FD
:101F3000009761F0998388831B830A832C813D81FC
:101F4000232B11F4FC01108281E001C080E0DF91BD
:101F5000CF911F910F9108958F929F92AF92BF9250
:101F6000EF92FF920F931F93CF93DF937B018C012E
:101F7000C0E0D0E0CE15DF05C9F10E9415086093DE
:101F80000403709305038093060390930703E09185
:101F9000FC02F091FD020680F781E02D8CEF92E0CB
:101FA000099597FF1EC00E94150880900403909029
:101FB0000503A0900603B0900703DC01CB0188194C
:101FC0009909AA09BB098090000390900103A09091
:101FD0000203B090030388159905AA05BB05B8F262
:101FE00005C0F80181938F012196C4CFCE01DF9106
:101FF000CF911F910F91FF90EF90BF90AF909F9066
:102000008F9008952091FB029091FA02213208F0FE
:102010004AC08091D7028111FCCF32E03093D702C1
:1020200031E03093D6023FEF3093D5021092D402C4
:102030002093D302AAEDB2E043EB52E0FA013E2F27
:10204000341B321718F43D913193F9CF1092B2023C
:102050002091B202990F922B9093B2029091B1020B
:10206000913061F41092B1029091B2029093BB0052
:102070009091BC0093FDF8CF95EC01C095EE909344
:10208000BC009091D7029230E1F39091D5029F3F2E
:1020900079F08091D502803241F08091D502803371
:1020A00031F084E005C081E003C082E001C083E03C
:1020B0001092D9021092FB021092D80208950F9349
:1020C0001F93CF93DF93C9EDD3E008EE13E02AED21
:1020D00033E041E06AE388810E942E098981DF9123
:1020E000CF911F910F91089521E042E06AE680911F
:1020F000D9030C947F0A482F6EE68091D9030C9483
:102100001E092F923F924F925F926F927F928F9211
:102110009F92AF92BF92CF92DF92EF92FF920F9376
:102120001F93CF93DF933C015B01342ED22F202EDF
:102130004F716DE68091D9030E941E098D2F0E9478
:102140007B1080E190E00E949D286C01002339F013
:1021500080E190E00E949D28C82F492E02C0C0E077
:10216000412CE12CF12CEA14FB0408F06EC0C701ED
:102170004096A816B90618F45A2C5E1802C080E1E1
:10218000582E852D90E020E031E02D1B31092817D5
:10219000390714F45D2E5194F301EE0DFF1D22203A
:1021A00059F09C2FAC2FB42D8A2F891B851530F444
:1021B00084918D933196F8CFCE2F4F2E2C2F342D26
:1021C000452D6FE68091D9030E94B908852C912C8A
:1021D000C114D10429F1432D4F716DE68091D903CB
:1021E0000E941E098D2F0E947B1008EE13E09601BD
:1021F000452D6FE68091D9030E942E09A401B601F6
:102200008C2F942D0E94992A892B51F0C6010E948F
:102210003229222021F18C2F942D0E9432291FC0B7
:10222000E80CF91CD50DEA14FB0408F09CCFD11181
:1022300001C03394432D4F716DE68091D9030E9404
:102240001E098D2F0E947B108ECFC6010E9432295D
:10225000222039F08C2F942D0E94322902C080E078
:1022600001C081E0DF91CF911F910F91FF90EF901E
:10227000DF90CF90BF90AF909F908F907F906F90A6
:102280005F904F903F902F9008950F931F93662378
:1022900051F0462F9C0108EE13E064E78091D903CA
:1022A0000E942E0902C0FC0110821F910F91089517
:1022B0000F931F93CF93DF93C9EDD3E008EE13E0A4
:1022C0002AED33E042E062E788810E942E0989818D
:1022D00090E0982F88272A81822BDF91CF911F9140
:1022E0000F910895EF92FF920F931F93CF93DF9377
:1022F0001F92CDB7DEB77A0189019E012F5F3F4F54
:1023000041E00E942E09882339F029812E7730E0A0
:1023100035952795F70120830F90DF91CF911F917D
:102320000F91FF90EF900895EF92FF920F931F93FC
:10233000CF93DF93EC018B016115710551F0CB0157
:102340000E94AA247C01BC01CE010E94850F81114C
:1023500004C0CE010E94730F07C0FD82EC82B80159
:10236000888199810E94A324CE01DF91CF911F9192
:102370000F91FF90EF900895FC01808191810C9462
:102380003229EF92FF920F931F93CF93DF93EC01CB
:10239000198218821B821A821D821C8261157105A6
:1023A00021F18B01FB0101900020E9F731977F01BA
:1023B000E61AF70AB7010E94850F811109C0CE0104
:1023C000DF91CF911F910F91FF90EF900C94730FBD
:1023D000FD82EC82B80188819981DF91CF911F91B4
:1023E0000F91FF90EF900C94AF2ADF91CF911F9146
:1023F0000F91FF90EF900895CF93DF93CDB7DEB7A5
:10240000C65DD1090FB6F894DEBF0FBECDBF78947C
:1024100084B5826084BD84B5816084BD85B58260E9
:1024200085BD85B5816085BD80916E00816080939A
:102430006E00109281008091810082608093810003
:102440008091810081608093810080918000816013
:10245000809380008091B10084608093B10080916E
:10246000B00081608093B00080917A008460809396
:102470007A0080917A00826080937A0080917A005D
:10248000816080937A0080917A00806880937A00DE
:102490001092C10068EE73E080E090E00E94DB07DC
:1024A000E0910C03F0910D0382E08083E09108033A
:1024B000F09109031082E0910A03F0910B0380E18F
:1024C000808310921403E0911003F091110386E0D1
:1024D0008083E0910E03F0910F03808180618083FF
:1024E000E0910E03F0910F03808188608083E0917A
:1024F0000E03F0910F03808180688083E0910E03CA
:10250000F0910F0380818F7D8083109200031092E1
:102510000103109202031092030368E371E0CE01FD
:1025200001960E94C111CE0101960E94C80ECE01F3
:1025300001960E94BC1161E087E00E949F0761E064
:1025400087E00E94530766E070E08AEB93E00E9408
:10255000B90A64E070E084EB93E00E94B90A60E09D
:1025600070E0CB010E94F50D60E070E0CB010E94AD
:10257000AE0D60E070E0CB010E94670D60E070E09E
:10258000CB010E94200D68EE73E080E090E00E9495
:10259000DB070E941508609317027093180280935E
:1025A000190290931A021092430110924201109264
:1025B000D9021092FB021092D70281E08093D602DA
:1025C0001092B10261E082E10E94530761E083E171
:1025D0000E9453078091B9008E7F8093B90080914B
:1025E000B9008D7F8093B90088E48093B80085E4BA
:1025F0008093BC008CE08093B80001E023E042E0CF
:102600006BE68091D9030E94340A00E022E044E0A6
:102610006BE18091D9030E94340A22E044E06CE12E
:102620008091D9030E94340A20E046E06BE6809155
:10263000D9030E947F0A60E082E00E949F0728EE93
:1026400033E04AED53E065E78091D9030E947211AF
:102650008091DA03843319F06FE279E002C069E413
:1026600079E01A8219821C821B821E821D82CE0191
:1026700001960E949411CE0101960E94C80ECE01CF
:1026800001960E94BC111A8219821C821B821E8232
:102690001D8267E679E0CE0101960E949411CE0179
:1026A00001960E94C80ECE0101960E94BC1121E045
:1026B00047E06BE68091D9030E947F0A6EE170E0EB
:1026C00080E090E00E94DB0720E046E06BE680912E
:1026D000D9030E947F0A40E76DE68091D9030E94EA
:1026E0001E0986E00E947B1040E06DE68091D903D0
:1026F0000E941E0928EE33E04AED53E060E080912D
:10270000D9030E9472118090DA0328EE33E04AED7B
:1027100053E061E08091D9030E9472119090DA0336
:1027200028EE33E04AED53E062E08091D9030E9445
:102730007211A090DA034FE765E28091D9030E94FD
:102740001E0920E045E06AE68091D9030E947F0AD5
:1027500048E665E28091D9030E941E0921E041E02C
:102760006AE68091D9030E947F0A64E170E080E00C
:1027700090E00E94DB0701E020E040E069E877E0BC
:1027800085E891E00E948110882309F4CDC288E099
:1027900090E00E949D28B82E192FE12CF12CF70112
:1027A000EB53FF4F4491F701EA53FF4F2491670128
:1027B00033E0C30ED11CF701E953FF4FE491EE2340
:1027C000D1F1EE2EF12CE330D8F0B7018B2D912F03
:1027D000CA52DF4F2883C65DD040CB52DF4F4883BB
:1027E000C55DD0400E94CA29B82E192FCB52DF4FA9
:1027F0004881C55DD040CA52DF4F2881C65DD040B8
:10280000AB2DB12F80E090E08E159F0548F4F601C6
:10281000E80FF91FEB53FF4FE491ED930196F4CFCE
:1028200000E0B7018B2D912F0E948110EC0CFD1C54
:10283000811117C010C044E0E40EF11CF601EB5307
:10284000FF4FE491E13039F442E368E38091D9032A
:102850000E941E0906C08B2D912F0E94322912E082
:1028600064C250ECE516F10408F499CF8B2D912F3A
:102870000E94322903E023E042E06BE68091D90315
:102880000E94340A42E168E38091D9030E941E0944
:1028900044E069E18091D9030E941E0901E023E030
:1028A00045E06AE18091D9030E94340A03E023E005
:1028B00042E06AE18091D9030E94340A22E044E0B8
:1028C0006BE18091D9030E94340A43E060E7809174
:1028D000D9030E941E0940E061E78091D9030E945C
:1028E0001E0920E040E060E08091D9030E947F0A49
:1028F000082D26E046E060E08091D9030E94340A6A
:10290000092D26E046E061E08091D9030E94340A57
:102910000A2D26E046E062E08091D9030E94340A45
:10292000E12CF12CF701EA56FF4FE491A1E8B0E069
:10293000AC0FBD1FAE0DB11DEC9381E08E0D9FEF6E
:10294000E91AF90AA3E0AE1568F7CD57DF4F6881A1
:10295000C358D04070E09B012E5F3F4F90E0281796
:10296000390704F700E0CE57DF4F2881C258D04026
:10297000CF57DF4F4881C158D04081E890E08C0F9D
:102980009D1F03960E94811080E0F701EA56FF4FD9
:10299000E491A1E8B0E0AC0FBD1FA80FB11DEC930E
:1029A0008F5FBFEFEB1AFB0A843078F3CD57DF4F10
:1029B0006881C358D04070E0AB014E5F5F4F282F55
:1029C00030E0421753070CF700E0CE57DF4F288165
:1029D000C258D040CF57DF4F4881C158D04081E81E
:1029E00090E08C0F9D1F03960E9481100E9474102E
:1029F0000E945811682FCE0101960E94451142E0B5
:102A00006FE18091D9030E941E094CE961E2809137
:102A1000D9030E941E0940E560E28091D9030E941B
:102A20001E0940E062E28091D9030E941E090E94C3
:102A3000741021E046E06AE68091D9030E947F0A83
:102A400021E047E06AE68091D9030E947F0A21E0F5
:102A500043E06AE68091D9030E947F0A80E0F70193
:102A6000EA56FF4FE491A1E8B0E0AC0FBD1FA80FFC
:102A7000B11DEC938F5FEFEFEE1AFE0A843078F30E
:102A8000CD57DF4F6881C358D04070E0AB014E5F37
:102A90005F4F282F30E0421753070CF700E0CE5766
:102AA000DF4F2881C258D040CF57DF4F4881C158EF
:102AB000D04081E890E08C0F9D1F03960E9481100A
:102AC00080E0F701EA56FF4FE491A1E8B0E0AC0FD7
:102AD000BD1FA80FB11DEC938F5FFFEFEF1AFF0A28
:102AE000843078F3CD57DF4F6881C358D04070E011
:102AF000AB014E5F5F4F282F30E0421753070CF7B2
:102B000000E0CE57DF4F2881C258D040CF57DF4F6B
:102B10004881C158D04081E890E08C0F9D1F0396FA
:102B20000E94811080E0F701EA56FF4FE491A1E88E
:102B3000B0E0AC0FBD1FA80FB11DEC938F5F2FEF5E
:102B4000E21AF20A843078F3CD57DF4F6881C35818
:102B5000D04070E0AB014E5F5F4F282F30E042174E
:102B600053070CF700E0CE57DF4F2881C258D04002
:102B7000CF57DF4F4881C158D04081E890E08C0F9B
:102B80009D1F03960E9481100E9458118330910569
:102B9000D8F3682FCE0101960E94451180E0F7011D
:102BA000EA56FF4FE491A1E8B0E0AC0FBD1FA80FBB
:102BB000B11DEC938F5F3FEFE31AF30A843078F393
:102BC000CD57DF4F3880C358D040832C912CA401BF
:102BD0004E5F5F4F282F30E04217530704F7CE5760
:102BE000DF4FB880C258D040CF57DF4F2880C15840
:102BF000D040422D4F716DE68091D9030E941E098D
:102C00008B2D0E947B10C12CD12C612C77247394C6
:102C1000A1E84A2E512C4C0E5D1E43E0440E511C7F
:102C2000C814D90498F5C60140968816990618F478
:102C3000A32CAC1802C0E0E1AE2E8A2D90E09301E7
:102C40002B1931092817390714F4AB2CA1949201E0
:102C50002C0D3D1D08EE13E04A2D6FE68091D9033F
:102C60000E942E09CA0CD11CBA0CC814D904C0F693
:102C7000B11001C02394422D4F716DE68091D903AC
:102C80000E941E098B2D0E947B10CACF0E945811F2
:102C900083309105D8F3682FCE0101960E9445112B
:102CA000F701EA56FF4F80E09491A1E8B0E0AC0F45
:102CB000BD1FA80FB11D9C938F5F843010F4319617
:102CC000F3CFCD57DF4F6881C358D04070E0AB01E0
:102CD0004E5F5F4F282F30E04217530784F700E024
:102CE000CE57DF4F2881C258D040CF57DF4F4881A1
:102CF000C158D04081E890E08C0F9D1F03960E9440
:102D0000811020E047E06AE68091D9030E947F0AA3
:102D10008AE290E09093DC038093DB030E947410BE
:102D20000E945F1010E001C011E010937E0141E5A8
:102D30005FEE66E08091D9030E94F20842EF59EFFE
:102D400068E08091D9030E94F20848E757E06AE002
:102D50008091D9030E94F20841E55FEF63E1809121
:102D6000D9030E94F20840EC5FEF65E18091D9033E
:102D70000E94F2084DEA5FEF67E18091D9030E945B
:102D8000F208111123C021E047E06AE68091D903DF
:102D90000E947F0A85EF96E09093010180930001E5
:102DA00080916900836080936900E89A0E945F10B7
:102DB0008093CB0181E08093D0018091DB039091DF
:102DC000DC039093CD018093CC0125C01A82198237
:102DD0001C821B821E821D826EE079E0CE0101966C
:102DE0000E949411CE0101960E94C80ECE01019658
:102DF0000E94BC1160917E0170E06F5B7E4FCE013E
:102E000001960E94C111CE0101960E94C80ECE010A
:102E100001960E94BC118E010F5F1F4F69E0262EA4
:102E200078E0372E8091D001882329F12091CE01BE
:102E30003091CF018091CC019091CD01409144011E
:102E4000411103C028173907C8F3109244010E94AA
:102E50005F10F82E8093CB010E9458119093CF0100
:102E60008093CE01F4FC05C08115944011F00C94C0
:102E700054210E94741061E070E0CE0188569F4F8B
:102E80000E94AC0FC856DF4F2881C859D04022237A
:102E9000A1F0CA52DF4F2883C65DD0400E941508BA
:102EA00060931702709318028093190290931A028C
:102EB000CA52DF4F2881C65DD04061E070E0CE018C
:102EC00089569F4FCA52DF4F2883C65DD0400E946B
:102ED000AC0FCA52DF4F2881C65DD04021111BC004
:102EE00061E070E0C8010E94AC0FC8010E94260F8B
:102EF000C956DF4F9881C759D040891360C3898173
:102F0000811103C00E94490E5AC3813009F057C392
:102F10000E945F0E54C3213009F0C2C062E070E02D
:102F2000C8010E94AC0FC8010E94260FC956DF4F8E
:102F30009881C759D040891342C360E084E00E9461
:102F4000530720917501309176014091770150919E
:102F500078016091D9017091DA018091DB01909143
:102F6000DC010E9472266093D9017093DA0180938C
:102F7000DB019093DC01209171013091720140914D
:102F80007301509174016091D5017091D6018091C7
:102F9000D7019091D8010E9472266093D501709359
:102FA000D6018093D7019093D80120916D01309183
:102FB0006E0140916F01509170016091D10170914B
:102FC000D2018091D3019091D4010E947226609326
:102FD000D1017093D2018093D3019093D4011092C8
:102FE000750110927601109277011092780110927B
:102FF000710110927201109273011092740110927B
:103000006D0110926E0110926F011092700110927A
:10301000690110926A0110926B0110926C0110927A
:10302000650110926601109267011092680110927A
:10303000610110926201109263011092640110927A
:103040005D0110925E0110925F011092600110927A
:10305000590110925A0110925B0110925C0110927A
:10306000550110925601109257011092580110927A
:1030700003021092040210920502109206021092AE
:10308000FF011092000210920102109202021092AF
:10309000FB011092FC011092FD011092FE018FC203
:1030A000223009F04DC065E070E0C8010E94AC0F0D
:1030B000C8010E94260FC956DF4F9881C759D040DA
:1030C00089137DC281E080937D010E945F0E69813A
:1030D00070E080E090E00E94B8246093F701709364
:1030E000F8018093F9019093FA016A8170E080E021
:1030F00090E00E94B82460931302709314028093AE
:103100001502909316026B8170E080E090E00E94BF
:10311000B82460930B0270930C0280930D0290937D
:103120000E0281E09C81911101C080E08093E60154
:1031300081E09D81911101C080E08093E5013FC253
:10314000233009F068C064E070E0C8010E94AC0F51
:10315000C8010E94260FC956DF4F9881C759D04039
:1031600089132DC210927D010E94490E1092E10137
:103170001092E2011092E3011092E4011092F70123
:103180001092F8011092F9011092FA0110920B02BC
:1031900010920C0210920D0210920E021092130265
:1031A0001092140210921502109216021092E00171
:1031B0001092DF011092DE011092DD016A8170E051
:1031C00080E090E00E94B8242B013C016B8170E00C
:1031D00080E090E00E94B8244B015C016C8170E0BB
:1031E00080E090E00E94B8246B017C01698170E06E
:1031F00080E090E00E94B8240E94F50DC301B20166
:103200000E94AE0DC501B4010E94670DC701B60151
:103210000E94200DD4C1243009F0D1C16EE170E0CC
:10322000C8010E94AC0FC8010E94260FC956DF4F8B
:103230009881C759D0408913C2C18981882339F048
:10324000C12CD12C90E8E92E9FEBF92E06C0C12CA1
:10325000D12C80E8E82E8FE3F82E6C8170E0762F79
:103260006627072E000C880B990B0E94BA2420E0D9
:1032700030E543EC57E40E94502720E030E0A901FC
:103280000E9472264B015C016D8170E080E090E04D
:103290000E94BA2420E030E543EC57E40E94502716
:1032A0009B01AC01C501B4010E9472269B01AC01D7
:1032B000C701B6010E9419256093F3017093F401D0
:1032C0008093F5019093F6018E81882339F0C12C0B
:1032D000D12CA0E8EA2EAFEBFA2E06C0C12CD12CDF
:1032E000F0E8EF2EFFE3FF2E698570E0762F66276A
:1032F000072E000C880B990B0E94BA2420E030E5C1
:1033000043EC57E40E94502720E030E0A9010E94DE
:1033100072264B015C016A8570E080E090E00E94BB
:10332000BA2420E030E543EC57E40E9450279B018B
:10333000AC01C501B4010E9472269B01AC01C7011A
:10334000B6010E9419256093EF017093F0018093FC
:10335000F1019093F2018B85882339F0C12CD12C97
:1033600070E8E72E7FEBF72E06C0C12CD12C60E869
:10337000E62E6FE3F62E6E8570E0762F6627072E19
:10338000000C880B990B0E94BA2420E030E543EC36
:1033900057E40E94502720E030E0A9010E947226E5
:1033A0004B015C016F8570E080E090E00E94BA24E0
:1033B00020E030E543EC57E40E9450279B01AC012C
:1033C000C501B4010E9472269B01AC01C701B60180
:1033D0000E9419256093EB017093EC018093ED013D
:1033E0009093EE018889882339F0C12CD12C40E8D4
:1033F000E42E4FEBF42E06C0C12CD12C30E8E32E86
:103400003FE3F32E6B8970E0762F6627072E000CC2
:10341000880B990B0E94BA2420E030E543EC57E476
:103420000E94502720E030E0A9010E9472264B0143
:103430005C016C8970E080E090E00E94BA2420E09A
:1034400030E543EC57E40E9450279B01AC01C501D5
:10345000B4010E9472269B01AC01C701B6010E9413
:10346000192560930C0170930D0180930E019093C8
:103470000F018D89882339F0C12CD12C90E8E92ED9
:103480009FEBF92E06C0C12CD12C80E8E82E8FE3EB
:10349000F82E688D70E0762F6627072E000C880BBB
:1034A000990B0E94BA2420E030E543EC57E40E94D7
:1034B000502720E030E0A9010E9472264B015C01F8
:1034C000698D70E080E090E00E94BA2420E030E551
:1034D00043EC57E40E9450279B01AC01C501B401A5
:1034E0000E9472269B01AC01C701B6010E941925FA
:1034F000609308017093090180930A0190930B0176
:103500008A8D882339F0C12CD12CA0E8EA2EAFEBAC
:10351000FA2E06C0C12CD12CF0E8EF2EFFE3FF2ECF
:103520006D8D70E0762F6627072E000C880B990BA7
:103530000E94BA2420E030E543EC57E40E94502773
:1035400020E030E0A9010E9472264B015C016E8DE3
:1035500070E080E090E00E94BA2420E030E543EC87
:1035600057E40E9450279B01AC01C501B4010E94A1
:1035700072269B01AC01C701B6010E941925609318
:10358000040170930501809306019093070161E4A3
:1035900071E0CE018F569F4F0E94C11160E471E02F
:1035A000CE018F579F4F0E94C111CE018F579F4F61
:1035B0000E94BC11CE018F569F4F0E94BC110E94E9
:1035C0001508C090E701D090E801E090E901F09083
:1035D000EA01A8ECCA0ED11CE11CF11C6C157D059A
:1035E0008E059F0508F476C00E9415086093E701D8
:1035F0007093E8018093E9019093EA01F80125E0D6
:1036000011922A95E9F72982609151017091520136
:1036100080915301909154010E94C9276A8360915F
:103620004D0170914E0180914F01909150010E9487
:10363000C9276B836091490170914A0180914B01C8
:1036400090914C010E94C9276C8360914501709153
:10365000460180914701909148010E94C9276D83DE
:10366000CF57DF4F3882C158D040609175017091BB
:10367000760180917701909178010E94C927CE57F9
:10368000DF4F6883C258D040609171017091720120
:1036900080917301909174010E94C927CD57DF4F2B
:1036A0006883C358D04060916D0170916E01809124
:1036B0006F01909170010E94C927CC57DF4F68833A
:1036C000C458D040C8010E94290FCE018F579F4F88
:1036D0000E94290F0E941508C0901702D09018026E
:1036E000E0901902F0901A02DC01CB018C199D09BF
:1036F000AE09BF09893C9105A105B10510F00E94F2
:10370000490E80917D01882309F4C5C5609113029B
:103710007091140280911502909116020E94C227A6
:103720009B01AC012C593F4F4F4F5F4FA2EFBFEFB2
:103730000E94042628EC30E040E050E00E94D725AB
:10374000CA01B901695F7F4F8F4F9F4F0E94BA2412
:103750004B015C0160930F02709310028093110281
:103760009093120260910B0270910C0280910D02F5
:1037700090910E020E94C2279B01AC012C593F4F31
:103780004F4F5F4FAEE0B0E00E94F62528EC30E0EE
:1037900040E050E00E94D725CA01B9016750710985
:1037A000810991090E94BA246B017C016093070290
:1037B000709308028093090290930A020E941508F0
:1037C0004090790150907A0160907B0170907C016B
:1037D00064197509860997090E94B824C754DF4FF8
:1037E000688379838A839B83C95BD040809175010C
:1037F00090917601A0917701B0917801C756DF4F83
:1038000088839983AA83BB83C959D04020917101D1
:10381000309172014091730150917401C354DF4F94
:10382000288339834A835B83CD5BD040A501940113
:10383000C354DF4F688179818A819B81CD5BD04001
:103840000E947126C355DF4F688379838A839B83E7
:10385000CD5AD04080916D0190916E01A0916F0181
:10386000B0917001CF53DF4F88839983AA83BB83C4
:10387000C15CD040A7019601BC01CD010E94712618
:10388000CF54DF4F688379838A839B83C15BD040A9
:1038900020E030E0A901C756DF4F688179818A8135
:1038A0009B81C959D0400E941F28181694F0C75612
:1038B000DF4F288139814A815B81C959D0405058F6
:1038C000CF55DF4F288339834A835B83C15AD04069
:1038D00010C0C756DF4F88819981AA81BB81C95921
:1038E000D040CF55DF4F88839983AA83BB83C15AC9
:1038F000D04020E030E0A901C355DF4F68817981D5
:103900008A819B81CD5AD0400E941F28181694F0BE
:10391000C355DF4F288139814A815B81CD5AD04020
:103920005058CB55DF4F288339834A835B83C55A70
:10393000D04010C0C355DF4F88819981AA81BB81D7
:10394000CD5AD040CB55DF4F88839983AA83BB8360
:10395000C55AD04020E030E0A901CF54DF4F688144
:1039600079818A819B81C15BD0400E941F281816F3
:1039700094F0CF54DF4F288139814A815B81C15B4C
:10398000D0405058C755DF4F288339834A835B8323
:10399000C95AD04010C0CF54DF4F88819981AA8185
:1039A000BB81C15BD040C755DF4F88839983AA8311
:1039B000BB83C95AD0402091030230910402409148
:1039C000050250910602C756DF4F688179818A81CE
:1039D0009B81C959D0400E9471264B015C01209106
:1039E000FF01309100024091010250910202C35444
:1039F000DF4F688179818A819B81CD5BD0400E94B5
:103A000071266B017C012091FB013091FC014091FA
:103A1000FD015091FE01CF53DF4F688179818A818A
:103A20009B81C15CD0400E9471262601370177FA44
:103A3000709477F870949B01AC015058CF52DF4FCF
:103A4000288339834A835B83C15DD0402AE939E901
:103A500049E95EE3CF55DF4F688179818A819B8197
:103A6000C15AD0400E94B32487FF08C01092690158
:103A700010926A0110926B0110926C018091F70113
:103A80009091F801A091F901B091FA01C356DF4F6E
:103A900088839983AA83BB83CD59D04020E030E04E
:103AA000A901BC01CD010E94B324882309F12AE9B0
:103AB00039E949E95EE3CB55DF4F688179818A8135
:103AC0009B81C55AD0400E94B32487FD11C02AE9CA
:103AD00039E949E95EE3C755DF4F688179818A8119
:103AE0009B81C95AD0400E94B32487FD18C01FC0D3
:103AF00010926501109266011092670110926801A0
:103B000020E030E0A901C356DF4F688179818A81C6
:103B10009B81CD59D0400E94B3248111D8CF1092FF
:103B20006101109262011092630110926401209170
:103B3000690130916A0140916B0150916C01CB5346
:103B4000DF4F288339834A835B83C55CD040209153
:103B5000F3013091F4014091F5015091F601CF55F8
:103B6000DF4F688179818A819B81C15AD0400E9450
:103B7000192520E030E048EC52E40E9450276B0108
:103B80007C012091EF013091F0014091F1015091C1
:103B9000F201CB53DF4F688179818A819B81C55CBB
:103BA000D0400E94192520E030E04AE754E40E940A
:103BB00050279B01AC01C701B6010E9472266B0120
:103BC0007C012091EB013091EC014091ED0150918D
:103BD000EE01C501B4010E941925C754DF4F2881A9
:103BE00039814A815B81C95BD0400E9450279B018B
:103BF000AC01C701B6010E947126CB54DF4F688328
:103C000079838A839B83C55BD040809165019091C5
:103C10006601A0916701B0916801C753DF4F8883A7
:103C20009983AA83BB83C95CD04020910C01309159
:103C30000D0140910E0150910F01CB55DF4F68816E
:103C400079818A819B81C55AD0400E94192520E044
:103C500030E048EC52E40E9450276B017C01209137
:103C600008013091090140910A0150910B01C7539D
:103C7000DF4F688179818A819B81C95CD0400E9435
:103C8000192520E030E04AE754E40E9450279B01C8
:103C9000AC01C701B6010E9472266B017C01209124
:103CA0000401309105014091060150910701C301C3
:103CB000B2010E941925C754DF4F288139814A81FA
:103CC0005B81C95BD0400E9450279B01AC01C701BA
:103CD000B6010E9471262B013C01209161013091B7
:103CE00062014091630150916401C353DF4F288307
:103CF00039834A835B83CD5CD0402091AD03309102
:103D0000AE034091AF035091B003C755DF4F6881B8
:103D100079818A819B81C95AD0400E94192520E06F
:103D200030E048EC52E40E9450276B017C01209166
:103D3000A9033091AA034091AB035091AC03C35344
:103D4000DF4F688179818A819B81CD5CD0400E9460
:103D5000192520E030E04AE754E40E9450279B01F7
:103D6000AC01C701B6010E9472266B017C01209153
:103D7000A5033091A6034091A7035091A803CF5209
:103D8000DF4F688179818A819B81C15DD0400E942B
:103D90001925C754DF4F288139814A815B81C95B6E
:103DA000D0400E9450279B01AC01C701B6010E9480
:103DB00071264B015C0120E030E040E751E4C30193
:103DC000B2010E941F2820E030E040E751E41816BD
:103DD0000CF4F3C4C501B4010E941F2820E030E0B8
:103DE00040E751EC1816ECF0C301B2010E94B32475
:103DF00087FF06C0412C512C50E7652E51EC752EE3
:103E000020E030E040E751ECC501B4010E94B3244A
:103E100087FF19C0812C912C40E7A42E41ECB42ED1
:103E200012C0C301B2010E94B32487FF06C0412C17
:103E3000512C30E7632E31EC732E812C912C20E72E
:103E4000A22E21E4B22E0E9415086093790170938E
:103E50007A0180937B0190937C01CF55DF4F88815D
:103E60009981AA81BB81C15AD04080935D01909312
:103E70005E01A0935F01B0936001CB55DF4F2881B5
:103E800039814A815B81C55AD040209359013093D2
:103E90005A0140935B0150935C01C755DF4F888105
:103EA0009981AA81BB81C95AD040809355019093D2
:103EB0005601A0935701B0935801C756DF4F288190
:103EC00039814A815B81C959D040209303023093E4
:103ED00004024093050250930602C354DF4F8881C9
:103EE0009981AA81BB81CD5BD0408093FF019093E3
:103EF0000002A0930102B0930202CF53DF4F28814A
:103F000039814A815B81C15CD0402093FB013093B1
:103F1000FC014093FD015093FE01CF55DF4F2881F6
:103F200039814A815B81C15AD040CB53DF4F6881D0
:103F300079818A819B81C55CD0400E947226609302
:103F4000690170936A0180936B0190936C01CB556A
:103F5000DF4F288139814A815B81C55AD040C753E0
:103F6000DF4F688179818A819B81C95CD0400E9442
:103F70007226609365017093660180936701909348
:103F80006801C755DF4F288139814A815B81C95A51
:103F9000D040C353DF4F688179818A819B81CD5C9A
:103FA000D0400E94722660936101709362018093F9
:103FB00063019093640120E030E0A901C756DF4F10
:103FC000688179818A819B81C959D0400E94B3243C
:103FD000CB54DF4F288139814A815B81C55BD0405A
:103FE00087FF1FC0C356DF4F688179818A819B811B
:103FF000CD59D0400E9471266B017C01CB54DF4F1C
:10400000288139814A815B81C55BD040C356DF4F2F
:10401000688179818A819B81CD59D0400E94722626
:104020001EC0C356DF4F688179818A819B81CD593B
:10403000D0400E9472266B017C01CB54DF4F288157
:1040400039814A815B81C55BD040C356DF4F6881AF
:1040500079818A819B81CD59D0400E947126C756B3
:10406000DF4F688379838A839B83C959D04020E0DE
:1040700030E0A901C355DF4F688179818A819B8136
:10408000CD5AD0400E94B324A301920187FD35C0D0
:10409000C701B6010E947126C356DF4F688379833A
:1040A0008A839B83CD59D040A3019201C756DF4F2D
:1040B000688179818A819B81C959D0400E9471268B
:1040C000CF55DF4F688379838A839B83C15AD04061
:1040D000A3019201C701B6010E9472266B017C0107
:1040E000A3019201C756DF4F688179818A819B8144
:1040F000C959D0400E94722634C0C701B6010E943F
:104100007226C356DF4F688379838A839B83CD5998
:10411000D040A3019201C756DF4F688179818A811F
:104120009B81C959D0400E947226CF55DF4F6883CA
:1041300079838A839B83C15AD040A3019201C7012E
:10414000B6010E9471266B017C01A3019201C75642
:10415000DF4F688179818A819B81C959D0400E9453
:1041600071262B013C0120E030E0A901CF54DF4F44
:10417000688179818A819B81C15BD0400E94B32490
:10418000A501940187FF35C0C356DF4F688179814F
:104190008A819B81CD59D0400E947126C756DF4F3E
:1041A000688379838A839B83C959D040A501940190
:1041B000CF55DF4F688179818A819B81C15AD04078
:1041C0000E947226C356DF4F688379838A839B835C
:1041D000CD59D040A5019401C701B6010E947226B5
:1041E0006B017C01A5019401C301B2010E947126FB
:1041F00034C0C356DF4F688179818A819B81CD5954
:10420000D0400E947226C756DF4F688379838A8325
:104210009B83C959D040A5019401CF55DF4F6881D8
:1042200079818A819B81C15AD0400E947126C356F0
:10423000DF4F688379838A839B83CD59D040A50162
:104240009401C701B6010E9471266B017C01A50192
:104250009401C301B2010E9472264B015C01C75652
:10426000DF4F688179818A819B81C959D0400E9442
:10427000F50DC356DF4F688179818A819B81CD59C5
:10428000D0400E94AE0DC701B6010E94670DC50166
:10429000B4010E94200D60E070E0CB010E94DB07BA
:1042A0000E94D3050C941217F1FC02C00C943B172A
:1042B000E090CE01F090CF01C090CC01D090CD0124
:1042C000EC14FD0438F40E9458119093CF018093B0
:1042D000CE01EECF6C2D8BE891E00E944511EC18D9
:1042E000FD08F092CF01E092CE01A0908F01B12C99
:1042F000BA2CAA2480919001A82AC0909301D12CB5
:10430000DC2CCC2480919401C82AE0909701F12CF8
:10431000FE2CEE2480919801E82A60918B0170E0D8
:10432000762F662780918C01682B072E000C880B56
:10433000990B0E94BA2420E030E040E858E30E9444
:1043400019252B013C016093C9037093CA03809324
:10435000CB039093CC03B501BB0C880B990B0E9447
:10436000BA2420E030E040E858E30E9419254B01D0
:104370005C016093CD037093CE038093CF03909341
:10438000D003B601DD0C880B990B0E94BA2420E003
:1043900030E040E858E30E941925C756DF4F688394
:1043A00079838A839B83C959D0406093D1037093EA
:1043B000D2038093D3039093D403B701FF0C880BEF
:1043C000990B0E94BA2420E030E040E858E30E94B4
:1043D0001925C356DF4F688379838A839B83CD5920
:1043E000D0406093D5037093D6038093D703909306
:1043F000D8039B01AC01C501B4010E9419256B01D2
:104400007C01C756DF4F288139814A815B81C959B8
:10441000D040C301B2010E9419259B01AC01C70124
:10442000B6010E9471269B01AC010E947226CF55F5
:10443000DF4F688379838A839B83C15AD04060931E
:10444000BD037093BE038093BF039093C003A50187
:104450009401C301B2010E9419256B017C01C3566E
:10446000DF4F288139814A815B81CD59D040C756C1
:10447000DF4F688179818A819B81C959D0400E9430
:1044800019259B01AC01C701B6010E9472269B0150
:10449000AC010E947226CB55DF4F688379838A83F3
:1044A0009B83C55AD0406093C1037093C20380932D
:1044B000C3039093C403A3019201C301B2010E94FC
:1044C00019256B017C01A5019401C501B4010E946D
:1044D00019259B01AC01C701B6010E9471266B0131
:1044E0007C01C756DF4F288139814A815B81C959D8
:1044F000D040CA01B9010E9419259B01AC01C70136
:10450000B6010E9471266B017C01C356DF4F2881E2
:1045100039814A815B81CD59D040CA01B9010E94DD
:1045200019259B01AC01C701B6010E9472266B01DF
:104530007C016093C5037093C6038093C703909377
:10454000C803A3019201C301B2010E947226C7559C
:10455000DF4F688379838A839B83C95AD040A50142
:104560009401C501B4010E947226C355DF4F6883D0
:1045700079838A839B83CD5AD040A3019201C7558A
:10458000DF4F688179818A819B81C95AD0400E941E
:1045900019252B013C01A5019401C355DF4F68810A
:1045A00079818A819B81CD5AD0400E9419259B0137
:1045B000AC01C301B2010E94722620E030E040E865
:1045C0005FE30E9471262B013C01C756DF4F288113
:1045D00039814A815B81C959D040C355DF4F688119
:1045E00079818A819B81CD5AD0400E9419254B0147
:1045F0005C01C356DF4F288139814A815B81CD59E7
:10460000D040C755DF4F688179818A819B81C95A23
:10461000D0400E9419259B01AC01C501B4010E9444
:104620007126A30192010E94F1264B015C01609367
:104630007F01709380018093810190938201A70193
:104640009601C701B6010E9419252B013C01CB55EB
:10465000DF4F288139814A815B81C55AD040CA0128
:10466000B9010E941925A30192010E9472260E949D
:1046700032289B01AC01CF55DF4F688179818A8157
:104680009B81C15AD0400E9450270E9421276B0174
:104690007C016093830170938401809385019093E2
:1046A0008601CF55DF4F288139814A815B81C15A0C
:1046B000D040CA01B9010E941925A30192010E94AC
:1046C00072260E9432289B01AC01CB55DF4F6881D6
:1046D00079818A819B81C55AD0400E9450270E94CF
:1046E00021272B013C0160938701709388018093FF
:1046F000890190938A0120E030E044E353E4C5014E
:10470000B4010E9419252BED3FE049E450E40E94DA
:1047100050272091D9013091DA014091DB0150916D
:10472000DC010E947126609375017093760180937D
:1047300077019093780120E030E044E353E4C7012F
:10474000B6010E9419252BED3FE049E450E40E9498
:1047500050272091D5013091D6014091D701509139
:10476000D8010E9471266093710170937201809349
:1047700073019093740120E030E044E353E4C301FB
:10478000B2010E9419252BED3FE049E450E40E945C
:1047900050272091D1013091D2014091D301509105
:1047A000D4010E94712660936D0170936E01809315
:1047B0006F01909370010C943B17C501B4010E94E6
:1047C0001F28412C512C90E7692E91E4792E181660
:1047D0000CF433CB15CBECEFF2E01382128288EEAF
:1047E00093E0A0E0B0E084839583A683B7832CE1B7
:1047F00031E03183208325EC30E03587248724ECB9
:1048000030E03787268720EC30E0318B208B21EC9D
:1048100030E0338B228B22EC30E0358B248B26EC7E
:1048200030E0378B268B118E128E138E148EE9E9B1
:10483000F3E01382128284839583A683B7838CE28C
:1048400091E09183808388E68093D903E9ECF3E0DB
:1048500080E090E0A0E8BFE380839183A283B383EC
:10486000148215821682178210861186128613868C
:104870001486158616861786E8EFF3E011821082FB
:104880001382128215821482E2EFF3E01182108209
:104890001382128215821482ECEEF3E011821082F0
:1048A0001382128215821482EDEBF3E010821182E2
:1048B0001282138214821582168217821086118644
:1048C000128613868AEB93E00E94150B87EB93E028
:1048D0000E94150B84EB93E00E94150B81EB93E093
:1048E0000E94150B80910C0190910D01A0910E0179
:1048F000B0910F018093AD039093AE03A093AF03EB
:10490000B093B0038091080190910901A0910A0130
:10491000B0910B018093A9039093AA03A093AB03DA
:10492000B093AC038091040190910501A091060120
:10493000B09107018093A5039093A603A093A703CA
:10494000B093A8030895FB01DC0105900D920020AF
:10495000E1F70895FC0105900020E9F78095909516
:104960008E0F9F1F08950E94F52408F481E008959A
:10497000E89409C097FB3EF49095809570956195F9
:104980007F4F8F4F9F4F9923A9F0F92F96E9BB27AF
:104990009395F695879577956795B795F111F8CF2B
:1049A000FAF4BB0F11F460FF1BC06F5F7F4F8F4F96
:1049B0009F4F16C0882311F096E911C0772321F08C
:1049C0009EE8872F762F05C0662371F096E8862F24
:1049D00070E060E02AF09A95660F771F881FDAF77B
:1049E000880F9695879597F90895990F0008550FA8
:1049F000AA0BE0E8FEEF16161706E807F907C0F065
:104A000012161306E407F50798F0621B730B840B6C
:104A1000950B39F40A2661F0232B242B252B21F446
:104A200008950A2609F4A140A6958FEF811D811DE6
:104A300008950E942C250C949D250E948F2538F006
:104A40000E94962520F0952311F00C9486250C9455
:104A50008C2511240C94D1250E94AE2570F3959FCE
:104A6000C1F3950F50E0551F629FF001729FBB2765
:104A7000F00DB11D639FAA27F00DB11DAA1F649F01
:104A80006627B00DA11D661F829F2227B00DA11DB4
:104A9000621F739FB00DA11D621F839FA00D611D3A
:104AA000221F749F3327A00D611D231F849F600D5B
:104AB000211D822F762F6A2F11249F5750409AF084
:104AC000F1F088234AF0EE0FFF1FBB1F661F771F10
:104AD000881F91505040A9F79E3F510580F00C94DB
:104AE00086250C94D1255F3FE4F3983ED4F3869558
:104AF00077956795B795F795E7959F5FC1F7FE2B7B
:104B0000880F911D9695879597F9089597F99F6756
:104B100080E870E060E008959FEF80EC0895002445
:104B20000A941616170618060906089500240A9412
:104B300012161306140605060895092E0394000C98
:104B400011F4882352F0BB0F40F4BF2B11F460FF27
:104B500004C06F5F7F4F8F4F9F4F089557FD905850
:104B6000440F551F59F05F3F71F04795880F97FB31
:104B7000991F61F09F3F79F08795089512161306EB
:104B80001406551FF2CF4695F1DF08C0161617061A
:104B90001806991FF1CF869571056105089408954F
:104BA000E894BB2766277727CB0197F90895052E50
:104BB00097FB1EF400940E94EE2557FD07D00E943B
:104BC000402607FC03D04EF40C94EE2550954095FA
:104BD000309521953F4F4F4F5F4F089590958095A9
:104BE000709561957F4F8F4F9F4F08950E94622669
:104BF000A59F900DB49F900DA49F800D911D112431
:104C00000895B7FF0C94F6250E94F625821B930B9E
:104C100008952F923F924F925F926F927F928F9260
:104C20009F92AF92BF92CF92DF92EF92FF920F933B
:104C30001F93CF93DF93CDB7DEB7CA1BDB0B0FB645
:104C4000F894DEBF0FBECDBF09942A883988488802
:104C50005F846E847D848C849B84AA84B984C88498
:104C6000DF80EE80FD800C811B81AA81B981CE0F8F
:104C7000D11D0FB6F894DEBF0FBECDBFED01089574
:104C8000A1E21A2EAA1BBB1BFD010DC0AA1FBB1F50
:104C9000EE1FFF1FA217B307E407F50720F0A21BC2
:104CA000B30BE40BF50B661F771F881F991F1A942F
:104CB00069F760957095809590959B01AC01BD0159
:104CC000CF010895A29FB001B39FC001A39F700DB3
:104CD000811D1124911DB29F700D811D1124911D04
:104CE00008955058BB27AA270E9489260C949D2519
:104CF0000E948F2538F00E94962520F039F49F3FBE
:104D000019F426F40C948C250EF4E095E7FB0C9432
:104D10008625E92F0E94AE2558F3BA17620773075C
:104D20008407950720F079F4A6F50C94D0250EF4AD
:104D3000E0950B2EBA2FA02D0B01B90190010C01AB
:104D4000CA01A0011124FF27591B99F0593F50F4C3
:104D5000503E68F11A16F040A22F232F342F44271B
:104D6000585FF3CF469537952795A795F040539513
:104D7000C9F77EF41F16BA0B620B730B840BBAF0E3
:104D80009150A1F0FF0FBB1F661F771F881FC2F74E
:104D90000EC0BA0F621F731F841F48F48795779562
:104DA0006795B795F7959E3F08F0B0CF9395880F1C
:104DB00008F09927EE0F9795879508950E948F2503
:104DC00060F080E891E009F49EEF0E94962528F0BB
:104DD00040E851E071F45EEF0CC00C948C250C940B
:104DE000D025E92FE0780E94AE2540F3092E052A50
:104DF000B1F3261737074807590738F00E2E07F882
:104E0000E02569F0E025E0640AC0EF6307F800944C
:104E100007FADB01B9019D01DC01CA01AD01EF9385
:104E20000E9467270E949D250E9421275F9155239C
:104E300039F02BED3FE049E450FD49EC0C9472262B
:104E40000895DF93DD27B92FBF7740E85FE316169B
:104E5000170648075B0718F4D92F0E9424289F9350
:104E60008F937F936F930E947228E8E6F0E00E9490
:104E7000F8270E949D252F913F914F915F910E94AD
:104E80002C25DD2351F09058A2EA2AED3FE049ECB1
:104E90005FE3D0785D270E948926DF910C949D25E1
:104EA0000E9464270C949D250E94962558F00E942C
:104EB0008F2540F029F45F3F29F00C94862551118D
:104EC0000C94D1250C948C250E94AE2568F399236F
:104ED000B1F3552391F3951B550BBB27AA276217F6
:104EE0007307840738F09F5F5F4F220F331F441F03
:104EF000AA1FA9F335D00E2E3AF0E0E832D0915037
:104F00005040E695001CCAF72BD0FE2F29D0660F23
:104F1000771F881FBB1F261737074807AB07B0E866
:104F200009F0BB0B802DBF01FF2793585F4F3AF06C
:104F30009E3F510578F00C9486250C94D1255F3F57
:104F4000E4F3983ED4F3869577956795B795F795F2
:104F50009F5FC9F7880F911D9695879597F90895DA
:104F6000E1E0660F771F881FBB1F62177307840776
:104F7000BA0720F0621B730B840BBA0BEE1F88F785
:104F8000E09508950E94C9276894B1110C94D12529
:104F900008950E94B62588F09F5798F0B92F992759
:104FA000B751B0F0E1F0660F771F881F991F1AF014
:104FB000BA95C9F714C0B13091F00E94D025B1E084
:104FC00008950C94D025672F782F8827B85F39F083
:104FD000B93FCCF3869577956795B395D9F73EF4AD
:104FE00090958095709561957F4F8F4F9F4F089555
:104FF000DF93CF931F930F93FF92EF92DF927B018A
:105000008C01689406C0DA2EEF010E942C25FE0167
:10501000E894A5912591359145915591A6F3EF011D
:105020000E948926FE019701A801DA9469F7DF90B2
:10503000EF90FF900F911F91CF91DF9108950E9403
:10504000F52408F48FEF08959B01AC0160E070E057
:1050500080E89FE30C94502719F416F40C948C25E7
:105060000C9476280E94B625B8F39923C9F3B6F3B9
:105070009F57550B87FF0E9484280024A0E640EA32
:10508000900180585695979528F4805C660F771F9D
:10509000881F20F026173707480730F4621B730B70
:1050A000840B202931294A2BA69517940794202593
:1050B00031254A2758F7660F771F881F20F02617DB
:1050C0003707480730F4620B730B840B200D311D3A
:1050D000411DA09581F7B901842F9158880F9695AD
:1050E000879508959B01AC010C9419259F3F31F0E1
:1050F000915020F4879577956795B795880F911D06
:105100009695879597F9089591505040660F771FAF
:10511000881FD2F70895991B79E004C0991F96174C
:1051200008F0961B881F7A95C9F780950895EE0FB1
:10513000FF1F0590F491E02D0994CF93DF93823007
:10514000910510F482E090E0E0910004F0910104F8
:1051500020E030E0C0E0D0E0309711F14081518193
:1051600048175907C0F04817590761F482819381A5
:10517000209719F09B838A832BC09093010480931E
:10518000000426C02115310519F04217530718F401
:105190009A01BE01DF01EF010280F381E02DDCCF37
:1051A0002115310509F1281B390B2430310590F404
:1051B00012968D919C9113976115710521F0FB0159
:1051C0009383828304C09093010480930004FD01C3
:1051D000329644C0FD01E20FF31F81939193225058
:1051E00031092D933C933AC02091FE033091FF0387
:1051F000232B41F420911201309113013093FF03CE
:105200002093FE03209110013091110121153105E9
:1052100041F42DB73EB74091140150911501241B64
:10522000350BE091FE03F091FF03E217F307A0F4C2
:105230002E1B3F0B2817390778F0AC014E5F5F4FEC
:105240002417350748F04E0F5F1F5093FF0340931C
:10525000FE038193919302C0E0E0F0E0CF01DF9183
:10526000CF9108950F931F93CF93DF93009709F485
:105270008CC0FC01329713821282009100041091BD
:1052800001040115110581F420813181820F931FE2
:105290002091FE033091FF032817390779F5F09329
:1052A000FF03E093FE0371C0D80140E050E0AE1769
:1052B000BF0750F412962D913C911397AD01211523
:1052C000310509F1D901F3CF9D01DA01338322833E
:1052D00060817181860F971F8217930769F4EC0133
:1052E00028813981260F371F2E5F3F4F318320835E
:1052F0008A819B8193838283452B29F4F093010457
:10530000E093000442C01396FC93EE931297ED01D4
:10531000499159919E01240F351FE217F30771F44B
:1053200080819181840F951F029611969C938E9394
:105330008281938113969C938E931297E0E0F0E024
:10534000D80112968D919C911397009719F0F8014E
:105350008C01F6CF8D919C9198012E5F3F4F820F6B
:10536000931F2091FE033091FF032817390769F43A
:10537000309729F4109201041092000402C01382A5
:1053800012821093FF030093FE03DF91CF911F91D0
:105390000F910895A0E0B0E0E0EDF9E20C940D2645
:1053A000EC01009721F4CB010E949D28B8C0FC01BC
:1053B000E60FF71F9C0122503109E217F30708F4AA
:1053C000ACC0D9010D911C91119706171707B0F0C9
:1053D0000530110508F49FC0C80104978617970788
:1053E00008F499C002501109061B170B0193119381
:1053F0006D937C93CF010E9432298DC05B01A01A6E
:10540000B10A4C01800E911EA0910004B0910104DC
:1054100040E050E0E12CF12C109709F44AC0A815A7
:10542000B905D1F56D907C901197630182E0C80EAB
:10543000D11CCA14DB0480F1A3014A195B096A017B
:1054400082E0C80ED11C1296BC9012971396AC91B4
:10545000B5E0CB16D10440F0B282A38351834083E0
:10546000D9016D937C930AC00E5F1F4FC301800F5B
:10547000911FF90191838083EB2DFA2FE114F10440
:1054800031F0D7011396FC93EE93129744C0F0933A
:105490000104E09300043FC08D919C91119748173F
:1054A000590708F4AC017D0112960D90BC91A02D16
:1054B000B3CF8091FE039091FF0388159905E1F425
:1054C00046175707C8F48091100190911101009779
:1054D00041F48DB79EB74091140150911501841B82
:1054E000950BE817F907C8F4F093FF03E093FE0368
:1054F000F901718360830FC0CB010E949D287C015C
:10550000009759F0A801BE010E94A62ACE010E9470
:105510003229C70104C0CE0102C080E090E0CDB7BF
:10552000DEB7EEE00C94292681E090E0F8940C942C
:10553000B62AFB01DC0104C08D910190801921F491
:1055400041505040C8F7881B990B0895FB01DC01BE
:1055500002C001900D9241505040D8F70895FB01D0
:10556000DC0101900D920020E1F70895F894FFCF3F
:10557000020602060000B4420000B0400000E04015
:10558000000002048000E803000000006A05480FE4
:10559000330511052505B10500000000C606960675
:1055A00003068206730672065374617274656400A2
:0255B0002000D9
:00000001FF
