:100000000C9464050C940F090C94E8080C948C056E
:100010000C948C050C948C050C948C050C948C051C
:100020000C948C050C948C050C948C050C94AE0BE4
:100030000C948C050C948C050C948C050C948C05FC
:100040000C949E080C948C050C949E070C947807D5
:100050000C948C050C948C050C948C050C948C05DC
:100060000C946F0C0C948C05084AD73B3BCE016E68
:1000700084BCBFFDC12F3D6C74319ABD56833DDAFF
:100080003D00C77F11BED9E4BB4C3E916BAAAABE0E
:10009000000000803F0000407A10F35A00A0724E2A
:1000A00018090010A5D4E80000E87648170000E41D
:1000B0000B54020000CA9A3B000000E1F505000065
:1000C00080969800000040420F000000A0860100CA
:1000D0000000102700000000E8030000000064009A
:1000E000000000000A000000000001000000000005
:1000F0002C76D888DC674F0823DFC1DFAE59E1B129
:10010000B796E5E3E453C63AE651997696E8E6C237
:100110008426EB898C9B62ED407C6FFCEFBC9C9F3E
:1001200040F2BAA56FA5F490055A2AF75C936B6C60
:10013000F9676DC11BFCE0E40D47FEF520E6B50054
:10014000D0ED902E0300943577050080841E0800C2
:1001500000204E0A000000C80C333333330F986E72
:1001600012831141EF8D2114893BE65516CFFEE62F
:10017000DB18D1844B381BF77C1D901DA4BBE424F5
:10018000203284725E228100C9F124ECA1E53D2772
:1001900001B202FFFF0190040923A135016A0206A2
:1001A0000001600800000000000000000060044042
:1001B0000000000162020000006004004000000333
:1001C0007B034CCD6C03AB0336567600680402CB40
:1001D00047A202180400058BC1010C0400000000B6
:1001E000037F060CC92C9797970389032646660060
:1001F0006C022000024004000000000244040000E1
:10020000000002480400000000024C04000000004E
:1002100002500400000000025404000000000258D4
:100220000400000000025C040000000002BC0400A6
:1002300000000001EC0400004000037F060CC92C04
:100240009797970402030D355D040904872D353D0A
:1002500000A3010000000001078601FE074105F12F
:1002600020283038077E01300746019A074704F1FD
:10027000283038076C04F12830380216020001FBE0
:1002800000003E000B0036000100020003000000E9
:10029000650054FFEF0000FA80000B12820001009D
:1002A000020000000000000000000000000000004C
:1002B000280000FFFF4581FFFFFA720000000000E8
:1002C0000003E80000000100017FFFFFFE80010045
:1002D0001B00000000000000000000000000000003
:1002E0003E03304000000002CAE3093E80000020C7
:1002F000000000000000004000000060000000411D
:10030000FF000000000B2A0000165500002182FDAE
:10031000872650FD800000001F00000005800000BF
:100320000000000001000000020000000300004087
:100330000000000000046F0002653200005EC04053
:10034000000000000000000000000000000000FBB2
:100350008C6F5DFD5D08D9007C733B006C12CC3264
:1003600000139D3200D0D632000800400001F4FF97
:10037000E68079020000000000D0D600002710FBC4
:10038000000000400000000000000000000000002D
:10039000000001000000000000010001000000005A
:1003A00000FA36FFBC308E0005FBF0FFD95BC8FFBA
:1003B000D09ABE000010A9FFF41EB200CEBBF70019
:1003C00000000100000004000200020200000CFF17
:1003D000C280000001800000CF80004000000000CB
:1003E00000000100000000000006000000001400F2
:1003F00000000000000000000000000000000000FD
:1004000000000000000000000000000000000000EC
:1004100000000000000000000000000000000000DC
:10042000000000033F68B6793528BCC67ED16C80D9
:10043000000000400000000000B26A000000000060
:100440000000000000000000003FF000000030004D
:10045000000000000000000000000000000000009C
:10046000000000000000000000000000000000008C
:1004700000254D002F706D000005AE000C02D0006D
:1004800000000000650054FFEF00000000000000C5
:100490000001000044000000000C0000000100000A
:1004A0000000000065000000540000FFEF000000A5
:1004B00000000000000000000000000000000040FC
:1004C00000000000000000000000000000000040EC
:1004D000000000000000000000000000000000001C
:1004E0000000010000000200000000000000000009
:1004F00000000000000000000000000000000000FC
:1005000000000000000000000000000000000000EB
:100510001B000000000000000000000000000000C0
:1005200000000000000000000000000000000000CB
:10053000000000000000000000000040000000007B
:100540001B00000000000000000000000000000090
:10055000000000000000000000000000000000009B
:10056000000000000000000000000000000000008B
:10057000000000000000000000000000000000D8A3
:10058000DCBAA2F1DEB2B8B4A88191F74A907F91AB
:100590006AF3F9DBA8F9B0BAA080F2CE81F3C2F118
:1005A000C1F2C3F3CCA2B280F1C6D880BAA7DFDF14
:1005B000DFF2A7C3CBC5B6F087A2942448703C9560
:1005C000406834589B78A2F183922D557DD8B1B400
:1005D000B8A1D09180F270F370F27C80A8F101B0E4
:1005E0009887D943D886C988BAA1F20EB89780F106
:1005F000A9DFDFDFAADFDFDFF2AAC5CDC7A90CC9FB
:100600002C97979797F1A989264666B0B4BA80AC23
:10061000DEF2CAF1B28C02A9B69800890E161EB895
:10062000A9B4992C547CB08AA896365676F1B9AF05
:10063000B4B083C0B8A89711B18F98B9AFF02408AF
:1006400044106418F1A329557DAF83B593AFF00032
:100650002850F1A3869F61A6DADEDFD9FAA3869639
:10066000DB31A6D9F8DFBAA68FC2C5C7B28CC1B834
:10067000A2DFDFDFA3DFDFDFD8D8F1B8A8B286B40E
:10068000980D355DB8AA98B0872D353DB2B6BAAF92
:100690008C96198F9FA70E161EB49AB8AA872C5451
:1006A0007CB9A3DEDFDFA3B180F2C4CDC9F1B8A964
:1006B000B499830D355D89B9A32D557DB593A30EEE
:1006C000161EA92C547CB8B4B0F19783A81184A548
:1006D0000998A383F0DA240844106418D8F1A529F6
:1006E000557DA58595021A2E3A565A4048F9F3A32E
:1006F000D9F8F098832408441064189782A8F1115F
:10070000F098A2240844106418DAF3DED883A59484
:1007100001D9A302F1A2C3C5C7D8F18492A24DDAD0
:100720002AD84869D92AD86855DA32D85071D932CE
:10073000D8705DDA3AD85879D93AD87893A34DDA97
:100740002AD84869D92AD86855DA32D85071D932AE
:10075000D8705DDA3AD85879D93AD878A88A9AF018
:100760002850789EF38818F19F1D98A8D908D8C8FA
:100770009F129EF315A8DA1210D8F1AFC8978734EC
:10078000B5B994A421F3D922D8F22DF3D92AD8F2FD
:1007900035F3D932D881A4606061D961D86C6869B9
:1007A000D969D8747071D971D8B1A384193D5DA38A
:1007B000831A3E5E931030811011B8B0AF8F94F25F
:1007C000DA3ED8B49AA88729DAF8D8879A35DAF8C1
:1007D000D8879A3DDAF8D8B1B9A49885022E56A5E3
:1007E00081000C14A397B08AF12DD928D84DD9488F
:1007F000D86DD968D8B1840DDA0ED8A32983DA2C44
:100800000ED8A3844983DA2C4C0ED8B8B0A88A9AA3
:10081000F520AADADFD8A840AAD0DADED8A860AAE4
:10082000DAD0DFD8F19786A8319B069907AB9728D5
:10083000889BF00C201440B8B0B4A88C9CF004281D
:1008400051791D301438B282ABD0982C5050787842
:100850009BF11AB0F08A9CA82951798B2951798A89
:100860002470598B2058718A4469388B3940688AC2
:100870006448318B304960A588200971584468115B
:100880003964493019F1AC002C547CF08CA8042850
:100890005078F1889726A85998AC8C02264666F0C5
:1008A000899CA8295179247059446938644831A930
:1008B0008809205970AB11384069A8193148608CFB
:1008C000A83C415C207C00F187981986A86E767E52
:1008D000A999882D557D9EB9A38A228A6E8A568A47
:1008E0005E9FB183062646660E2E4E6E9DB8AD0005
:1008F0002C547CF2B18CB499B9A32D557D8191AC67
:1009000038AD3AB58391AC2DD928D84DD948D86D9A
:10091000D968D88C9DAE29D904AED851D904AED8A7
:1009200079D904D881F39DAD008DAE1981ADD9017F
:10093000D8F2AEDA26D88E912983A7D9ADADADAD68
:10094000F32AD8D8F1B0AC89913E5E76F3AC2E2E66
:10095000F1B18C5A9CAC2C2828289CAC3018A89853
:100960008128343C9724A728343C9C24F2B089ACDD
:10097000912C4C6C8A9B2DD9D8D851D9D8D879D9FB
:10098000D8D8F19E88A331DAD8D8912DD928D84D5E
:10099000D948D86DD968D8B18393353D8025DAD848
:1009A000D88569DAD8D8B49381A328343CF3AB8BCB
:1009B000F8A391B609B4D9ABDEFAB0879CB9A3DD30
:1009C000F1A3A3A3A395F1A3A3A39DF1A3A3A3A321
:1009D000F2A3B49080F2A3A3A3A3A3A3A3A3A3A36E
:1009E000B2A3A3A3A3A3A3B087B599F1A3A3A3988C
:1009F000F1A3A3A3A397A3A3A3A3F39BA3A3DCB9EE
:100A0000A7F1262626D8D8FF444D5020496E697498
:100A100069616C697A6174696F6E206661696C6581
:100A2000642028636F646520004D505536303530A2
:100A300020636F6E6E656374696F6E206661696CAA
:100A40006564004D50553630353020636F6E6E65ED
:100A50006374696F6E207375636365737366756C19
:100A600000496E697469616C697A696E6720444DEA
:100A7000502E2E2E0000000000240027002A000027
:100A8000000000250028002B0004040404040404D2
:100A9000040202020202020303030303030102042D
:100AA00008102040800102040810200102040810F0
:100AB00020000000080002010000030407000000FD
:100AC000000000000000EA2511241FBECFEFD8E08F
:100AD000DEBFCDBF11E0A0E0B1E0EAE9FEE502C073
:100AE00005900D92A634B107D9F724E0A6E4B1E051
:100AF00001C01D92A630B207E1F715E0C4E6D5E0CB
:100B000004C02197FE010E942C2DC336D107C9F7DE
:100B10000E94C1120C944B2F0C940000FC01918D8B
:100B2000828D981761F0828DDF01A80FB11D5D964F
:100B30008C91928D9F5F9F73928F90E008958FEFBD
:100B40009FEF0895FC01918D828D981731F0828D71
:100B5000E80FF11D858D90E008958FEF9FEF0895C8
:100B6000FC01918D228D892F90E0805C9F4F821B2C
:100B700091098F739927089580E093E00E94B00552
:100B800021E0892B09F420E0822F0895FC01848D57
:100B9000DF01A80FB11DA35ABF4F2C91848D90E0A7
:100BA00001968F739927848FA689B7892C93A08982
:100BB000B1898C9180648C93938D848D981306C039
:100BC0000288F389E02D80818F7D80830895EF92E4
:100BD000FF920F931F93CF93DF93EC0181E0888FF7
:100BE0009B8D8C8D981305C0E889F989808185FDDE
:100BF00024C0F62E0B8D10E00F5F1F4F0F731127CF
:100C0000E02E8C8DE8120CC00FB607FCFACFE889F5
:100C1000F989808185FFF5CFCE010E94C605F1CF0D
:100C20008B8DFE01E80FF11DE35AFF4FF0820B8F11
:100C3000EA89FB898081806207C0EE89FF89608331
:100C4000E889F98980818064808381E090E0DF9188
:100C5000CF911F910F91FF90EF900895CF93DF9365
:100C6000EC01888D8823C9F0EA89FB89808185FDA4
:100C700005C0A889B9898C9186FD0FC00FB607FC05
:100C8000F5CF808185FFF2CFA889B9898C9185FF46
:100C9000EDCFCE010E94C605E7CFDF91CF91089539
:100CA00080E090E0892B29F00E94BC0581110C9412
:100CB000000008953FB7F8948091B1029091B2027C
:100CC000A091B302B091B40226B5A89B05C02F3FF6
:100CD00019F00196A11DB11D3FBFBA2FA92F982F62
:100CE0008827820F911DA11DB11DBC01CD0142E0DD
:100CF000660F771F881F991F4A95D1F708950895A9
:100D00008091460190E020914701821B910908954E
:100D1000FC0190819C3080F5818128E830E0281B1F
:100D2000310987FD3395220F331F220F331F6217BE
:100D300073077CF0828128E532E0281B310987FDAA
:100D40003395220F331F220F331F621773070CF4E2
:100D50009B0122503109220F331F4FB7F894892F7E
:100D600090E0FC01EE0FFF1F8E0F9F1FFC01E85962
:100D7000FD4F328321834FBF089585ED8093BC00E2
:100D80008091BC0084FDFCCF1092DB02089540915D
:100D90004102262F30E0240F311D21323105DCF4D1
:100DA0002091DB022430C9F4FC0180E090E086173A
:100DB00058F4309141022191DC01A15EBD4FA30F97
:100DC000B11D2C930196F3CF80914102680F60937F
:100DD000410280E0089581E0089582E00895089539
:100DE000E091470180914601E81730F4F0E0E457C4
:100DF000FD4F808190E008958FEF9FEF08959091CF
:100E0000470180914601981750F4E92FF0E0E4572C
:100E1000FD4F208130E09F5F9093470102C02FEF8C
:100E20003FEFC9010895CF92DF92EF92FF920F93A7
:100E30001F93CF93DF937C01262F972F8A018091F8
:100E4000DC02882391F0C62FD72F6E01C40ED51E69
:100E5000CC15DD0571F06991D701ED91FC91019000
:100E6000F081E02DC7010995F3CF642F822F0E94F6
:100E7000C706C801DF91CF911F910F91FF90EF90AE
:100E8000DF90CF900895CF93DF931F92CDB7DEB759
:100E900069832091DC022223D1F02091FF022032CD
:100EA00040F021E030E0FC013383228380E090E0D9
:100EB00015C08091DD02E82FF0E0E252FD4F9981EC
:100EC00090838F5F8093DD028093FF0205C061E015
:100ED000CE0101960E94C70681E090E00F90DF915D
:100EE000CF91089581E08093480108950E94292FB1
:100EF0001F920F920FB60F9211242F933F934F938F
:100F00005F936F937F938F939F93AF93BF93EF9371
:100F1000FF9380E093E00E94C605FF91EF91BF919F
:100F2000AF919F918F917F916F915F914F913F9181
:100F30002F910F900FBE0F901F9018951F920F9238
:100F40000FB60F9211242F938F939F93EF93FF93DC
:100F5000E0911003F09111038081E0911603F0916C
:100F6000170382FD12C09081809119038F5F8F73E8
:100F700020911A03821751F0E0911903F0E0E0503C
:100F8000FD4F958F8093190301C08081FF91EF91F0
:100F90009F918F912F910F900FBE0F901F901895DA
:100FA00090E0FC01EF54F54F3491FC01E356F54F0E
:100FB0002491FC01E757F54FE491EE2309F43BC07F
:100FC000332339F1333091F038F43130A9F0323035
:100FD00001F584B58F7D12C0373091F03830A1F023
:100FE0003430B9F4809180008F7D03C080918000FF
:100FF0008F77809380000DC084B58F7784BD09C042
:101000008091B0008F7703C08091B0008F7D809376
:10101000B000F0E0EE0FFF1FE158F54FA591B4913D
:101020008FB7F894EC91611103C020952E2301C075
:101030002E2B2C938FBF0895CF93DF9390E0FC016C
:10104000E356F54F2491FC01E757F54F849188232F
:1010500061F190E0880F991FFC01EB58F54FC591A5
:10106000D491FC01E158F54FA591B491611109C0EB
:101070009FB7F8948881209582238883EC912E2352
:101080000BC0623061F49FB7F8943881822F80954D
:1010900083238883EC912E2B2C939FBF06C08FB7A0
:1010A000F894E8812E2B28838FBFDF91CF9108958C
:1010B0008F929F92AF92BF92CF92DF92EF92FF9268
:1010C0006B017C010E945A064B015C01C114D104E2
:1010D000E104F104F1F00E945A06DC01CB01881909
:1010E0009909AA09BB09883E9340A105B10570F38F
:1010F00021E0C21AD108E108F10888EE880E83E0E9
:10110000981EA11CB11CC114D104E104F10419F70B
:10111000DDCFFF90EF90DF90CF90BF90AF909F908A
:101120008F9008952FB7F8946091AD027091AE0240
:101130008091AF029091B0022FBF08951F920F923D
:101140000FB60F9211242F933F938F939F93AF93DA
:10115000BF938091AD029091AE02A091AF02B09189
:10116000B0023091AC0223E0230F2D3720F401961A
:10117000A11DB11D05C026E8230F0296A11DB11DBA
:101180002093AC028093AD029093AE02A093AF0285
:10119000B093B0028091B1029091B202A091B302DB
:1011A000B091B4020196A11DB11D8093B10290933C
:1011B000B202A093B302B093B402BF91AF919F91DA
:1011C0008F913F912F910F900FBE0F901F90189508
:1011D0001F920F920FB60F9211242F933F934F93AC
:1011E0005F936F937F938F939F93AF93BF93EF938F
:1011F000FF93E0910201F09103010995FF91EF91B6
:10120000BF91AF919F918F917F916F915F914F911E
:101210003F912F910F900FBE0F901F9018951F9226
:101220000F920FB60F9211242F933F934F935F931A
:101230006F937F938F939F93AF93BF93EF93FF939E
:10124000E0910001F09101010995FF91EF91BF91AB
:10125000AF919F918F917F916F915F914F913F914E
:101260002F910F900FBE0F901F901895EF92FF9245
:101270000F931F93CF93DF9300D0CDB7DEB7142F1A
:1012800091E09093DC028093FE021092DD021092B6
:10129000FF028DE993E029833A830E944307298165
:1012A000022FE22E3A81F32E8E2D801B811740F4FF
:1012B000F70161917F018DE993E00E944307F4CF2C
:1012C0000E94BA1091E0811190E0892F0F900F9049
:1012D000DF91CF911F910F91FF90EF9008951F9391
:1012E000CF93DF9300D0CDB7DEB75A83498391E027
:1012F0009093DC028093FE021092DD021092FF02B6
:101300008DE993E00E94430719816A818DE993E09A
:101310000E944307612F8DE993E00E9443070E94DA
:10132000BA1091E0811190E0892F0F900F90DF911A
:10133000CF911F910895CF93DF931F92CDB7DEB762
:1013400049839E012F5F3F4F41E00E9436090F9075
:10135000DF91CF9108952F923F924F925F926F92BB
:101360007F928F929F92AF92BF92CF92DF92EF9235
:10137000FF920F931F93CF93DF93CDB7DEB72797DD
:101380000FB6F894DEBF0FBECDBFE82E6B834F8340
:1013900069010E9492084B015C016E2C660CF12CD5
:1013A0001E82772473945F81452F50E05D834C83C8
:1013B0001801412C512C4F81F41608F099C07092FD
:1013C000DC02E092FE021092DD021092FF026B81BD
:1013D0008DE993E00E9443070E94BA107092DC02EC
:1013E000E092FE021092DD021092FF028091DB0279
:1013F0008111FCCF2C813D812F193109213231051A
:1014000014F020E230E0213208F020E27092DB029A
:101410007092DA028FEF8093D9021092D802820F75
:101420008093D7027092B6028091B602862980938B
:10143000B6028091B502813071F41092B5028091AC
:10144000B6028093BB008091BC0083FDF8CF95EC81
:101450009093BC0003C0E5EEE093BC008091DB02FA
:101460008130E1F38091D802821710F42091D802E4
:10147000A7EBB2E0ECE8F2E08E2F4CE852E0841BE0
:10148000821718F48D918193F7CF10924701209322
:1014900046019091460180914701981719F1011575
:1014A000110599F4A6012E81420F511D27FD5A9571
:1014B0005A8349838DE993E00E94FF06E981FA810E
:1014C00080832E812F5F2E83E4CF0E949208DC015F
:1014D000CB0188199909AA09BB0982159305A405AE
:1014E000B50500F38F81813208F080E2F80E63CFFA
:1014F000FE8001151105D9F00E949208DC01CB0194
:1015000088199909AA09BB0920E030E080179107E2
:10151000A207B30760F05F81252F30E08F2D0F2CDD
:10152000000C990B8217930714F4FF24FA948F2D63
:1015300027960FB6F894DEBF0FBECDBFDF91CF91D7
:101540001F910F91FF90EF90DF90CF90BF90AF90E1
:101550009F908F907F906F905F904F903F902F90D3
:101560000895BF92CF92DF92EF92FF920F931F9355
:10157000CF93DF931F92CDB7DEB7F82EE62EC42EA1
:10158000B22ED02E08EE13E09E012F5F3F4F41E0B8
:101590000E94AB09882321F1EC2DF0E0EB19F10951
:1015A000319621E030E002C0220F331FBA94E2F7F7
:1015B000215031090E2E01C0220F0A94EAF78D2D19
:1015C00001C0880FEA95EAF7422F40959981492397
:1015D0002823422B49836E2D8F2D0E949B0901C029
:1015E00080E00F90DF91CF911F910F91FF90EF90CE
:1015F000DF90CF90BF900895CF92DF92EF92FF924D
:101600000F931F93CF93DF931F92CDB7DEB7F82EC2
:10161000E62ED42EC22E08EE13E09E012F5F3F4F20
:1016200041E00E94AB099981CC2041F041E050E0BB
:1016300001C0440FDA94EAF7492B09C021E030E0F9
:10164000A90101C0440FDA94EAF740954923498380
:101650006E2D8F2D0E949B090F90DF91CF911F91CE
:101660000F91FF90EF90DF90CF9008951F93CF934D
:10167000DF93EC01162F88818C3008F04EC061E0BA
:10168000812F0E941C088881E82FF0E09F01220F23
:10169000331FE20FF31FE859FD4F1F739081907CB9
:1016A000192B108319821A826CE00E94202D9CE075
:1016B000899FB001112440E050E09A01260F371FA6
:1016C000F901EE0FFF1F2E0F3F1FF901E859FD4FE3
:1016D000908196FD16C04F5F5F4F4C30510569F702
:1016E00081110FC01092800082E0809381001092DF
:1016F000850010928400B19A80916F00826080937F
:101700006F00E881F0E0CF01880F991FE80FF91F03
:10171000E859FD4F8081806480838881DF91CF917B
:101720001F910895FC01909167029C30A0F481E024
:10173000890F809367029083892F90E0FC01EE0F60
:10174000FF1F8E0F9F1FFC01E859FD4F88EB9BE0A8
:101750009283818308958FEF808308951F920F9263
:101760000FB60F9211242F933F934F935F936F9374
:101770007F938F939F93AF93BF93EF93FF9380914A
:10178000660287FF05C010928500109284001BC07E
:1017900020916602022E000C330B8091670290E0CC
:1017A0002817390784F480916602082E000C990BE3
:1017B000FC01EE0FFF1F8E0F9F1FFC01E859FD4F2C
:1017C000808186FD15C0809166028F5F80936602DE
:1017D00020916602022E000C330B8091670290E08C
:1017E00028173907C4F4809166028C3064F113C065
:1017F00080916602082E000C990BFC01EE0FFF1F72
:101800008E0F9F1FFC01E859FD4F808160E08F73B0
:101810000E94D007D8CF80918400909185000496D3
:1018200080349C4918F480E49CE905C080918400D0
:1018300090918500049690938900809388008FEFA3
:10184000809366023BC02091840030918500809196
:101850006602082E000C990BFC01EE0FFF1F8E0F85
:101860009F1FFC01E859FD4F81819281820F931FD8
:10187000909389008093880080916602082E000C66
:10188000990BFC01EE0FFF1F8E0F9F1FFC01E85903
:10189000FD4F808186FF12C080916602082E000CE9
:1018A000990BFC01EE0FFF1F8E0F9F1FFC01E859E3
:1018B000FD4F808161E08F730E94D007FF91EF910F
:1018C000BF91AF919F918F917F916F915F914F9158
:1018D0003F912F910F900FBE0F901F9018951F9260
:1018E0000F920FB60F9211242F933F934F935F9354
:1018F0006F937F938F939F93AF93BF93EF93FF93D8
:101900008091B900887F803609F49CC068F58832E0
:1019100009F45BC090F4803109F454C038F4882392
:1019200009F4F6C0883009F44DC0F6C0883109F4D6
:101930004CC0803209F45DC0EFC0803409F468C047
:1019400048F4803309F455C0883309F0E5C080932A
:10195000D902D8C0803509F44FC0883509F45DC07C
:10196000883409F0D9C0D6C0883909F4C7C0A8F4B2
:10197000883709F467C038F4883609F463C08037C3
:1019800009F460C0C9C0883809F4B8C0803909F4C6
:101990005FC0803809F0C0C05BC0803B09F486C0DE
:1019A00038F4803A09F466C0883A09F47FC0B4C0BC
:1019B000803C09F4A7C0883C09F4A4C0883B09F422
:1019C0008AC0AAC08091B60210C09091D8028091BE
:1019D000D702981770F5E091D80281E08E0F8093BE
:1019E000D802F0E0E954FD4F80818093BB0085EC84
:1019F00086C08093D9028EC0E091D80281E08E0F1C
:101A00008093D8028091BB00F0E0E954FD4F8083C1
:101A10009091D8028091D7026EC0E091D80281E007
:101A20008E0F8093D8028091BB00F0E0E954FD4F07
:101A300080838091DA0281116DC081E08093B502CC
:101A400084EA61C083E08093DB0210926502CFCF0D
:101A500080916502803208F051C0E091650281E01A
:101A60008E0F809365028091BB00F0E0EB5BFD4F31
:101A70008083BDCF85EC8093BC001092DB02809107
:101A80006502803230F4E0916502F0E0EB5BFD4FDF
:101A900010826091650270E0E0914302F09144028F
:101AA00085E492E009951092650236C084E0809347
:101AB000DB021092420210924102E0913F02F0914B
:101AC0004002099580914102811105C081E0809317
:101AD000410210921F02E091420281E08E0F80933A
:101AE0004202F0E0E15EFD4F80818093BB00909167
:101AF000420280914102981708F479CF85E88093DB
:101B0000BC000AC085EC8093BC001092DB0204C0CC
:101B10001092D9020E94BD06FF91EF91BF91AF9143
:101B20009F918F917F916F915F914F913F912F91F5
:101B30000F900FBE0F901F901895CF92DF92EF92EB
:101B4000FF926B017C0120E030E0A9010E9438295E
:101B500087FD11C020E030E048EC52E4C701B60137
:101B60000E94A42C181654F4C12CD12C88ECE82E19
:101B700082E4F82E03C0C12CD12C7601C092490119
:101B8000D0924A01E0924B01F0924C01C701B6019C
:101B90000E94472C9B01AC01A9EBB2E00E947B2A7A
:101BA00024E630E040E050E00E945C2ACA01B9011E
:101BB00061597B4F8F4F9F4F85EB93E0FF90EF90E4
:101BC000DF90CF900C948806CF92DF92EF92FF9235
:101BD0006B017C0120E030E0A9010E94382987FDDB
:101BE00011C020E030E048EC52E4C701B6010E9489
:101BF000A42C181654F4C12CD12C88ECE82E82E4C5
:101C0000F82E03C0C12CD12C7601C0924D01D09288
:101C10004E01E0924F01F0925001C701B6010E94BF
:101C2000472C9B01AC01A9EBB2E00E947B2A24E681
:101C300030E040E050E00E945C2ACA01B9016159DD
:101C40007B4F8F4F9F4F88EB93E0FF90EF90DF909B
:101C5000CF900C948806CF92DF92EF92FF926B01A7
:101C60007C0120E030E0A9010E94382987FD11C0E5
:101C700020E030E048EC52E4C701B6010E94A42CF9
:101C8000181654F4C12CD12C88ECE82E82E4F82EDE
:101C900003C0C12CD12C7601C0925101D0925201C7
:101CA000E0925301F0925401C701B6010E94472C03
:101CB0009B01AC01A9EBB2E00E947B2A24E630E054
:101CC00040E050E00E945C2ACA01B90161597B4F93
:101CD0008F4F9F4F8BEB93E0FF90EF90DF90CF9073
:101CE0000C948806CF92DF92EF92FF926B017C01F9
:101CF00020E030E0A9010E94A42C181624F460E032
:101D000084E00E94D00720E030E048EC52E4C701B4
:101D1000B6010E94A42C18166CF020E030E0A90156
:101D2000C701B6010E94382987FF0AC0C12CD12CF7
:101D3000760106C0C12CD12C88ECE82E82E4F82E66
:101D4000C0925501D0925601E0925701F09258018D
:101D5000C701B6010E94472C9B01AC01A9EBB2E080
:101D60000E947B2A24E630E040E050E00E945C2A9A
:101D7000CA01B90161597B4F8F4F9F4F8EEB93E0A2
:101D8000FF90EF90DF90CF900C94880610928D0119
:101D900060E070E0CB010E94720E60E070E0CB0169
:101DA0000E942B0E60E070E0CB010E94E40D60E029
:101DB00070E0CB010C949D0D0F931F9310926D0159
:101DC00010926E0110926F011092700110926901D1
:101DD00010926A0110926B0110926C0110926501D1
:101DE00010926601109267011092680100918501BE
:101DF0001091860120918701309188010093610143
:101E0000109362012093630130936401409181013A
:101E100050918201609183017091840140935D0132
:101E200050935E0160935F017093600180917D012A
:101E300090917E01A0917F01B09180018093590122
:101E400090935A01A0935B01B0935C0100937901D8
:101E500010937A0120937B0130937C0140937501AC
:101E600050937601609377017093780180937101AC
:101E700090937201A0937301B09374010E94920831
:101E80006093890170938A0180938B0190938C01F8
:101E900081E080938D0160E070E0CB010E94720EC2
:101EA00060E070E0CB010E942B0E60E070E0CB019F
:101EB0000E94E40D60E070E0CB011F910F910C9443
:101EC0009D0D9C01FC0180E0AF01421B530B4617A6
:101ED00057071CF49191890FF7CF0895AF92BF92E5
:101EE000CF92DF92EF92FF920F931F93CF93DF93E6
:101EF000CDB7DEB78B01ADB6BEB66B012FEFC21A00
:101F0000D20A2DB73EB72C193D090FB6F8943EBF43
:101F10000FBE2DBF2F5F3F4F7901D901FC019F01FB
:101F2000281B390B201731071CF421912D93F7CF73
:101F3000B801C7010E94610FF701E00FF11F808314
:101F4000A601B70180E093E00E94111080E093E0C9
:101F50000E942E060FB6F894BEBE0FBEADBEDF9136
:101F6000CF911F910F91FF90EF90DF90CF90BF9096
:101F7000AF900895CF92DF92EF92FF920F931F934D
:101F8000CF93DF93CDB7DEB70DB71EB7DC01149644
:101F9000ED91FC911597BF016E5F7F4F2DB73EB756
:101FA000261B370B0FB6F8943EBF0FBE2DBFADB743
:101FB000BEB711966D0127E0ADB7BEB711962C9351
:101FC000D6011196EC93EDB6FEB6B3E0EB0EF11C24
:101FD00020E030E02E173F0791F0DC014D915C913D
:101FE0004115510529F0420F531FDA014C9101C0F0
:101FF00040E0D7014D937D012F5F3F4FEBCFC601EE
:102000000E946E0F0FB6F8941EBF0FBE0DBFDF917A
:10201000CF911F910F91FF90EF90DF90CF90089597
:102020000895CF92DF92EF92FF920F931F93CF9379
:10203000DF936C017A018B01C0E0D0E0CE15DF05A3
:1020400089F0D8016D918D01D601ED91FC9101903F
:10205000F081E02DC6010995892B11F47E0102C0A3
:102060002196ECCFC701DF91CF911F910F91FF9087
:10207000EF90DF90CF9008950F931F93CF93DF934E
:10208000EC0188819981009729F02A813B812617EC
:10209000370788F48B016F5F7F4F0E945F2E009798
:1020A00061F0998388831B830A832C813D81232BD4
:1020B00011F4FC01108281E001C080E0DF91CF913A
:1020C0001F910F9108958F929F92AF92BF92EF92BE
:1020D000FF920F931F93CF93DF938B017C01C0E09E
:1020E000D0E0C017D107D1F10E9492086093080395
:1020F0007093090380930A0390930B03E09100030C
:10210000F09101030680F781E02D80E093E00995CE
:1021100097FF1FC00E9492088090080390900903C7
:10212000A0900A03B0900B03DC01CB018819990938
:10213000AA09BB098090040390900503A0900603B0
:10214000B090070388159905AA05BB05B8F28E0162
:1021500005C0F70181937F012196C3CFC801DF91AC
:10216000CF911F910F91FF90EF90BF90AF909F90F4
:102170008F9008952091FF029091FE02213208F085
:102180004AC08091DB028111FCCF32E03093DB0248
:1021900031E03093DA023FEF3093D9021092D80247
:1021A0002093D702AEEDB2E047EB52E0FA013E2FAA
:1021B000341B321718F43D913193F9CF1092B602C7
:1021C0002091B602990F922B9093B6029091B5028E
:1021D000913061F41092B5029091B6029093BB00D9
:1021E0009091BC0093FDF8CF95EC01C095EE9093D3
:1021F000BC009091DB029230E1F39091D9029F3FB5
:1022000079F08091D902803241F08091D9028033F7
:1022100031F084E005C081E003C082E001C083E0CA
:102220001092DD021092FF021092DC0208950F93CB
:102230001F93CF93DF93CDEDD3E008EE13E02EEDA7
:1022400033E041E06AE388810E94AB098981DF9134
:10225000CF911F910F91089521E042E06AE68091AD
:10226000DD030C94FC0A482F6EE68091DD030C948C
:102270009B092F923F924F925F926F927F928F9223
:102280009F92AF92BF92CF92DF92EF92FF920F9305
:102290001F93CF93DF933C015B01342ED22F202E6E
:1022A0004F716DE68091DD030E949B098D2F0E9486
:1022B000331180E190E00E94322D6C01002339F04F
:1022C00080E190E00E94322DC82F492E02C0C0E06C
:1022D000412CE12CF12CEA14FB0408F06EC0C7017C
:1022E0004096A816B90618F45A2C5E1802C080E170
:1022F000582E852D90E020E031E02D1B3109281764
:10230000390714F45D2E5194F301EE0DFF1D2220C8
:1023100059F09C2FAC2FB42D8A2F891B851530F4D2
:1023200084918D933196F8CFCE2F4F2E2C2F342DB4
:10233000452D6FE68091DD030E943609852C912C96
:10234000C114D10429F1432D4F716DE68091DD0355
:102350000E949B098D2F0E94331108EE13E0960115
:10236000452D6FE68091DD030E94AB09A401B60103
:102370008C2F942D0E942E2F892B51F0C6010E9484
:10238000C72D222021F18C2F942D0E94C72D1FC014
:10239000E80CF91CD50DEA14FB0408F09CCFD11110
:1023A00001C03394432D4F716DE68091DD030E948F
:1023B0009B098D2F0E9433118ECFC6010E94C72D1D
:1023C000222039F08C2F942D0E94C72D02C080E06E
:1023D00001C081E0DF91CF911F910F91FF90EF90AD
:1023E000DF90CF90BF90AF909F908F907F906F9035
:1023F0005F904F903F902F9008950F931F93662307
:1024000051F0462F9C0108EE13E064E78091DD0354
:102410000E94AB0902C0FC0110821F910F91089528
:102420000F931F93CF93DF93CDEDD3E008EE13E02E
:102430002EED33E042E062E788810E94AB0989819A
:1024400090E0982F88272A81822BDF91CF911F91CE
:102450000F910895EF92FF920F931F93CF93DF9305
:102460001F92CDB7DEB77A0189019E012F5F3F4FE2
:1024700041E00E94AB09882339F029812E7730E0B2
:1024800035952795F70120830F90DF91CF911F910C
:102490000F91FF90EF900895CF93DF93EC01888127
:1024A0009981009711F00E94C72D198218821D8210
:1024B0001C821B821A82DF91CF910895EF92FF92C6
:1024C0000F931F93CF93DF93EC018B01611571057F
:1024D00051F0CB010E94C9267C01BC01CE010E94B3
:1024E0003C10811104C0CE010E944C1207C0FD8235
:1024F000EC82B801888199810E94C226CE01DF91C9
:10250000CF911F910F91FF90EF900895EF92FF925E
:102510000F931F93CF93DF93EC017B018A01BA01E4
:102520000E943C10811104C0CE010E944C1207C0D1
:102530001D830C83B701888199810E94442FCE01AD
:10254000DF91CF911F910F91FF90EF900895FC01C3
:10255000808191810C94C72DFC011182108213821D
:102560001282158214826115710551F0FB010190F0
:102570000020E9F73197AF01461B570B0C948612E8
:102580000895CF93DF93CDB7DEB7CA5ED1090FB6FA
:10259000F894DEBF0FBECDBF789484B5826084BD51
:1025A00084B5816084BD85B5826085BD85B5816057
:1025B00085BD80916E00816080936E0010928100D5
:1025C0008091810082608093810080918100816090
:1025D0008093810080918000816080938000809151
:1025E000B10084608093B1008091B00081608093DD
:1025F000B00080917A00846080937A0080917A00A4
:10260000826080937A0080917A00816080937A0062
:1026100080917A00806880937A001092C10068EE01
:1026200073E080E090E00E945808E0911003F09180
:10263000110382E08083E0910C03F0910D0310827E
:10264000E0910E03F0910F0380E180831092180354
:10265000E0911403F091150386E08083E09112036A
:10266000F0911303808180618083E0911203F091E7
:102670001303808188608083E0911203F09113033B
:10268000808180688083E0911203F0911303808140
:102690008F7D80831092040310920503109206032D
:1026A0001092070368E371E0CE0101960E94AC121C
:1026B000CE0101960E94BA0FCE0101960E94A71288
:1026C00061E087E00E941C0861E087E00E94D0077B
:1026D00066E070E08EEB93E00E94360B64E070E001
:1026E00088EB93E00E94360B60E070E0CB010E9423
:1026F000720E60E070E0CB010E942B0E60E070E093
:10270000CB010E94E40D60E070E0CB010E949D0DC2
:1027100068EE73E080E090E00E9458080E94920802
:1027200060931B0270931C0280931D0290931E0203
:102730000E9492086093F7017093F8018093F90169
:102740009093FA0110924701109246011092DD0217
:102750001092FF021092DB0281E08093DA02109265
:10276000B50261E082E10E94D00761E083E10E944E
:10277000D0078091B9008E7F8093B9008091B90015
:102780008D7F8093B90088E48093B80085E48093BE
:10279000BC008CE08093B80001E023E042E06BE6EF
:1027A0008091DD030E94B10A00E022E044E06BE189
:1027B0008091DD030E94B10A22E044E06CE1809147
:1027C000DD030E94B10A20E046E06BE68091DD0364
:1027D0000E94FC0A60E082E00E941C0828EE33E0C0
:1027E0004EED53E065E78091DD030E942A1280914F
:1027F000DE03843319F069E27AE002C063E47AE030
:102800001A8219821C821B821E821D82CE010196B1
:102810000E945E12CE0101960E94BA0FCE0101966F
:102820000E94A7121A8219821C821B821E821D829C
:1028300061E67AE0CE0101960E945E12CE01019619
:102840000E94BA0FCE0101960E94A71221E047E034
:102850006BE68091DD030E94FC0A6EE170E080E08F
:1028600090E00E94580820E046E06BE68091DD038E
:102870000E94FC0A40E76DE68091DD030E949B09FF
:1028800086E00E94331140E06DE68091DD030E94F6
:102890009B0928EE33E04EED53E060E08091DD03CC
:1028A0000E942A128090DE0328EE33E04EED53E0C2
:1028B00061E08091DD030E942A129090DE0328EEF1
:1028C00033E04EED53E062E08091DD030E942A1276
:1028D000A090DE034FE765E28091DD030E949B0933
:1028E00020E045E06AE68091DD030E94FC0A48E6AC
:1028F00065E28091DD030E949B0921E041E06AE6E8
:102900008091DD030E94FC0A64E170E080E090E0C9
:102910000E94580801E020E040E069E877E08FE796
:1029200092E00E943911882309F4CDC288E090E03A
:102930000E94322DB82E192FE12CF12CF701E15411
:10294000FE4F4491F701E054FE4F2491670133E0BC
:10295000C30ED11CF701EF53FE4FE491EE23D1F1EA
:10296000EE2EF12CE330D8F0B7018B2D912FC6510C
:10297000DF4F2883CA5ED040C751DF4F4883C95E0E
:10298000D0400E945F2EB82E192FC751DF4F4881CB
:10299000C95ED040C651DF4F2881CA5ED040AB2D02
:1029A000B12F80E090E08E159F0548F4F601E80F06
:1029B000F91FE154FE4FE491ED930196F4CF00E04E
:1029C000B7018B2D912F0E943911EC0CFD1C811148
:1029D00017C010C044E0E40EF11CF601E154FE4FB4
:1029E000E491E13039F442E368E38091DD030E9431
:1029F0009B0906C08B2D912F0E94C72D12E064C247
:102A000050ECE516F10408F499CF8B2D912F0E941C
:102A1000C72D03E023E042E06BE68091DD030E94D6
:102A2000B10A42E168E38091DD030E949B0944E022
:102A300069E18091DD030E949B0901E023E045E00C
:102A40006AE18091DD030E94B10A03E023E042E0E5
:102A50006AE18091DD030E94B10A22E044E06BE16B
:102A60008091DD030E94B10A43E060E78091DD03BD
:102A70000E949B0940E061E78091DD030E949B0971
:102A800020E040E060E08091DD030E94FC0A082D18
:102A900026E046E060E08091DD030E94B10A092D46
:102AA00026E046E061E08091DD030E94B10A0A2D34
:102AB00026E046E062E08091DD030E94B10AE12C4D
:102AC000F12CF701E057FE4FE491A1E8B0E0AC0F24
:102AD000BD1FAE0DB11DEC9381E08E0D9FEFE91A85
:102AE000F90AA3E0AE1568F7CD57DF4F6881C358E8
:102AF000D04070E09B012E5F3F4F90E028173907D0
:102B000004F700E0CE57DF4F2881C258D040CF579E
:102B1000DF4F4881C158D04081E890E08C0F9D1F65
:102B200003960E94391180E0F701E057FE4FE491CF
:102B3000A1E8B0E0AC0FBD1FA80FB11DEC938F5FF3
:102B4000BFEFEB1AFB0A843078F3CD57DF4F688173
:102B5000C358D04070E0AB014E5F5F4F282F30E08C
:102B6000421753070CF700E0CE57DF4F2881C258B9
:102B7000D040CF57DF4F4881C158D04081E890E026
:102B80008C0F9D1F03960E9439110E942C110E94E8
:102B90001012682FCE0101960E94FD1142E06FE1F4
:102BA0008091DD030E949B094CE961E28091DD0385
:102BB0000E949B0940E560E28091DD030E949B0931
:102BC00040E062E28091DD030E949B090E942C118B
:102BD00021E046E06AE68091DD030E94FC0A21E0E4
:102BE00047E06AE68091DD030E94FC0A21E043E0B1
:102BF0006AE68091DD030E94FC0A80E0F701E0575D
:102C0000FE4FE491A1E8B0E0AC0FBD1FA80FB11DCD
:102C1000EC938F5FEFEFEE1AFE0A843078F3CD5716
:102C2000DF4F6881C358D04070E0AB014E5F5F4F0B
:102C3000282F30E0421753070CF700E0CE57DF4F44
:102C40002881C258D040CF57DF4F4881C158D0406B
:102C500081E890E08C0F9D1F03960E94391180E05F
:102C6000F701E057FE4FE491A1E8B0E0AC0FBD1FC3
:102C7000A80FB11DEC938F5FFFEFEF1AFF0A8430AE
:102C800078F3CD57DF4F6881C358D04070E0AB0177
:102C90004E5F5F4F282F30E0421753070CF700E0DC
:102CA000CE57DF4F2881C258D040CF57DF4F4881E1
:102CB000C158D04081E890E08C0F9D1F03960E9480
:102CC000391180E0F701E057FE4FE491A1E8B0E050
:102CD000AC0FBD1FA80FB11DEC938F5F2FEFE21A51
:102CE000F20A843078F3CD57DF4F6881C358D04063
:102CF00070E0AB014E5F5F4F282F30E04217530763
:102D00000CF700E0CE57DF4F2881C258D040CF5794
:102D1000DF4F4881C158D04081E890E08C0F9D1F63
:102D200003960E9439110E94101283309105D8F346
:102D3000682FCE0101960E94FD1180E0F701E05757
:102D4000FE4FE491A1E8B0E0AC0FBD1FA80FB11D8C
:102D5000EC938F5F3FEFE31AF30A843078F3CD579B
:102D6000DF4F3880C358D040832C912CA4014E5F94
:102D70005F4F282F30E04217530704F7CE57DF4F3D
:102D8000B880C258D040CF57DF4F2880C158D040BC
:102D9000422D4F716DE68091DD030E949B098B2DC2
:102DA0000E943311C12CD12C612C7724739481E8BB
:102DB000482E512C4C0E5D1E43E0440E511CC8148D
:102DC000D90498F5C60140968816990618F4A32CE4
:102DD000AC1802C010E1A12E8A2D90E093012B19AE
:102DE00031092817390714F4AB2CA19492012C0D4A
:102DF0003D1D08EE13E04A2D6FE68091DD030E9431
:102E0000AB09CA0CD11CBA0CC814D904C0F6B11055
:102E100001C02394422D4F716DE68091DD030E9425
:102E20009B098B2D0E943311CACF0E941012833050
:102E30009105D8F3682FCE0101960E94FD11F7018C
:102E4000E057FE4F80E09491A1E8B0E0AC0FBD1FC9
:102E5000A80FB11D9C938F5F843010F43196F3CF8F
:102E6000CD57DF4F6881C358D04070E0AB014E5F53
:102E70005F4F282F30E04217530784F700E0CE570A
:102E8000DF4F2881C258D040CF57DF4F4881C1580B
:102E9000D04081E890E08C0F9D1F03960E9439116D
:102EA00020E047E06AE68091DD030E94FC0A8AE2A6
:102EB00090E09093E0038093DF030E942C110E9426
:102EC000171110E001C011E010938E0141E55FEE93
:102ED00066E08091DD030E946F0942EF59EF68E0E0
:102EE0008091DD030E946F0948E757E06AE0809116
:102EF000DD030E946F0941E55FEF63E18091DD032F
:102F00000E946F0940EC5FEF65E18091DD030E9454
:102F10006F094DEA5FEF67E18091DD030E946F0961
:102F2000111123C021E047E06AE68091DD030E9491
:102F3000FC0A82E797E09093010180930001809161
:102F40006900836080936900E89A0E94171180935A
:102F5000DF0181E08093E0018091DF039091E00345
:102F60009093DC018093DB0125C01A8219821C82B8
:102F70001B821E821D8268E07AE0CE0101960E94CB
:102F80005E12CE0101960E94BA0FCE0101960E94F8
:102F9000A71260918E0170E0615C7E4FCE010196B8
:102FA0000E94AC12CE0101960E94BA0FCE0101968A
:102FB0000E94A712CE0101961C018091E001882396
:102FC00009F49AC2109248010E941711182F809399
:102FD000DF010E9410129093DE018093DD0114FD49
:102FE00003C08115944019F40E942C1185C211FF71
:102FF00083C2E090DD01F090DE01C090DB01D09053
:10300000DC01EC14FD0438F40E9410129093DE01F0
:103010008093DD01EECF6C2D8BE991E00E94FD11D4
:10302000EC18FD08F092DE01E092DD01A0909F0116
:10303000B12CBA2CAA248091A001A82AC090A30187
:10304000D12CDC2CCC248091A401C82AE090A701CB
:10305000F12CFE2CEE248091A801E82A60919B01BE
:1030600070E0762F662780919C01682B072E000C5C
:10307000880B990B0E943F2920E030E040E858E39C
:103080000E949E292B013C016093CD037093CE03D7
:103090008093CF039093D003B501BB0C880B990BA1
:1030A0000E943F2920E030E040E858E30E949E293A
:1030B0004B015C016093D1037093D2038093D303DF
:1030C0009093D403B601DD0C880B990B0E943F2925
:1030D00020E030E040E858E30E949E29C355DF4FCE
:1030E000688379838A839B83CD5AD0406093D503CC
:1030F0007093D6038093D7039093D803B701FF0C46
:10310000880B990B0E943F2920E030E040E858E30B
:103110000E949E29CF54DF4F688379838A839B83E3
:10312000C15BD0406093D9037093DA038093DB03D3
:103130009093DC039B01AC01C501B4010E949E2960
:103140006B017C01C355DF4F288139814A815B8146
:10315000CD5AD040C301B2010E949E299B01AC010F
:10316000C701B6010E94F62A9B01AC010E94F72A12
:10317000CB54DF4F688379838A839B83C55BD040C0
:103180006093C1037093C2038093C3039093C403FD
:10319000A5019401C301B2010E949E296B017C012B
:1031A000CF54DF4F288139814A815B81C15BD04098
:1031B000C355DF4F688179818A819B81CD5AD04088
:1031C0000E949E299B01AC01C701B6010E94F72A0B
:1031D0009B01AC010E94F72AC754DF4F68837983B3
:1031E0008A839B83C95BD0406093C5037093C603F9
:1031F0008093C7039093C803A3019201C301B20156
:103200000E949E296B017C01A5019401C501B401B6
:103210000E949E299B01AC01C701B6010E94F62ABB
:103220006B017C01C355DF4F288139814A815B8165
:10323000CD5AD040CA01B9010E949E299B01AC0120
:10324000C701B6010E94F62A6B017C01CF54DF4F03
:10325000288139814A815B81C15BD040CA01B901B3
:103260000E949E299B01AC01C701B6010E94F72A6A
:103270006B017C016093C9037093CA038093CB03F5
:103280009093CC03A3019201C301B2010E94F72ADB
:10329000C354DF4F688379838A839B83CD5BD0409F
:1032A000A5019401C501B4010E94F72ACF53DF4F55
:1032B000688379838A839B83C15CD040A301920198
:1032C000C354DF4F688179818A819B81CD5BD04077
:1032D0000E949E292B013C01A5019401CF53DF4F91
:1032E000688179818A819B81C15CD0400E949E293E
:1032F0009B01AC01C301B2010E94F72A20E030E03B
:1033000040E85FE30E94F62A2B013C01C355DF4FE2
:10331000288139814A815B81CD5AD040CF53DF4F1C
:10332000688179818A819B81C15CD0400E949E29FD
:103330004B015C01CF54DF4F288139814A815B8189
:10334000C15BD040C354DF4F688179818A819B8102
:10335000CD5BD0400E949E299B01AC01C501B40108
:103360000E94F62AA30192010E94762B4B015C0178
:1033700060938F01709390018093910190939201DB
:10338000A7019601C701B6010E949E292B013C01AD
:10339000C754DF4F288139814A815B81C95BD040A6
:1033A000CA01B9010E949E29A30192010E94F72A35
:1033B0000E94B72C9B01AC01CB54DF4F688179810F
:1033C0008A819B81C55BD0400E94D52B0E94A62B91
:1033D0006B017C016093930170939401809395013C
:1033E00090939601CB54DF4F288139814A815B81CC
:1033F000C55BD040CA01B9010E949E29A301920178
:103400000E94F72A0E94B72C9B01AC01C754DF4FE2
:10341000688179818A819B81C95BD0400E94D52BCC
:103420000E94A62B2B013C01609397017093980199
:103430008093990190939A0120E030E044E353E4B3
:10344000C501B4010E949E292BED3FE049E450E400
:103450000E94D52B2091E9013091EA014091EB01C6
:103460005091EC010E94F62A6093850170938601C9
:10347000809387019093880120E030E044E353E497
:10348000C701B6010E949E292BED3FE049E450E4BC
:103490000E94D52B2091E5013091E6014091E70192
:1034A0005091E8010E94F62A609381017093820195
:1034B000809383019093840120E030E044E353E45F
:1034C000C301B2010E949E292BED3FE049E450E484
:1034D0000E94D52B2091E1013091E2014091E3015E
:1034E0005091E4010E94F62A60937D0170937E0161
:1034F00080937F019093800180E093E00E94B0056B
:10350000892B09F4E8C461E070E0CE0184559F4F37
:103510000E946310C455DF4F1881CC5AD04015303B
:1035200008F0FAC00E94920860931B0270931C027C
:1035300080931D0290931E0211111FC061E070E084
:10354000CE018F579F4F0E94631061E070E0C10170
:103550000E946310CF57DF4F8881C158D0409981B6
:103560008913D4C1811103C00E94C60EB4C4813036
:1035700009F0B1C40E94DC0EAEC4113009F0CCC019
:1035800062E070E0C1010E94631061E070E0CE0172
:103590008F579F4F0E94631062E070E0C1010E944C
:1035A000610F8F5FCF57DF4F9881C158D04089138B
:1035B000ADC160E084E00E94D00720918501309188
:1035C000860140918701509188016091E9017091D5
:1035D000EA018091EB019091EC010E94F72A60933F
:1035E000E9017093EA018093EB019093EC01209143
:1035F0008101309182014091830150918401609159
:10360000E5017091E6018091E7019091E8010E9447
:10361000F72A6093E5017093E6018093E7019093A8
:10362000E80120917D0130917E0140917F01509110
:1036300080016091E1017091E2018091E30190913C
:10364000E4010E94F72A6093E1017093E201809304
:10365000E3019093E401109285011092860110928B
:1036600087011092880110928101109282011092BC
:1036700083011092840110927D0110927E011092BC
:103680007F011092800110926D0110926E011092D4
:103690006F01109270011092690110926A011092EC
:1036A0006B0110926C0110926501109266011092EC
:1036B00067011092680110926101109262011092EC
:1036C00063011092640110925D0110925E011092EC
:1036D0005F01109260011092590110925A011092EC
:1036E0005B0110925C011092790110927A011092A4
:1036F0007B0110927C01109275011092760110925C
:10370000770110927801109271011092720110925B
:10371000730110927401DFC3123009F057C065E0E5
:1037200070E0C1010E94631061E070E0CE018F572C
:103730009F4F0E94631065E070E0C1010E94610F1D
:103740008E5FCF57DF4F9881C158D0408913DEC0BC
:10375000B1E0B0938D010E94DC0E698170E080E0E1
:1037600090E00E943D2960930702709308028093C5
:10377000090290930A026A8170E080E090E00E9462
:103780003D29609317027093180280931902909359
:103790001A026B8170E080E090E00E943D29609306
:1037A0000F0270931002809311029093120281E035
:1037B0009C81911101C080E08093F60181E09D81A0
:1037C000911101C080E08093F50185C3133009F0A9
:1037D00072C064E070E0C1010E94631061E070E0BB
:1037E000CE018F579F4F0E94631064E070E0C101CB
:1037F0000E94610F8D5FCF57DF4F9881C158D04035
:10380000891384C010928D010E94C60E1092F1019E
:103810001092F2011092F3011092F401109207023B
:10382000109208021092090210920A0210920F02DE
:1038300010921002109211021092120210921702AE
:10384000109218021092190210921A021092F001AE
:103850001092EF011092EE011092ED016A8170E07A
:1038600080E090E00E943D292B013C016B8170E0DB
:1038700080E090E00E943D294B015C016C8170E08A
:1038800080E090E00E943D296B017C01698170E03D
:1038900080E090E00E943D290E94720EC301B201B7
:1038A0000E942B0EC501B4010E94E40DC701B601B0
:1038B0000E949D0D10C3143009F00DC36EE170E03D
:1038C000CE018F579F4F0E94631061E070E0CE01E0
:1038D00085559F4F0E9463106EE170E0CE018F57B7
:1038E0009F4F0E94610F8C5FC555DF4F9881CB5A67
:1038F000D040891781F060E471E0C1010E94AC12F0
:10390000C1010E94BA0FC1010E94A71280E093E09A
:103910000E942E06E0C2CF57DF4F8881C158D040A9
:10392000882321F02FEF3FEFA90104C021E030E010
:1039300040E050E0CE57DF4FC880C258D040D12C75
:10394000E12CF12CFC2CEE24DD24CC24CD57DF4FD0
:103950008881C358D04090E0A0E0B0E0DC01992716
:103960008827C80ED91EEA1EFB1ECC57DF4F888160
:10397000C458D04090E0A0E0B0E0BA2FA92F982F13
:1039800088278C0D9D1DAE1DBF1DCB57DF4FE881D5
:10399000C558D040BC01CD016E0F711D811D911D18
:1039A0000E94102D0E943F2920E030E543EC57E4AF
:1039B0000E94D52B6B017C0160930302709304027B
:1039C0008093050290930602CA57DF4F8881C6583C
:1039D000D040882321F02FEF3FEFA90104C021E060
:1039E00030E040E050E0C957DF4F8880C758D040F2
:1039F000912CA12CB12C782C662455244424C85732
:103A0000DF4F8880C858D040912CA12CB12CD40114
:103A10009927882753014201880E991EAA1EBB1EB2
:103A2000C757DF4F6881C958D040862F90E0A0E08B
:103A3000B0E0BA2FA92F982F8827880D991DAA1DAD
:103A4000BB1DC657DF4FE881CA58D040BC01CD012D
:103A50006E0F711D811D911D0E94102D0E943F2926
:103A600020E030E543EC57E40E94D52B6093FF0142
:103A7000709300028093010290930202C557DF4FBA
:103A80008881CB58D040882321F02FEF3FEFA90148
:103A900004C021E030E040E050E0C457DF4F8880B0
:103AA000CC58D040912CA12CB12C782C66245524D4
:103AB0004424C357DF4F8880CD58D040912CA12C8F
:103AC000B12CD4019927882753014201880E991EF1
:103AD000AA1EBB1EC257DF4F6881CE58D040862F2A
:103AE00090E0A0E0B0E0BA2FA92F982F8827880D8A
:103AF000991DAA1DBB1DC157DF4FE881CF58D0408B
:103B0000BC01CD016E0F711D811D911D0E94102DF4
:103B10000E943F2920E030E543EC57E40E94D52B7A
:103B20006093FB017093FC018093FD019093FE0173
:103B3000C057DF4F8881C059D040882321F02FEF34
:103B40003FEFA90104C021E030E040E050E0CF5653
:103B5000DF4F8880C159D040912CA12CB12C782CFA
:103B6000662455244424CE56DF4F8880C259D04065
:103B7000912CA12CB12CD401992788275301420103
:103B8000880E991EAA1EBB1ECD56DF4F6881C359F1
:103B9000D040862F90E0A0E0B0E0BA2FA92F982F58
:103BA0008827880D991DAA1DBB1DCC56DF4FE881C3
:103BB000C459D040BC01CD016E0F711D811D911DF6
:103BC0000E94102D0E943F2920E030E543EC57E48D
:103BD0000E94D52B60930C0170930D0180930E0110
:103BE00090930F01CB56DF4F8881C559D040882371
:103BF00021F02FEF3FEFA90104C021E030E040E0C9
:103C000050E0CA56DF4F8880C659D040912CA12C75
:103C1000B12C782C662455244424C956DF4F888063
:103C2000C759D040912CA12CB12CD40199278827B9
:103C300053014201880E991EAA1EBB1EC856DF4FB3
:103C40006881C859D040862F90E0A0E0B0E0BA2F3C
:103C5000A92F982F8827880D991DAA1DBB1DC7560F
:103C6000DF4FE881C959D040BC01CD016E0F711DF5
:103C7000811D911D0E94102D0E943F2920E030E5FA
:103C800043EC57E40E94D52B60930801709309011F
:103C900080930A0190930B01C656DF4F8881CA5961
:103CA000D040882321F02FEF3FEFA90104C021E08D
:103CB00030E040E050E0C556DF4F8880CB59D0401F
:103CC000912CA12CB12C782C662455244424C45664
:103CD000DF4F8880CC59D040912CA12CB12CD4013D
:103CE0009927882753014201880E991EAA1EBB1EE0
:103CF000C356DF4F6881CD59D040862F90E0A0E0B9
:103D0000B0E0BA2FA92F982F8827880D991DAA1DDA
:103D1000BB1DC256DF4FE881CE59D040BC01CD015A
:103D20006E0F711D811D911D0E94102D0E943F2953
:103D300020E030E543EC57E40E94D52B609304016A
:103D40007093050180930601909307016FE371E082
:103D5000CE018B559F4F0E94AC12C156DF4F198286
:103D60001882CF59D040CF55DF4F19821882C15ADF
:103D7000D040CD55DF4F19821882C35AD0408101FF
:103D800022E044E0C701B6010E94A226009779F024
:103D9000FC0101900020E9F73197AF01481B590B56
:103DA000BC01CE0181569F4F0E94861205C0CE01F4
:103DB00081569F4F0E944C12CB55DF4F88819981CD
:103DC000C55AD040009749F1C156DF4F68817981CB
:103DD000CF59D04061157105F1F0C955DF4F4881C9
:103DE0005981C75AD040CD55DF4F28813981C35AF8
:103DF000D0404217530778F00E94442FCD55DF4F33
:103E000088819981C35AD040C755DF4F99838883F1
:103E1000C95AD04032C00E94C72DC156DF4F888199
:103E20009981CF59D040CB55DF4F99838883C55AAC
:103E3000D040CF55DF4F88819981C15AD040C955B4
:103E4000DF4F99838883C75AD040CD55DF4F888193
:103E50009981C35AD040C755DF4F99838883C95A87
:103E6000D040C156DF4F19821882CF59D040CF556C
:103E7000DF4F19821882C15AD040CD55DF4F1982C9
:103E80001882C35AD040CE0181569F4F0E94A7127C
:103E90001A8219821C821B821E821D82CB55DF4F23
:103EA00068817981C55AD0406115710549F0C755BF
:103EB000DF4F48815981C95AD040C1010E94861202
:103EC000C1010E94BA0FC1010E94A712CE018B55F9
:103ED0009F4F0E94A7120E949208C090F701D090B5
:103EE000F801E090F901F090FA01E4E6CE0ED11C61
:103EF000E11CF11C6C157D058E059F0508F472C050
:103F00000E9492086093F7017093F8018093F90181
:103F10009093FA01D101E5E01D92EA95E9F7F9E005
:103F2000F9836091550170915601809157019091EC
:103F300058010E944E2C6A83609151017091520188
:103F400080915301909154010E944E2C6B8360919B
:103F50004D0170914E0180914F01909150010E944E
:103F60004E2C6C836091490170914A0180914B0104
:103F700090914C010E944E2C6D8388E0CF57DF4F0B
:103F80008883C158D04060918101709182018091F5
:103F90008301909184010E944E2CCE57DF4F68839D
:103FA000C258D040CD57DF4F6883C358D04060918E
:103FB0007D0170917E0180917F01909180010E942E
:103FC0004E2CCC57DF4F6883C458D04065E070E07A
:103FD000C1010E946E0F64E070E0CE018F579F4FC9
:103FE0000E946E0F0E949208C0901B02D0901C028B
:103FF000E0901D02F0901E02DC01CB018C199D099E
:10400000AE09BF09893C9105A105B10510F00E94D8
:10401000C60E80918D01882309F4C5C560911702F1
:10402000709118028091190290911A020E94472CF7
:104030009B01AC012C593F4F4F4F5F4FA2EFBFEF99
:104040000E94892A28EC30E040E050E00E945C2A7F
:10405000CA01B901695F7F4F8F4F9F4F0E943F296F
:104060004B015C016093130270931402809315025C
:104070009093160260910F027091100280911102CC
:10408000909112020E94472C9B01AC012C593F4F8A
:104090004F4F5F4FAEE0B0E00E947B2A28EC30E04B
:1040A00040E050E00E945C2ACA01B90167507109E2
:1040B000810991090E943F296B017C0160930B02E9
:1040C00070930C0280930D0290930E020E9492084E
:1040D0004090890150908A0160908B0170908C0112
:1040E00064197509860997090E943D29C353DF4F5A
:1040F000688379838A839B83CD5CD040209185013E
:10410000309186014091870150918801C355DF4F5E
:10411000288339834A835B83CD5AD04080918101C3
:1041200090918201A0918301B0918401CF52DF4F21
:1041300088839983AA83BB83C15DD040A501940184
:10414000BC01CD010E94F62ACF53DF4F68837983EB
:104150008A839B83C15CD04020917D0130917E0198
:1041600040917F0150918001CB52DF4F28833983EA
:104170004A835B83C55DD040A7019601CB52DF4FD8
:10418000688179818A819B81C55DD0400E94F62A31
:10419000CB53DF4F688379838A839B83C55CD04090
:1041A00020E030E0A901C355DF4F688179818A8121
:1041B0009B81CD5AD0400E94A42C181694F0C35570
:1041C000DF4F88819981AA81BB81CD5AD040B058F8
:1041D000CB54DF4F88839983AA83BB83C55BD040D0
:1041E00010C0C355DF4F288139814A815B81CD5A88
:1041F000D040CB54DF4F288339834A835B83C55B30
:10420000D04020E030E0A901CF53DF4F68817981B1
:104210008A819B81C15CD0400E94A42C181694F026
:10422000CF53DF4F88819981AA81BB81C15CD04087
:10423000B058C754DF4F88839983AA83BB83C95B77
:10424000D04010C0CF53DF4F288139814A815B8134
:10425000C15CD040C754DF4F288339834A835B83D6
:10426000C95BD04020E030E0A901CB53DF4F68812B
:1042700079818A819B81C55CD0400E94A42C18164C
:1042800094F0CB53DF4F88819981AA81BB81C55CB3
:10429000D040B058C354DF4F88839983AA83BB832F
:1042A000CD5BD04010C0CB53DF4F288139814A818C
:1042B0005B81C55CD040C354DF4F288339834A8378
:1042C0005B83CD5BD0402091790130917A014091A0
:1042D0007B0150917C01C355DF4F688179818A81D0
:1042E0009B81CD5AD0400E94F62A4B015C0120915F
:1042F0007501309176014091770150917801CF524C
:10430000DF4F688179818A819B81C15DD0400E94A5
:10431000F62A6B017C01209171013091720140916C
:10432000730150917401CB52DF4F688179818A818A
:104330009B81C55DD0400E94F62A2601370177FA9D
:10434000709477F870949B01AC015058CB51DF4FBB
:10435000288339834A835B83C55ED0402AE939E9E3
:1043600049E95EE3CB54DF4F688179818A819B8183
:10437000C55BD0400E94382987FF08C010926D01AC
:1043800010926E0110926F011092700180910702DD
:1043900090910802A0910902B0910A02CF54DF4F18
:1043A00088839983AA83BB83C15BD04020E030E03F
:1043B000A901BC01CD010E943829882309F12AE90D
:1043C00039E949E95EE3C754DF4F688179818A8121
:1043D0009B81C95BD0400E94382987FD11C02AE922
:1043E00039E949E95EE3C354DF4F688179818A8105
:1043F0009B81CD5BD0400E94382987FD18C01FC02B
:104400001092690110926A0110926B0110926C0176
:1044100020E030E0A901CF54DF4F688179818A81A3
:104420009B81C15BD0400E9438298111D8CF109266
:104430006501109266011092670110926801209147
:104440006D0130916E0140916F0150917001C75222
:10445000DF4F288339834A835B83C95DD040209135
:104460000302309104024091050250910602CB54A0
:10447000DF4F688179818A819B81C55BD0400E9432
:104480009E2920E030E048EC52E40E94D52B6B01DD
:104490007C012091FF013091000240910102509176
:1044A0000202C752DF4F688179818A819B81C95D91
:1044B000D0400E949E2920E030E04AE754E40E9468
:1044C000D52B9B01AC01C701B6010E94F72A6B01F5
:1044D0007C012091FB013091FC014091FD01509144
:1044E000FE01C501B4010E949E29C353DF4F2881FC
:1044F00039814A815B81CD5CD0400E94D52B9B01E4
:10450000AC01C701B6010E94F62AC753DF4F68838A
:1045100079838A839B83C95CD040809169019091A3
:104520006A01A0916B01B0916C01C352DF4F888387
:104530009983AA83BB83CD5DD04020910C0130913B
:104540000D0140910E0150910F01C754DF4F68815A
:1045500079818A819B81C95BD0400E949E2920E09D
:1045600030E048EC52E40E94D52B6B017C01209195
:1045700008013091090140910A0150910B01C35289
:10458000DF4F688179818A819B81CD5DD0400E9417
:104590009E2920E030E04AE754E40E94D52B9B019D
:1045A000AC01C701B6010E94F72A6B017C01209182
:1045B0000401309105014091060150910701C301AA
:1045C000B2010E949E29C353DF4F288139814A815D
:1045D0005B81CD5CD0400E94D52B9B01AC01C70113
:1045E000B6010E94F62A2B013C0120916501309111
:1045F00066014091670150916801CF51DF4F2883D8
:1046000039834A835B83C15ED0402091B1033091EE
:10461000B2034091B3035091B403C354DF4F688198
:1046200079818A819B81CD5BD0400E949E2920E0C8
:1046300030E048EC52E40E94D52B6B017C012091C4
:10464000AD033091AE034091AF035091B003CF5111
:10465000DF4F688179818A819B81C15ED0400E9451
:104660009E2920E030E04AE754E40E94D52B9B01CC
:10467000AC01C701B6010E94F72A6B017C012091B1
:10468000A9033091AA034091AB035091AC03CB51E5
:10469000DF4F688179818A819B81C55ED0400E940D
:1046A0009E29C353DF4F288139814A815B81CD5CCC
:1046B000D0400E94D52B9B01AC01C701B6010E94DE
:1046C000F62A4B015C0120E030E040E751E4C301F1
:1046D000B2010E94A42C20E030E040E751E418161B
:1046E0000CF46AC2C501B4010E94A42C20E030E0A1
:1046F00040E751EC1816ECF0C301B2010E943829D2
:1047000087FF06C0412C512C50E7652E51EC752EC9
:1047100020E030E040E751ECC501B4010E943829A7
:1047200087FF19C0812C912C40E7A42E41ECB42EB8
:1047300012C0C301B2010E94382987FF06C0412C74
:10474000512C30E7632E31EC732E812C912C20E715
:10475000A22E21E4B22E0E949208609389017093E8
:104760008A0180938B0190938C01CB54DF4F888119
:104770009981AA81BB81C55BD040809361019093F0
:104780006201A0936301B0936401C754DF4F288195
:1047900039814A815B81C95BD04020935D013093B0
:1047A0005E0140935F0150936001C354DF4F8881E5
:1047B0009981AA81BB81CD5BD040809359019093B0
:1047C0005A01A0935B01B0935C01C355DF4F288170
:1047D00039814A815B81CD5AD04020937901309351
:1047E0007A0140937B0150937C01CF52DF4F888147
:1047F0009981AA81BB81C15DD0408093750190935E
:104800007601A0937701B0937801CB52DF4F2881D6
:1048100039814A815B81C55DD0402093710130931D
:1048200072014093730150937401CB54DF4F288180
:1048300039814A815B81C55BD040C752DF4F6881B7
:1048400079818A819B81C95DD0400E94F72A60935B
:104850006D0170936E0180936F0190937001C75446
:10486000DF4F288139814A815B81C95BD040C352C7
:10487000DF4F688179818A819B81CD5DD0400E9424
:10488000F72A6093690170936A0180936B0190939A
:104890006C01C354DF4F288139814A815B81CD5B34
:1048A000D040CF51DF4F688179818A819B81C15E81
:1048B000D0400E94F72A609365017093660180934F
:1048C00067019093680120E030E0A901C355DF4FF4
:1048D000688179818A819B81CD5AD0400E94382994
:1048E000C753DF4F288139814A815B81C95CD04041
:1048F00087FF1FC0CF54DF4F688179818A819B81F8
:10490000C15BD0400E94F62A6B017C01C753DF4F88
:10491000288139814A815B81C95CD040CF54DF4F07
:10492000688179818A819B81C15BD0400E94F72A8E
:104930001EC0CF54DF4F688179818A819B81C15B22
:10494000D0400E94F72A6B017C01C753DF4F2881BA
:1049500039814A815B81C95CD040CF54DF4F688187
:1049600079818A819B81C15BD0400E94F62AC35520
:10497000DF4F688379838A839B83CD5AD04020E0C0
:1049800030E0A901CF53DF4F688179818A819B8113
:10499000C15CD0400E943829A301920187FD35C037
:1049A000C701B6010E94F62ACF54DF4F688379838E
:1049B0008A839B83C15BD040A3019201C355DF4F23
:1049C000688179818A819B81CD5AD0400E94F62AE4
:1049D000CB54DF4F688379838A839B83C55BD04048
:1049E000A3019201C701B6010E94F72A6B017C0165
:1049F000A3019201C355DF4F688179818A819B8130
:104A0000CD5AD0400E94F72A34C0C701B6010E9497
:104A1000F72ACF54DF4F688379838A839B83C15BF6
:104A2000D040A3019201C355DF4F688179818A810B
:104A30009B81CD5AD0400E94F72ACB54DF4F688328
:104A400079838A839B83C55BD040A3019201C70110
:104A5000B6010E94F62A6B017C01A3019201C355A5
:104A6000DF4F688179818A819B81CD5AD0400E9435
:104A7000F62A2B013C0120E030E0A901CB53DF4FA7
:104A8000688179818A819B81C55CD0400E943829E8
:104A9000A501940187FF35C0CF54DF4F688179812C
:104AA0008A819B81C15BD0400E94F62AC355DF4FAB
:104AB000688379838A839B83CD5AD040A501940172
:104AC000CB54DF4F688179818A819B81C55BD0405F
:104AD0000E94F72ACF54DF4F688379838A839B83B0
:104AE000C15BD040A5019401C701B6010E94F72A1D
:104AF0006B017C01A5019401C301B2010E94F62A59
:104B000034C0CF54DF4F688179818A819B81C15B3A
:104B1000D0400E94F72AC355DF4F688379838A8388
:104B20009B83CD5AD040A5019401CB54DF4F6881BF
:104B300079818A819B81C55BD0400E94F62ACF543F
:104B4000DF4F688379838A839B83C15BD040A50153
:104B50009401C701B6010E94F62A6B017C01A501F0
:104B60009401C301B2010E94F72A4B015C01C355B5
:104B7000DF4F688179818A819B81CD5AD0400E9424
:104B8000720ECF54DF4F688179818A819B81C15B2E
:104B9000D0400E942B0EC701B6010E94E40DC50152
:104BA000B4010E949D0D60E070E0CB010E945808A6
:104BB0000E9450060C94DD17C501B4010E94A42C7C
:104BC000412C512C90E7692E91E4792E18160CF4A3
:104BD000BCCD9ECDE0E0F3E01382128288EE93E03C
:104BE000A0E0B0E084839583A683B7832CE131E015
:104BF0003183208325EC30E03587248724EC30E0B6
:104C00003787268720EC30E0318B208B21EC30E099
:104C1000338B228B22EC30E0358B248B26EC30E07A
:104C2000378B268B118E128E138E148EEDE9F3E0E6
:104C30001382128284839583A683B7838CE291E0EA
:104C40009183808388E68093DD03EDECF3E080E0E0
:104C500090E0A0E8BFE380839183A283B3831482B2
:104C60001582168217821086118612861386148684
:104C7000158616861786ECEFF3E0118210821382F8
:104C8000128215821482E6EFF3E011821082138201
:104C9000128215821482E0EFF3E0118210821382F7
:104CA000128215821482E1ECF3E0108211821282EA
:104CB000138214821582168217821086118612863C
:104CC00013868EEB93E00E94920B8BEB93E00E9495
:104CD000920B88EB93E00E94920B85EB93E00E948D
:104CE000920B80910C0190910D01A0910E01B09159
:104CF0000F018093B1039093B203A093B303B093D9
:104D0000B4038091080190910901A0910A01B0912A
:104D10000B018093AD039093AE03A093AF03B093C8
:104D2000B0038091040190910501A0910601B0911A
:104D300007018093A9039093AA03A093AB03B093B8
:104D4000AC030895EF920F931F93CF93DF93E80185
:104D500047FD02C034E001C034E1E42F440FFF0BF3
:104D6000F7FF03C0F195E195F109E32E022F2E2FF5
:104D7000AE010E94D226CE01DF91CF911F910F91FB
:104D8000EF900895FB01DC0105900D920020E1F702
:104D90000895FC0105900020E9F7809590958E0F0D
:104DA0009F1F08954F925F926F927F929F92AF9252
:104DB000BF92CF92DF92EF92FF920F931F93CF9308
:104DC000DF93CDB7DEB729970FB6F894DEBF0FBEDD
:104DD000CDBF6A01122FB02E2BE3201720F0FF2445
:104DE000F394F00E02C0BCE3FB2E0F2D27E0AE01C2
:104DF0004F5F5F4F0E946028AC018981982F9970A6
:104E0000913031F0E1FC06C0E0FE06C090E205C042
:104E10009DE203C09BE201C090E0EE2DE07183FFB4
:104E20003CC0911102C083E001C084E0811718F4F6
:104E3000212F281B01C020E0E1110BC0F601822FB9
:104E400030E2882319F031938150FBCFC20ED11C80
:104E500020E0992329F0D6019C93F60131966F0149
:104E6000C6010396E2FE0AC03EE4D6013C9341E44B
:104E700011964C93119712963C9306C03EE6F601AC
:104E8000308341E641833283FC01322F40E23323F9
:104E900009F442C041933150FACF82FF44C09111CE
:104EA00002C083E001C084E0811718F4212F281B81
:104EB00001C020E0E1110BC0F601822F30E288230F
:104EC00019F031938150FBCFC20ED11C20E0992301
:104ED00029F0D6019C93F60131966F01C601039625
:104EE000E2FE0BC039E4D6013C933EE411963C93BC
:104EF000119736E412963C9307C039E6F6013083E9
:104F00003EE6318336E63283FC01322F40E2332322
:104F100019F041933150FBCFFC01E20FF11D1082DB
:104F20008EEF9FEFB7C0F1E0911101C0F0E06F2F5D
:104F300070E01416150624F49A012F5F3F4F02C04B
:104F400021E030E0260F371FBB2029F06B2D70E0E9
:104F50006F5F7F4F02C060E070E0260F371F612F48
:104F600070E0261737071CF4121B212F01C020E028
:104F70003E2D387159F4D601322F60E2332319F0F7
:104F80006D933150FBCFC20ED11C20E0FF2331F0D6
:104F9000D6019C93B6016F5F7F4F6B01E1110BC08F
:104FA000F601922F30E3992319F031939150FBCF02
:104FB000C20ED11C20E09F2D940F3A81782F707182
:104FC000A72E84FF03C0313309F49150191624F43D
:104FD000993018F098E001C091E0E42F852F57FF39
:104FE00002C0E0E080E06E2F782FE0E0F0E0AEE27B
:104FF0009A2E3A01691A71082A01461A570A0B2D8E
:1050000010E01195019511096F3F8FEF780729F492
:10501000D6019C92C60101966C014617570784F091
:10502000661677066CF47F01E40CF51CA1E0B0E095
:10503000AC0FBD1FEA0EFB1ED7011196BC9002C03B
:1050400090E3B92E615071093196C60101967C0139
:105050006017710724F0D601BC926C01D5CF64179C
:10506000750741F4363320F4353321F4A11002C022
:1050700081E3B82EF601B082F701822F90E28823F7
:1050800019F091938150FBCFF701E20FF11D1082CF
:1050900080E090E029960FB6F894DEBF0FBECDBF3A
:1050A000DF91CF911F910F91FF90EF90DF90CF9004
:1050B000BF90AF909F907F906F905F904F900895BA
:1050C000283008F027E03327DA01990F311D87FDDA
:1050D000916000966105710539F432602E5F3D9351
:1050E00030E32A95E1F708959F3F30F0803871054D
:1050F000610509F03C5F3C5F3D93913008F08068AA
:10510000911DDF93CF931F930F93FF92EF92192F6F
:10511000987F9695E92F96959695E90FFF27E05190
:10512000FF4F99273327EE24FF24A701E7010590BD
:105130000894079428F4360FE71EF81E491F511DE6
:10514000660F771F881F991F0694A1F70590079493
:1051500028F4E70EF81E491F561FC11D770F881F40
:10516000991F661F0694A1F70590079428F4F80E7E
:10517000491F561FC71FD11D880F991F661F771F14
:105180000694A1F70590079420F4490F561FC71FF6
:10519000D81F990F661F771F881F0694A9F784915F
:1051A0001095177041F0D695C79557954795F79488
:1051B000E7941A95C1F7E6E9F0E068941590159127
:1051C00035916591959105907FE27395E118F10A0B
:1051D000430B560BC90BD009C0F7E10CF11E431F5E
:1051E000561FC91FD01D7EF4703311F48A95E6CF87
:1051F000E894015030F0080F0AF40027021708F471
:10520000202F2395022F7A3328F079E37D932A9576
:10521000E9F710C07D932A9589F6069497956795CE
:10522000379517951794E118F10A430B560BC90BE4
:10523000D00998F023957E9173957A3308F070E346
:105240007C932013B8F77E9170617D9330F0839545
:1052500071E37D9370E32A95E1F71124EF90FF90BD
:105260000F911F91CF91DF91992787FD9095089518
:105270000E947A2908F481E00895E89409C097FB18
:105280003EF490958095709561957F4F8F4F9F4F1D
:105290009923A9F0F92F96E9BB279395F695879561
:1052A00077956795B795F111F8CFFAF4BB0F11F424
:1052B00060FF1BC06F5F7F4F8F4F9F4F16C08823CB
:1052C00011F096E911C0772321F09EE8872F762F01
:1052D00005C0662371F096E8862F70E060E02AF042
:1052E0009A95660F771F881FDAF7880F969587952E
:1052F00097F90895990F0008550FAA0BE0E8FEEF03
:1053000016161706E807F907C0F012161306E40789
:10531000F50798F0621B730B840B950B39F40A2682
:1053200061F0232B242B252B21F408950A2609F460
:10533000A140A6958FEF811D811D08950E94B1297E
:105340000C94222A0E94142A38F00E941B2A20F072
:10535000952311F00C940B2A0C94112A11240C940F
:10536000562A0E94332A70F3959FC1F3950F50E09F
:10537000551F629FF001729FBB27F00DB11D639F07
:10538000AA27F00DB11DAA1F649F6627B00DA11DAD
:10539000661F829F2227B00DA11D621F739FB00D53
:1053A000A11D621F839FA00D611D221F749F3327C3
:1053B000A00D611D231F849F600D211D822F762F5C
:1053C0006A2F11249F5750409AF0F1F088234AF039
:1053D000EE0FFF1FBB1F661F771F881F91505040A5
:1053E000A9F79E3F510580F00C940B2A0C94562A85
:1053F0005F3FE4F3983ED4F3869577956795B7952C
:10540000F795E7959F5FC1F7FE2B880F911D969545
:10541000879597F9089597F99F6780E870E060E0B5
:1054200008959FEF80EC089500240A94161617063D
:1054300018060906089500240A9412161306140685
:1054400005060895092E0394000C11F4882352F0E8
:10545000BB0F40F4BF2B11F460FF04C06F5F7F4FA0
:105460008F4F9F4F089557FD9058440F551F59F087
:105470005F3F71F04795880F97FB991F61F09F3F41
:1054800079F087950895121613061406551FF2CF6A
:105490004695F1DF08C0161617061806991FF1CFBA
:1054A00086957105610508940895E894BB276627E1
:1054B0007727CB0197F90895052E97FB1EF40094EA
:1054C0000E94732A57FD07D00E94C52A07FC03D00B
:1054D0004EF40C94732A50954095309521953F4F8A
:1054E0004F4F5F4F089590958095709561957F4FD0
:1054F0008F4F9F4F08950E94E72AA59F900DB49F5C
:10550000900DA49F800D911D11240895B7FF0C9458
:105510007B2A0E947B2A821B930B08952F923F9235
:105520004F925F926F927F928F929F92AF92BF92B3
:10553000CF92DF92EF92FF920F931F93CF93DF935F
:10554000CDB7DEB7CA1BDB0B0FB6F894DEBF0FBEBC
:10555000CDBF09942A88398848885F846E847D8409
:105560008C849B84AA84B984C884DF80EE80FD800B
:105570000C811B81AA81B981CE0FD11D0FB6F89481
:10558000DEBF0FBECDBFED010895A1E21A2EAA1B0A
:10559000BB1BFD010DC0AA1FBB1FEE1FFF1FA217E3
:1055A000B307E407F50720F0A21BB30BE40BF50BE0
:1055B000661F771F881F991F1A9469F76095709569
:1055C000809590959B01AC01BD01CF010895A29FEC
:1055D000B001B39FC001A39F700D811D1124911DC7
:1055E000B29F700D811D1124911D08955058BB2745
:1055F000AA270E940E2B0C94222A0E94142A38F00B
:105600000E941B2A20F039F49F3F19F426F40C94D1
:10561000112A0EF4E095E7FB0C940B2AE92F0E9467
:10562000332A58F3BA17620773078407950720F0E7
:1056300079F4A6F50C94552A0EF4E0950B2EBA2FAA
:10564000A02D0B01B90190010C01CA01A001112488
:10565000FF27591B99F0593F50F4503E68F11A1634
:10566000F040A22F232F342F4427585FF3CF4695C5
:1056700037952795A795F0405395C9F77EF41F16E7
:10568000BA0B620B730B840BBAF09150A1F0FF0FB1
:10569000BB1F661F771F881FC2F70EC0BA0F621F9D
:1056A000731F841F48F4879577956795B795F7958D
:1056B0009E3F08F0B0CF9395880F08F09927EE0F22
:1056C0009795879508950E94142A60F080E891E0EC
:1056D00009F49EEF0E941B2A28F040E851E071F483
:1056E0005EEF0CC00C94112A0C94552AE92FE07837
:1056F0000E94332A40F3092E052AB1F326173707F3
:105700004807590738F00E2E07F8E02569F0E02524
:10571000E0640AC0EF6307F8009407FADB01B901FF
:105720009D01DC01CA01AD01EF930E94EC2B0E94A8
:10573000222A0E94A62B5F91552339F02BED3FE0E2
:1057400049E450FD49EC0C94F72A0895DF93DD27D6
:10575000B92FBF7740E85FE31616170648075B07C7
:1057600018F4D92F0E94A92C9F938F937F936F9346
:105770000E94F72CE8E6F0E00E947D2C0E94222A8D
:105780002F913F914F915F910E94B129DD2351F0FC
:105790009058A2EA2AED3FE049EC5FE3D0785D271C
:1057A0000E940E2BDF910C94222A0E94E92B0C946C
:1057B000222A0E941B2A58F00E94142A40F029F441
:1057C0005F3F29F00C940B2A51110C94562A0C942B
:1057D000112A0E94332A68F39923B1F3552391F3D8
:1057E000951B550BBB27AA2762177307840738F050
:1057F0009F5F5F4F220F331F441FAA1FA9F335D0AD
:105800000E2E3AF0E0E832D091505040E695001C60
:10581000CAF72BD0FE2F29D0660F771F881FBB1F1A
:10582000261737074807AB07B0E809F0BB0B802DF8
:10583000BF01FF2793585F4F3AF09E3F510578F024
:105840000C940B2A0C94562A5F3FE4F3983ED4F351
:10585000869577956795B795F7959F5FC9F7880FF8
:10586000911D9695879597F90895E1E0660F771F4A
:10587000881FBB1F621773078407BA0720F0621BDB
:10588000730B840BBA0BEE1F88F7E09508950E9406
:105890004E2C6894B1110C94562A08950E943B2A0C
:1058A00088F09F5798F0B92F9927B751B0F0E1F0E1
:1058B000660F771F881F991F1AF0BA95C9F714C091
:1058C000B13091F00E94552AB1E008950C94552A08
:1058D000672F782F8827B85F39F0B93FCCF38695CA
:1058E00077956795B395D9F73EF490958095709527
:1058F00061957F4F8F4F9F4F0895DF93CF931F93F5
:105900000F93FF92EF92DF927B018C01689406C0A7
:10591000DA2EEF010E94B129FE01E894A5912591AC
:10592000359145915591A6F3EF010E940E2BFE0192
:105930009701A801DA9469F7DF90EF90FF900F913B
:105940001F91CF91DF9108950E947A2908F48FEF7B
:1059500008959B01AC0160E070E080E89FE30C9447
:10596000D52B19F416F40C94112A0C94FB2C0E94DC
:105970003B2AB8F39923C9F3B6F39F57550B87FF1A
:105980000E94092D0024A0E640EA90018058569517
:10599000979528F4805C660F771F881F20F02617E4
:1059A0003707480730F4621B730B840B2029312919
:1059B0004A2BA69517940794202531254A2758F796
:1059C000660F771F881F20F026173707480730F427
:1059D000620B730B840B200D311D411DA09581F7C7
:1059E000B901842F9158880F9695879508959B014A
:1059F000AC010C949E299F3F31F0915020F4879583
:105A000077956795B795880F911D9695879597F926
:105A1000089591505040660F771F881FD2F7089560
:105A2000DB018F939F930E947B2ABF91AF91A29F2E
:105A3000800D911DA39F900DB29F900D112408958C
:105A4000991B79E004C0991F961708F0961B881FD0
:105A50007A95C9F780950895EE0FFF1F0590F49190
:105A6000E02D0994CF93DF938230910510F482E00A
:105A700090E0E0910404F091050420E030E0C0E003
:105A8000D0E0309711F14081518148175907C0F09B
:105A90004817590761F482819381209719F09B83FD
:105AA0008A832BC0909305048093040426C021159B
:105AB000310519F04217530718F49A01BE01DF01AE
:105AC000EF010280F381E02DDCCF2115310509F1D2
:105AD000281B390B2430310590F412968D919C913E
